{
  "abi": [
    {
      "type": "function",
      "name": "DOMAIN_SEPARATOR",
      "inputs": [],
      "outputs": [
        {
          "name": "",
          "type": "bytes32",
          "internalType": "bytes32"
        }
      ],
      "stateMutability": "view"
    },
    {
      "type": "function",
      "name": "__activateTstore",
      "inputs": [],
      "outputs": [],
      "stateMutability": "nonpayable"
    },
    {
      "type": "function",
      "name": "__registerAllocator",
      "inputs": [
        {
          "name": "allocator",
          "type": "address",
          "internalType": "address"
        },
        {
          "name": "proof",
          "type": "bytes",
          "internalType": "bytes"
        }
      ],
      "outputs": [
        {
          "name": "",
          "type": "uint96",
          "internalType": "uint96"
        }
      ],
      "stateMutability": "nonpayable"
    },
    {
      "type": "function",
      "name": "allocatedTransfer",
      "inputs": [
        {
          "name": "transfer",
          "type": "tuple",
          "internalType": "struct BatchTransfer",
          "components": [
            {
              "name": "allocatorSignature",
              "type": "bytes",
              "internalType": "bytes"
            },
            {
              "name": "nonce",
              "type": "uint256",
              "internalType": "uint256"
            },
            {
              "name": "expires",
              "type": "uint256",
              "internalType": "uint256"
            },
            {
              "name": "transfers",
              "type": "tuple[]",
              "internalType": "struct TransferComponent[]",
              "components": [
                {
                  "name": "id",
                  "type": "uint256",
                  "internalType": "uint256"
                },
                {
                  "name": "amount",
                  "type": "uint256",
                  "internalType": "uint256"
                }
              ]
            },
            {
              "name": "recipient",
              "type": "address",
              "internalType": "address"
            }
          ]
        }
      ],
      "outputs": [
        {
          "name": "",
          "type": "bool",
          "internalType": "bool"
        }
      ],
      "stateMutability": "nonpayable"
    },
    {
      "type": "function",
      "name": "allocatedTransfer",
      "inputs": [
        {
          "name": "transfer",
          "type": "tuple",
          "internalType": "struct SplitBatchTransfer",
          "components": [
            {
              "name": "allocatorSignature",
              "type": "bytes",
              "internalType": "bytes"
            },
            {
              "name": "nonce",
              "type": "uint256",
              "internalType": "uint256"
            },
            {
              "name": "expires",
              "type": "uint256",
              "internalType": "uint256"
            },
            {
              "name": "transfers",
              "type": "tuple[]",
              "internalType": "struct SplitByIdComponent[]",
              "components": [
                {
                  "name": "id",
                  "type": "uint256",
                  "internalType": "uint256"
                },
                {
                  "name": "portions",
                  "type": "tuple[]",
                  "internalType": "struct SplitComponent[]",
                  "components": [
                    {
                      "name": "claimant",
                      "type": "address",
                      "internalType": "address"
                    },
                    {
                      "name": "amount",
                      "type": "uint256",
                      "internalType": "uint256"
                    }
                  ]
                }
              ]
            }
          ]
        }
      ],
      "outputs": [
        {
          "name": "",
          "type": "bool",
          "internalType": "bool"
        }
      ],
      "stateMutability": "nonpayable"
    },
    {
      "type": "function",
      "name": "allocatedTransfer",
      "inputs": [
        {
          "name": "transfer",
          "type": "tuple",
          "internalType": "struct SplitTransfer",
          "components": [
            {
              "name": "allocatorSignature",
              "type": "bytes",
              "internalType": "bytes"
            },
            {
              "name": "nonce",
              "type": "uint256",
              "internalType": "uint256"
            },
            {
              "name": "expires",
              "type": "uint256",
              "internalType": "uint256"
            },
            {
              "name": "id",
              "type": "uint256",
              "internalType": "uint256"
            },
            {
              "name": "recipients",
              "type": "tuple[]",
              "internalType": "struct SplitComponent[]",
              "components": [
                {
                  "name": "claimant",
                  "type": "address",
                  "internalType": "address"
                },
                {
                  "name": "amount",
                  "type": "uint256",
                  "internalType": "uint256"
                }
              ]
            }
          ]
        }
      ],
      "outputs": [
        {
          "name": "",
          "type": "bool",
          "internalType": "bool"
        }
      ],
      "stateMutability": "nonpayable"
    },
    {
      "type": "function",
      "name": "allocatedTransfer",
      "inputs": [
        {
          "name": "transfer",
          "type": "tuple",
          "internalType": "struct BasicTransfer",
          "components": [
            {
              "name": "allocatorSignature",
              "type": "bytes",
              "internalType": "bytes"
            },
            {
              "name": "nonce",
              "type": "uint256",
              "internalType": "uint256"
            },
            {
              "name": "expires",
              "type": "uint256",
              "internalType": "uint256"
            },
            {
              "name": "id",
              "type": "uint256",
              "internalType": "uint256"
            },
            {
              "name": "amount",
              "type": "uint256",
              "internalType": "uint256"
            },
            {
              "name": "recipient",
              "type": "address",
              "internalType": "address"
            }
          ]
        }
      ],
      "outputs": [
        {
          "name": "",
          "type": "bool",
          "internalType": "bool"
        }
      ],
      "stateMutability": "nonpayable"
    },
    {
      "type": "function",
      "name": "allocatedWithdrawal",
      "inputs": [
        {
          "name": "withdrawal",
          "type": "tuple",
          "internalType": "struct BasicTransfer",
          "components": [
            {
              "name": "allocatorSignature",
              "type": "bytes",
              "internalType": "bytes"
            },
            {
              "name": "nonce",
              "type": "uint256",
              "internalType": "uint256"
            },
            {
              "name": "expires",
              "type": "uint256",
              "internalType": "uint256"
            },
            {
              "name": "id",
              "type": "uint256",
              "internalType": "uint256"
            },
            {
              "name": "amount",
              "type": "uint256",
              "internalType": "uint256"
            },
            {
              "name": "recipient",
              "type": "address",
              "internalType": "address"
            }
          ]
        }
      ],
      "outputs": [
        {
          "name": "",
          "type": "bool",
          "internalType": "bool"
        }
      ],
      "stateMutability": "nonpayable"
    },
    {
      "type": "function",
      "name": "allocatedWithdrawal",
      "inputs": [
        {
          "name": "withdrawal",
          "type": "tuple",
          "internalType": "struct SplitBatchTransfer",
          "components": [
            {
              "name": "allocatorSignature",
              "type": "bytes",
              "internalType": "bytes"
            },
            {
              "name": "nonce",
              "type": "uint256",
              "internalType": "uint256"
            },
            {
              "name": "expires",
              "type": "uint256",
              "internalType": "uint256"
            },
            {
              "name": "transfers",
              "type": "tuple[]",
              "internalType": "struct SplitByIdComponent[]",
              "components": [
                {
                  "name": "id",
                  "type": "uint256",
                  "internalType": "uint256"
                },
                {
                  "name": "portions",
                  "type": "tuple[]",
                  "internalType": "struct SplitComponent[]",
                  "components": [
                    {
                      "name": "claimant",
                      "type": "address",
                      "internalType": "address"
                    },
                    {
                      "name": "amount",
                      "type": "uint256",
                      "internalType": "uint256"
                    }
                  ]
                }
              ]
            }
          ]
        }
      ],
      "outputs": [
        {
          "name": "",
          "type": "bool",
          "internalType": "bool"
        }
      ],
      "stateMutability": "nonpayable"
    },
    {
      "type": "function",
      "name": "allocatedWithdrawal",
      "inputs": [
        {
          "name": "withdrawal",
          "type": "tuple",
          "internalType": "struct BatchTransfer",
          "components": [
            {
              "name": "allocatorSignature",
              "type": "bytes",
              "internalType": "bytes"
            },
            {
              "name": "nonce",
              "type": "uint256",
              "internalType": "uint256"
            },
            {
              "name": "expires",
              "type": "uint256",
              "internalType": "uint256"
            },
            {
              "name": "transfers",
              "type": "tuple[]",
              "internalType": "struct TransferComponent[]",
              "components": [
                {
                  "name": "id",
                  "type": "uint256",
                  "internalType": "uint256"
                },
                {
                  "name": "amount",
                  "type": "uint256",
                  "internalType": "uint256"
                }
              ]
            },
            {
              "name": "recipient",
              "type": "address",
              "internalType": "address"
            }
          ]
        }
      ],
      "outputs": [
        {
          "name": "",
          "type": "bool",
          "internalType": "bool"
        }
      ],
      "stateMutability": "nonpayable"
    },
    {
      "type": "function",
      "name": "allocatedWithdrawal",
      "inputs": [
        {
          "name": "withdrawal",
          "type": "tuple",
          "internalType": "struct SplitTransfer",
          "components": [
            {
              "name": "allocatorSignature",
              "type": "bytes",
              "internalType": "bytes"
            },
            {
              "name": "nonce",
              "type": "uint256",
              "internalType": "uint256"
            },
            {
              "name": "expires",
              "type": "uint256",
              "internalType": "uint256"
            },
            {
              "name": "id",
              "type": "uint256",
              "internalType": "uint256"
            },
            {
              "name": "recipients",
              "type": "tuple[]",
              "internalType": "struct SplitComponent[]",
              "components": [
                {
                  "name": "claimant",
                  "type": "address",
                  "internalType": "address"
                },
                {
                  "name": "amount",
                  "type": "uint256",
                  "internalType": "uint256"
                }
              ]
            }
          ]
        }
      ],
      "outputs": [
        {
          "name": "",
          "type": "bool",
          "internalType": "bool"
        }
      ],
      "stateMutability": "nonpayable"
    },
    {
      "type": "function",
      "name": "allowance",
      "inputs": [
        {
          "name": "owner",
          "type": "address",
          "internalType": "address"
        },
        {
          "name": "spender",
          "type": "address",
          "internalType": "address"
        },
        {
          "name": "id",
          "type": "uint256",
          "internalType": "uint256"
        }
      ],
      "outputs": [
        {
          "name": "amount",
          "type": "uint256",
          "internalType": "uint256"
        }
      ],
      "stateMutability": "view"
    },
    {
      "type": "function",
      "name": "approve",
      "inputs": [
        {
          "name": "spender",
          "type": "address",
          "internalType": "address"
        },
        {
          "name": "id",
          "type": "uint256",
          "internalType": "uint256"
        },
        {
          "name": "amount",
          "type": "uint256",
          "internalType": "uint256"
        }
      ],
      "outputs": [
        {
          "name": "",
          "type": "bool",
          "internalType": "bool"
        }
      ],
      "stateMutability": "payable"
    },
    {
      "type": "function",
      "name": "balanceOf",
      "inputs": [
        {
          "name": "owner",
          "type": "address",
          "internalType": "address"
        },
        {
          "name": "id",
          "type": "uint256",
          "internalType": "uint256"
        }
      ],
      "outputs": [
        {
          "name": "amount",
          "type": "uint256",
          "internalType": "uint256"
        }
      ],
      "stateMutability": "view"
    },
    {
      "type": "function",
      "name": "claim",
      "inputs": [
        {
          "name": "claimPayload",
          "type": "tuple",
          "internalType": "struct ExogenousSplitBatchMultichainClaim",
          "components": [
            {
              "name": "allocatorSignature",
              "type": "bytes",
              "internalType": "bytes"
            },
            {
              "name": "sponsorSignature",
              "type": "bytes",
              "internalType": "bytes"
            },
            {
              "name": "sponsor",
              "type": "address",
              "internalType": "address"
            },
            {
              "name": "nonce",
              "type": "uint256",
              "internalType": "uint256"
            },
            {
              "name": "expires",
              "type": "uint256",
              "internalType": "uint256"
            },
            {
              "name": "additionalChains",
              "type": "bytes32[]",
              "internalType": "bytes32[]"
            },
            {
              "name": "chainIndex",
              "type": "uint256",
              "internalType": "uint256"
            },
            {
              "name": "notarizedChainId",
              "type": "uint256",
              "internalType": "uint256"
            },
            {
              "name": "claims",
              "type": "tuple[]",
              "internalType": "struct SplitBatchClaimComponent[]",
              "components": [
                {
                  "name": "id",
                  "type": "uint256",
                  "internalType": "uint256"
                },
                {
                  "name": "allocatedAmount",
                  "type": "uint256",
                  "internalType": "uint256"
                },
                {
                  "name": "portions",
                  "type": "tuple[]",
                  "internalType": "struct SplitComponent[]",
                  "components": [
                    {
                      "name": "claimant",
                      "type": "address",
                      "internalType": "address"
                    },
                    {
                      "name": "amount",
                      "type": "uint256",
                      "internalType": "uint256"
                    }
                  ]
                }
              ]
            }
          ]
        }
      ],
      "outputs": [
        {
          "name": "",
          "type": "bool",
          "internalType": "bool"
        }
      ],
      "stateMutability": "nonpayable"
    },
    {
      "type": "function",
      "name": "claim",
      "inputs": [
        {
          "name": "claimPayload",
          "type": "tuple",
          "internalType": "struct QualifiedClaimWithWitness",
          "components": [
            {
              "name": "allocatorSignature",
              "type": "bytes",
              "internalType": "bytes"
            },
            {
              "name": "sponsorSignature",
              "type": "bytes",
              "internalType": "bytes"
            },
            {
              "name": "sponsor",
              "type": "address",
              "internalType": "address"
            },
            {
              "name": "nonce",
              "type": "uint256",
              "internalType": "uint256"
            },
            {
              "name": "expires",
              "type": "uint256",
              "internalType": "uint256"
            },
            {
              "name": "witness",
              "type": "bytes32",
              "internalType": "bytes32"
            },
            {
              "name": "witnessTypestring",
              "type": "string",
              "internalType": "string"
            },
            {
              "name": "qualificationTypehash",
              "type": "bytes32",
              "internalType": "bytes32"
            },
            {
              "name": "qualificationPayload",
              "type": "bytes",
              "internalType": "bytes"
            },
            {
              "name": "id",
              "type": "uint256",
              "internalType": "uint256"
            },
            {
              "name": "allocatedAmount",
              "type": "uint256",
              "internalType": "uint256"
            },
            {
              "name": "claimant",
              "type": "address",
              "internalType": "address"
            },
            {
              "name": "amount",
              "type": "uint256",
              "internalType": "uint256"
            }
          ]
        }
      ],
      "outputs": [
        {
          "name": "",
          "type": "bool",
          "internalType": "bool"
        }
      ],
      "stateMutability": "nonpayable"
    },
    {
      "type": "function",
      "name": "claim",
      "inputs": [
        {
          "name": "claimPayload",
          "type": "tuple",
          "internalType": "struct QualifiedBatchMultichainClaim",
          "components": [
            {
              "name": "allocatorSignature",
              "type": "bytes",
              "internalType": "bytes"
            },
            {
              "name": "sponsorSignature",
              "type": "bytes",
              "internalType": "bytes"
            },
            {
              "name": "sponsor",
              "type": "address",
              "internalType": "address"
            },
            {
              "name": "nonce",
              "type": "uint256",
              "internalType": "uint256"
            },
            {
              "name": "expires",
              "type": "uint256",
              "internalType": "uint256"
            },
            {
              "name": "qualificationTypehash",
              "type": "bytes32",
              "internalType": "bytes32"
            },
            {
              "name": "qualificationPayload",
              "type": "bytes",
              "internalType": "bytes"
            },
            {
              "name": "additionalChains",
              "type": "bytes32[]",
              "internalType": "bytes32[]"
            },
            {
              "name": "claims",
              "type": "tuple[]",
              "internalType": "struct BatchClaimComponent[]",
              "components": [
                {
                  "name": "id",
                  "type": "uint256",
                  "internalType": "uint256"
                },
                {
                  "name": "allocatedAmount",
                  "type": "uint256",
                  "internalType": "uint256"
                },
                {
                  "name": "amount",
                  "type": "uint256",
                  "internalType": "uint256"
                }
              ]
            },
            {
              "name": "claimant",
              "type": "address",
              "internalType": "address"
            }
          ]
        }
      ],
      "outputs": [
        {
          "name": "",
          "type": "bool",
          "internalType": "bool"
        }
      ],
      "stateMutability": "nonpayable"
    },
    {
      "type": "function",
      "name": "claim",
      "inputs": [
        {
          "name": "claimPayload",
          "type": "tuple",
          "internalType": "struct QualifiedSplitBatchMultichainClaimWithWitness",
          "components": [
            {
              "name": "allocatorSignature",
              "type": "bytes",
              "internalType": "bytes"
            },
            {
              "name": "sponsorSignature",
              "type": "bytes",
              "internalType": "bytes"
            },
            {
              "name": "sponsor",
              "type": "address",
              "internalType": "address"
            },
            {
              "name": "nonce",
              "type": "uint256",
              "internalType": "uint256"
            },
            {
              "name": "expires",
              "type": "uint256",
              "internalType": "uint256"
            },
            {
              "name": "witness",
              "type": "bytes32",
              "internalType": "bytes32"
            },
            {
              "name": "witnessTypestring",
              "type": "string",
              "internalType": "string"
            },
            {
              "name": "qualificationTypehash",
              "type": "bytes32",
              "internalType": "bytes32"
            },
            {
              "name": "qualificationPayload",
              "type": "bytes",
              "internalType": "bytes"
            },
            {
              "name": "additionalChains",
              "type": "bytes32[]",
              "internalType": "bytes32[]"
            },
            {
              "name": "claims",
              "type": "tuple[]",
              "internalType": "struct SplitBatchClaimComponent[]",
              "components": [
                {
                  "name": "id",
                  "type": "uint256",
                  "internalType": "uint256"
                },
                {
                  "name": "allocatedAmount",
                  "type": "uint256",
                  "internalType": "uint256"
                },
                {
                  "name": "portions",
                  "type": "tuple[]",
                  "internalType": "struct SplitComponent[]",
                  "components": [
                    {
                      "name": "claimant",
                      "type": "address",
                      "internalType": "address"
                    },
                    {
                      "name": "amount",
                      "type": "uint256",
                      "internalType": "uint256"
                    }
                  ]
                }
              ]
            }
          ]
        }
      ],
      "outputs": [
        {
          "name": "",
          "type": "bool",
          "internalType": "bool"
        }
      ],
      "stateMutability": "nonpayable"
    },
    {
      "type": "function",
      "name": "claim",
      "inputs": [
        {
          "name": "claimPayload",
          "type": "tuple",
          "internalType": "struct QualifiedMultichainClaim",
          "components": [
            {
              "name": "allocatorSignature",
              "type": "bytes",
              "internalType": "bytes"
            },
            {
              "name": "sponsorSignature",
              "type": "bytes",
              "internalType": "bytes"
            },
            {
              "name": "sponsor",
              "type": "address",
              "internalType": "address"
            },
            {
              "name": "nonce",
              "type": "uint256",
              "internalType": "uint256"
            },
            {
              "name": "expires",
              "type": "uint256",
              "internalType": "uint256"
            },
            {
              "name": "qualificationTypehash",
              "type": "bytes32",
              "internalType": "bytes32"
            },
            {
              "name": "qualificationPayload",
              "type": "bytes",
              "internalType": "bytes"
            },
            {
              "name": "additionalChains",
              "type": "bytes32[]",
              "internalType": "bytes32[]"
            },
            {
              "name": "id",
              "type": "uint256",
              "internalType": "uint256"
            },
            {
              "name": "allocatedAmount",
              "type": "uint256",
              "internalType": "uint256"
            },
            {
              "name": "claimant",
              "type": "address",
              "internalType": "address"
            },
            {
              "name": "amount",
              "type": "uint256",
              "internalType": "uint256"
            }
          ]
        }
      ],
      "outputs": [
        {
          "name": "",
          "type": "bool",
          "internalType": "bool"
        }
      ],
      "stateMutability": "nonpayable"
    },
    {
      "type": "function",
      "name": "claim",
      "inputs": [
        {
          "name": "claimPayload",
          "type": "tuple",
          "internalType": "struct ExogenousQualifiedBatchMultichainClaim",
          "components": [
            {
              "name": "allocatorSignature",
              "type": "bytes",
              "internalType": "bytes"
            },
            {
              "name": "sponsorSignature",
              "type": "bytes",
              "internalType": "bytes"
            },
            {
              "name": "sponsor",
              "type": "address",
              "internalType": "address"
            },
            {
              "name": "nonce",
              "type": "uint256",
              "internalType": "uint256"
            },
            {
              "name": "expires",
              "type": "uint256",
              "internalType": "uint256"
            },
            {
              "name": "qualificationTypehash",
              "type": "bytes32",
              "internalType": "bytes32"
            },
            {
              "name": "qualificationPayload",
              "type": "bytes",
              "internalType": "bytes"
            },
            {
              "name": "additionalChains",
              "type": "bytes32[]",
              "internalType": "bytes32[]"
            },
            {
              "name": "chainIndex",
              "type": "uint256",
              "internalType": "uint256"
            },
            {
              "name": "notarizedChainId",
              "type": "uint256",
              "internalType": "uint256"
            },
            {
              "name": "claims",
              "type": "tuple[]",
              "internalType": "struct BatchClaimComponent[]",
              "components": [
                {
                  "name": "id",
                  "type": "uint256",
                  "internalType": "uint256"
                },
                {
                  "name": "allocatedAmount",
                  "type": "uint256",
                  "internalType": "uint256"
                },
                {
                  "name": "amount",
                  "type": "uint256",
                  "internalType": "uint256"
                }
              ]
            },
            {
              "name": "claimant",
              "type": "address",
              "internalType": "address"
            }
          ]
        }
      ],
      "outputs": [
        {
          "name": "",
          "type": "bool",
          "internalType": "bool"
        }
      ],
      "stateMutability": "nonpayable"
    },
    {
      "type": "function",
      "name": "claim",
      "inputs": [
        {
          "name": "claimPayload",
          "type": "tuple",
          "internalType": "struct QualifiedMultichainClaimWithWitness",
          "components": [
            {
              "name": "allocatorSignature",
              "type": "bytes",
              "internalType": "bytes"
            },
            {
              "name": "sponsorSignature",
              "type": "bytes",
              "internalType": "bytes"
            },
            {
              "name": "sponsor",
              "type": "address",
              "internalType": "address"
            },
            {
              "name": "nonce",
              "type": "uint256",
              "internalType": "uint256"
            },
            {
              "name": "expires",
              "type": "uint256",
              "internalType": "uint256"
            },
            {
              "name": "witness",
              "type": "bytes32",
              "internalType": "bytes32"
            },
            {
              "name": "witnessTypestring",
              "type": "string",
              "internalType": "string"
            },
            {
              "name": "qualificationTypehash",
              "type": "bytes32",
              "internalType": "bytes32"
            },
            {
              "name": "qualificationPayload",
              "type": "bytes",
              "internalType": "bytes"
            },
            {
              "name": "additionalChains",
              "type": "bytes32[]",
              "internalType": "bytes32[]"
            },
            {
              "name": "id",
              "type": "uint256",
              "internalType": "uint256"
            },
            {
              "name": "allocatedAmount",
              "type": "uint256",
              "internalType": "uint256"
            },
            {
              "name": "claimant",
              "type": "address",
              "internalType": "address"
            },
            {
              "name": "amount",
              "type": "uint256",
              "internalType": "uint256"
            }
          ]
        }
      ],
      "outputs": [
        {
          "name": "",
          "type": "bool",
          "internalType": "bool"
        }
      ],
      "stateMutability": "nonpayable"
    },
    {
      "type": "function",
      "name": "claim",
      "inputs": [
        {
          "name": "claimPayload",
          "type": "tuple",
          "internalType": "struct ExogenousQualifiedSplitBatchMultichainClaimWithWitness",
          "components": [
            {
              "name": "allocatorSignature",
              "type": "bytes",
              "internalType": "bytes"
            },
            {
              "name": "sponsorSignature",
              "type": "bytes",
              "internalType": "bytes"
            },
            {
              "name": "sponsor",
              "type": "address",
              "internalType": "address"
            },
            {
              "name": "nonce",
              "type": "uint256",
              "internalType": "uint256"
            },
            {
              "name": "expires",
              "type": "uint256",
              "internalType": "uint256"
            },
            {
              "name": "witness",
              "type": "bytes32",
              "internalType": "bytes32"
            },
            {
              "name": "witnessTypestring",
              "type": "string",
              "internalType": "string"
            },
            {
              "name": "qualificationTypehash",
              "type": "bytes32",
              "internalType": "bytes32"
            },
            {
              "name": "qualificationPayload",
              "type": "bytes",
              "internalType": "bytes"
            },
            {
              "name": "additionalChains",
              "type": "bytes32[]",
              "internalType": "bytes32[]"
            },
            {
              "name": "chainIndex",
              "type": "uint256",
              "internalType": "uint256"
            },
            {
              "name": "notarizedChainId",
              "type": "uint256",
              "internalType": "uint256"
            },
            {
              "name": "claims",
              "type": "tuple[]",
              "internalType": "struct SplitBatchClaimComponent[]",
              "components": [
                {
                  "name": "id",
                  "type": "uint256",
                  "internalType": "uint256"
                },
                {
                  "name": "allocatedAmount",
                  "type": "uint256",
                  "internalType": "uint256"
                },
                {
                  "name": "portions",
                  "type": "tuple[]",
                  "internalType": "struct SplitComponent[]",
                  "components": [
                    {
                      "name": "claimant",
                      "type": "address",
                      "internalType": "address"
                    },
                    {
                      "name": "amount",
                      "type": "uint256",
                      "internalType": "uint256"
                    }
                  ]
                }
              ]
            }
          ]
        }
      ],
      "outputs": [
        {
          "name": "",
          "type": "bool",
          "internalType": "bool"
        }
      ],
      "stateMutability": "nonpayable"
    },
    {
      "type": "function",
      "name": "claim",
      "inputs": [
        {
          "name": "claimPayload",
          "type": "tuple",
          "internalType": "struct ExogenousMultichainClaim",
          "components": [
            {
              "name": "allocatorSignature",
              "type": "bytes",
              "internalType": "bytes"
            },
            {
              "name": "sponsorSignature",
              "type": "bytes",
              "internalType": "bytes"
            },
            {
              "name": "sponsor",
              "type": "address",
              "internalType": "address"
            },
            {
              "name": "nonce",
              "type": "uint256",
              "internalType": "uint256"
            },
            {
              "name": "expires",
              "type": "uint256",
              "internalType": "uint256"
            },
            {
              "name": "additionalChains",
              "type": "bytes32[]",
              "internalType": "bytes32[]"
            },
            {
              "name": "chainIndex",
              "type": "uint256",
              "internalType": "uint256"
            },
            {
              "name": "notarizedChainId",
              "type": "uint256",
              "internalType": "uint256"
            },
            {
              "name": "id",
              "type": "uint256",
              "internalType": "uint256"
            },
            {
              "name": "allocatedAmount",
              "type": "uint256",
              "internalType": "uint256"
            },
            {
              "name": "claimant",
              "type": "address",
              "internalType": "address"
            },
            {
              "name": "amount",
              "type": "uint256",
              "internalType": "uint256"
            }
          ]
        }
      ],
      "outputs": [
        {
          "name": "",
          "type": "bool",
          "internalType": "bool"
        }
      ],
      "stateMutability": "nonpayable"
    },
    {
      "type": "function",
      "name": "claim",
      "inputs": [
        {
          "name": "claimPayload",
          "type": "tuple",
          "internalType": "struct ExogenousSplitMultichainClaim",
          "components": [
            {
              "name": "allocatorSignature",
              "type": "bytes",
              "internalType": "bytes"
            },
            {
              "name": "sponsorSignature",
              "type": "bytes",
              "internalType": "bytes"
            },
            {
              "name": "sponsor",
              "type": "address",
              "internalType": "address"
            },
            {
              "name": "nonce",
              "type": "uint256",
              "internalType": "uint256"
            },
            {
              "name": "expires",
              "type": "uint256",
              "internalType": "uint256"
            },
            {
              "name": "additionalChains",
              "type": "bytes32[]",
              "internalType": "bytes32[]"
            },
            {
              "name": "chainIndex",
              "type": "uint256",
              "internalType": "uint256"
            },
            {
              "name": "notarizedChainId",
              "type": "uint256",
              "internalType": "uint256"
            },
            {
              "name": "id",
              "type": "uint256",
              "internalType": "uint256"
            },
            {
              "name": "allocatedAmount",
              "type": "uint256",
              "internalType": "uint256"
            },
            {
              "name": "claimants",
              "type": "tuple[]",
              "internalType": "struct SplitComponent[]",
              "components": [
                {
                  "name": "claimant",
                  "type": "address",
                  "internalType": "address"
                },
                {
                  "name": "amount",
                  "type": "uint256",
                  "internalType": "uint256"
                }
              ]
            }
          ]
        }
      ],
      "outputs": [
        {
          "name": "",
          "type": "bool",
          "internalType": "bool"
        }
      ],
      "stateMutability": "nonpayable"
    },
    {
      "type": "function",
      "name": "claim",
      "inputs": [
        {
          "name": "claimPayload",
          "type": "tuple",
          "internalType": "struct QualifiedSplitMultichainClaimWithWitness",
          "components": [
            {
              "name": "allocatorSignature",
              "type": "bytes",
              "internalType": "bytes"
            },
            {
              "name": "sponsorSignature",
              "type": "bytes",
              "internalType": "bytes"
            },
            {
              "name": "sponsor",
              "type": "address",
              "internalType": "address"
            },
            {
              "name": "nonce",
              "type": "uint256",
              "internalType": "uint256"
            },
            {
              "name": "expires",
              "type": "uint256",
              "internalType": "uint256"
            },
            {
              "name": "witness",
              "type": "bytes32",
              "internalType": "bytes32"
            },
            {
              "name": "witnessTypestring",
              "type": "string",
              "internalType": "string"
            },
            {
              "name": "qualificationTypehash",
              "type": "bytes32",
              "internalType": "bytes32"
            },
            {
              "name": "qualificationPayload",
              "type": "bytes",
              "internalType": "bytes"
            },
            {
              "name": "additionalChains",
              "type": "bytes32[]",
              "internalType": "bytes32[]"
            },
            {
              "name": "id",
              "type": "uint256",
              "internalType": "uint256"
            },
            {
              "name": "allocatedAmount",
              "type": "uint256",
              "internalType": "uint256"
            },
            {
              "name": "claimants",
              "type": "tuple[]",
              "internalType": "struct SplitComponent[]",
              "components": [
                {
                  "name": "claimant",
                  "type": "address",
                  "internalType": "address"
                },
                {
                  "name": "amount",
                  "type": "uint256",
                  "internalType": "uint256"
                }
              ]
            }
          ]
        }
      ],
      "outputs": [
        {
          "name": "",
          "type": "bool",
          "internalType": "bool"
        }
      ],
      "stateMutability": "nonpayable"
    },
    {
      "type": "function",
      "name": "claim",
      "inputs": [
        {
          "name": "claimPayload",
          "type": "tuple",
          "internalType": "struct ClaimWithWitness",
          "components": [
            {
              "name": "allocatorSignature",
              "type": "bytes",
              "internalType": "bytes"
            },
            {
              "name": "sponsorSignature",
              "type": "bytes",
              "internalType": "bytes"
            },
            {
              "name": "sponsor",
              "type": "address",
              "internalType": "address"
            },
            {
              "name": "nonce",
              "type": "uint256",
              "internalType": "uint256"
            },
            {
              "name": "expires",
              "type": "uint256",
              "internalType": "uint256"
            },
            {
              "name": "witness",
              "type": "bytes32",
              "internalType": "bytes32"
            },
            {
              "name": "witnessTypestring",
              "type": "string",
              "internalType": "string"
            },
            {
              "name": "id",
              "type": "uint256",
              "internalType": "uint256"
            },
            {
              "name": "allocatedAmount",
              "type": "uint256",
              "internalType": "uint256"
            },
            {
              "name": "claimant",
              "type": "address",
              "internalType": "address"
            },
            {
              "name": "amount",
              "type": "uint256",
              "internalType": "uint256"
            }
          ]
        }
      ],
      "outputs": [
        {
          "name": "",
          "type": "bool",
          "internalType": "bool"
        }
      ],
      "stateMutability": "nonpayable"
    },
    {
      "type": "function",
      "name": "claim",
      "inputs": [
        {
          "name": "claimPayload",
          "type": "tuple",
          "internalType": "struct ExogenousQualifiedSplitMultichainClaim",
          "components": [
            {
              "name": "allocatorSignature",
              "type": "bytes",
              "internalType": "bytes"
            },
            {
              "name": "sponsorSignature",
              "type": "bytes",
              "internalType": "bytes"
            },
            {
              "name": "sponsor",
              "type": "address",
              "internalType": "address"
            },
            {
              "name": "nonce",
              "type": "uint256",
              "internalType": "uint256"
            },
            {
              "name": "expires",
              "type": "uint256",
              "internalType": "uint256"
            },
            {
              "name": "qualificationTypehash",
              "type": "bytes32",
              "internalType": "bytes32"
            },
            {
              "name": "qualificationPayload",
              "type": "bytes",
              "internalType": "bytes"
            },
            {
              "name": "additionalChains",
              "type": "bytes32[]",
              "internalType": "bytes32[]"
            },
            {
              "name": "chainIndex",
              "type": "uint256",
              "internalType": "uint256"
            },
            {
              "name": "notarizedChainId",
              "type": "uint256",
              "internalType": "uint256"
            },
            {
              "name": "id",
              "type": "uint256",
              "internalType": "uint256"
            },
            {
              "name": "allocatedAmount",
              "type": "uint256",
              "internalType": "uint256"
            },
            {
              "name": "claimants",
              "type": "tuple[]",
              "internalType": "struct SplitComponent[]",
              "components": [
                {
                  "name": "claimant",
                  "type": "address",
                  "internalType": "address"
                },
                {
                  "name": "amount",
                  "type": "uint256",
                  "internalType": "uint256"
                }
              ]
            }
          ]
        }
      ],
      "outputs": [
        {
          "name": "",
          "type": "bool",
          "internalType": "bool"
        }
      ],
      "stateMutability": "nonpayable"
    },
    {
      "type": "function",
      "name": "claim",
      "inputs": [
        {
          "name": "claimPayload",
          "type": "tuple",
          "internalType": "struct ExogenousQualifiedSplitMultichainClaimWithWitness",
          "components": [
            {
              "name": "allocatorSignature",
              "type": "bytes",
              "internalType": "bytes"
            },
            {
              "name": "sponsorSignature",
              "type": "bytes",
              "internalType": "bytes"
            },
            {
              "name": "sponsor",
              "type": "address",
              "internalType": "address"
            },
            {
              "name": "nonce",
              "type": "uint256",
              "internalType": "uint256"
            },
            {
              "name": "expires",
              "type": "uint256",
              "internalType": "uint256"
            },
            {
              "name": "witness",
              "type": "bytes32",
              "internalType": "bytes32"
            },
            {
              "name": "witnessTypestring",
              "type": "string",
              "internalType": "string"
            },
            {
              "name": "qualificationTypehash",
              "type": "bytes32",
              "internalType": "bytes32"
            },
            {
              "name": "qualificationPayload",
              "type": "bytes",
              "internalType": "bytes"
            },
            {
              "name": "additionalChains",
              "type": "bytes32[]",
              "internalType": "bytes32[]"
            },
            {
              "name": "chainIndex",
              "type": "uint256",
              "internalType": "uint256"
            },
            {
              "name": "notarizedChainId",
              "type": "uint256",
              "internalType": "uint256"
            },
            {
              "name": "id",
              "type": "uint256",
              "internalType": "uint256"
            },
            {
              "name": "allocatedAmount",
              "type": "uint256",
              "internalType": "uint256"
            },
            {
              "name": "claimants",
              "type": "tuple[]",
              "internalType": "struct SplitComponent[]",
              "components": [
                {
                  "name": "claimant",
                  "type": "address",
                  "internalType": "address"
                },
                {
                  "name": "amount",
                  "type": "uint256",
                  "internalType": "uint256"
                }
              ]
            }
          ]
        }
      ],
      "outputs": [
        {
          "name": "",
          "type": "bool",
          "internalType": "bool"
        }
      ],
      "stateMutability": "nonpayable"
    },
    {
      "type": "function",
      "name": "claim",
      "inputs": [
        {
          "name": "claimPayload",
          "type": "tuple",
          "internalType": "struct SplitBatchMultichainClaimWithWitness",
          "components": [
            {
              "name": "allocatorSignature",
              "type": "bytes",
              "internalType": "bytes"
            },
            {
              "name": "sponsorSignature",
              "type": "bytes",
              "internalType": "bytes"
            },
            {
              "name": "sponsor",
              "type": "address",
              "internalType": "address"
            },
            {
              "name": "nonce",
              "type": "uint256",
              "internalType": "uint256"
            },
            {
              "name": "expires",
              "type": "uint256",
              "internalType": "uint256"
            },
            {
              "name": "witness",
              "type": "bytes32",
              "internalType": "bytes32"
            },
            {
              "name": "witnessTypestring",
              "type": "string",
              "internalType": "string"
            },
            {
              "name": "additionalChains",
              "type": "bytes32[]",
              "internalType": "bytes32[]"
            },
            {
              "name": "claims",
              "type": "tuple[]",
              "internalType": "struct SplitBatchClaimComponent[]",
              "components": [
                {
                  "name": "id",
                  "type": "uint256",
                  "internalType": "uint256"
                },
                {
                  "name": "allocatedAmount",
                  "type": "uint256",
                  "internalType": "uint256"
                },
                {
                  "name": "portions",
                  "type": "tuple[]",
                  "internalType": "struct SplitComponent[]",
                  "components": [
                    {
                      "name": "claimant",
                      "type": "address",
                      "internalType": "address"
                    },
                    {
                      "name": "amount",
                      "type": "uint256",
                      "internalType": "uint256"
                    }
                  ]
                }
              ]
            }
          ]
        }
      ],
      "outputs": [
        {
          "name": "",
          "type": "bool",
          "internalType": "bool"
        }
      ],
      "stateMutability": "nonpayable"
    },
    {
      "type": "function",
      "name": "claim",
      "inputs": [
        {
          "name": "claimPayload",
          "type": "tuple",
          "internalType": "struct BatchClaim",
          "components": [
            {
              "name": "allocatorSignature",
              "type": "bytes",
              "internalType": "bytes"
            },
            {
              "name": "sponsorSignature",
              "type": "bytes",
              "internalType": "bytes"
            },
            {
              "name": "sponsor",
              "type": "address",
              "internalType": "address"
            },
            {
              "name": "nonce",
              "type": "uint256",
              "internalType": "uint256"
            },
            {
              "name": "expires",
              "type": "uint256",
              "internalType": "uint256"
            },
            {
              "name": "claims",
              "type": "tuple[]",
              "internalType": "struct BatchClaimComponent[]",
              "components": [
                {
                  "name": "id",
                  "type": "uint256",
                  "internalType": "uint256"
                },
                {
                  "name": "allocatedAmount",
                  "type": "uint256",
                  "internalType": "uint256"
                },
                {
                  "name": "amount",
                  "type": "uint256",
                  "internalType": "uint256"
                }
              ]
            },
            {
              "name": "claimant",
              "type": "address",
              "internalType": "address"
            }
          ]
        }
      ],
      "outputs": [
        {
          "name": "",
          "type": "bool",
          "internalType": "bool"
        }
      ],
      "stateMutability": "nonpayable"
    },
    {
      "type": "function",
      "name": "claim",
      "inputs": [
        {
          "name": "claimPayload",
          "type": "tuple",
          "internalType": "struct ExogenousQualifiedBatchMultichainClaimWithWitness",
          "components": [
            {
              "name": "allocatorSignature",
              "type": "bytes",
              "internalType": "bytes"
            },
            {
              "name": "sponsorSignature",
              "type": "bytes",
              "internalType": "bytes"
            },
            {
              "name": "sponsor",
              "type": "address",
              "internalType": "address"
            },
            {
              "name": "nonce",
              "type": "uint256",
              "internalType": "uint256"
            },
            {
              "name": "expires",
              "type": "uint256",
              "internalType": "uint256"
            },
            {
              "name": "witness",
              "type": "bytes32",
              "internalType": "bytes32"
            },
            {
              "name": "witnessTypestring",
              "type": "string",
              "internalType": "string"
            },
            {
              "name": "qualificationTypehash",
              "type": "bytes32",
              "internalType": "bytes32"
            },
            {
              "name": "qualificationPayload",
              "type": "bytes",
              "internalType": "bytes"
            },
            {
              "name": "additionalChains",
              "type": "bytes32[]",
              "internalType": "bytes32[]"
            },
            {
              "name": "chainIndex",
              "type": "uint256",
              "internalType": "uint256"
            },
            {
              "name": "notarizedChainId",
              "type": "uint256",
              "internalType": "uint256"
            },
            {
              "name": "claims",
              "type": "tuple[]",
              "internalType": "struct BatchClaimComponent[]",
              "components": [
                {
                  "name": "id",
                  "type": "uint256",
                  "internalType": "uint256"
                },
                {
                  "name": "allocatedAmount",
                  "type": "uint256",
                  "internalType": "uint256"
                },
                {
                  "name": "amount",
                  "type": "uint256",
                  "internalType": "uint256"
                }
              ]
            },
            {
              "name": "claimant",
              "type": "address",
              "internalType": "address"
            }
          ]
        }
      ],
      "outputs": [
        {
          "name": "",
          "type": "bool",
          "internalType": "bool"
        }
      ],
      "stateMutability": "nonpayable"
    },
    {
      "type": "function",
      "name": "claim",
      "inputs": [
        {
          "name": "claimPayload",
          "type": "tuple",
          "internalType": "struct ExogenousMultichainClaimWithWitness",
          "components": [
            {
              "name": "allocatorSignature",
              "type": "bytes",
              "internalType": "bytes"
            },
            {
              "name": "sponsorSignature",
              "type": "bytes",
              "internalType": "bytes"
            },
            {
              "name": "sponsor",
              "type": "address",
              "internalType": "address"
            },
            {
              "name": "nonce",
              "type": "uint256",
              "internalType": "uint256"
            },
            {
              "name": "expires",
              "type": "uint256",
              "internalType": "uint256"
            },
            {
              "name": "witness",
              "type": "bytes32",
              "internalType": "bytes32"
            },
            {
              "name": "witnessTypestring",
              "type": "string",
              "internalType": "string"
            },
            {
              "name": "additionalChains",
              "type": "bytes32[]",
              "internalType": "bytes32[]"
            },
            {
              "name": "chainIndex",
              "type": "uint256",
              "internalType": "uint256"
            },
            {
              "name": "notarizedChainId",
              "type": "uint256",
              "internalType": "uint256"
            },
            {
              "name": "id",
              "type": "uint256",
              "internalType": "uint256"
            },
            {
              "name": "allocatedAmount",
              "type": "uint256",
              "internalType": "uint256"
            },
            {
              "name": "claimant",
              "type": "address",
              "internalType": "address"
            },
            {
              "name": "amount",
              "type": "uint256",
              "internalType": "uint256"
            }
          ]
        }
      ],
      "outputs": [
        {
          "name": "",
          "type": "bool",
          "internalType": "bool"
        }
      ],
      "stateMutability": "nonpayable"
    },
    {
      "type": "function",
      "name": "claim",
      "inputs": [
        {
          "name": "claimPayload",
          "type": "tuple",
          "internalType": "struct QualifiedClaim",
          "components": [
            {
              "name": "allocatorSignature",
              "type": "bytes",
              "internalType": "bytes"
            },
            {
              "name": "sponsorSignature",
              "type": "bytes",
              "internalType": "bytes"
            },
            {
              "name": "sponsor",
              "type": "address",
              "internalType": "address"
            },
            {
              "name": "nonce",
              "type": "uint256",
              "internalType": "uint256"
            },
            {
              "name": "expires",
              "type": "uint256",
              "internalType": "uint256"
            },
            {
              "name": "qualificationTypehash",
              "type": "bytes32",
              "internalType": "bytes32"
            },
            {
              "name": "qualificationPayload",
              "type": "bytes",
              "internalType": "bytes"
            },
            {
              "name": "id",
              "type": "uint256",
              "internalType": "uint256"
            },
            {
              "name": "allocatedAmount",
              "type": "uint256",
              "internalType": "uint256"
            },
            {
              "name": "claimant",
              "type": "address",
              "internalType": "address"
            },
            {
              "name": "amount",
              "type": "uint256",
              "internalType": "uint256"
            }
          ]
        }
      ],
      "outputs": [
        {
          "name": "",
          "type": "bool",
          "internalType": "bool"
        }
      ],
      "stateMutability": "nonpayable"
    },
    {
      "type": "function",
      "name": "claim",
      "inputs": [
        {
          "name": "claimPayload",
          "type": "tuple",
          "internalType": "struct ExogenousQualifiedMultichainClaim",
          "components": [
            {
              "name": "allocatorSignature",
              "type": "bytes",
              "internalType": "bytes"
            },
            {
              "name": "sponsorSignature",
              "type": "bytes",
              "internalType": "bytes"
            },
            {
              "name": "sponsor",
              "type": "address",
              "internalType": "address"
            },
            {
              "name": "nonce",
              "type": "uint256",
              "internalType": "uint256"
            },
            {
              "name": "expires",
              "type": "uint256",
              "internalType": "uint256"
            },
            {
              "name": "qualificationTypehash",
              "type": "bytes32",
              "internalType": "bytes32"
            },
            {
              "name": "qualificationPayload",
              "type": "bytes",
              "internalType": "bytes"
            },
            {
              "name": "additionalChains",
              "type": "bytes32[]",
              "internalType": "bytes32[]"
            },
            {
              "name": "chainIndex",
              "type": "uint256",
              "internalType": "uint256"
            },
            {
              "name": "notarizedChainId",
              "type": "uint256",
              "internalType": "uint256"
            },
            {
              "name": "id",
              "type": "uint256",
              "internalType": "uint256"
            },
            {
              "name": "allocatedAmount",
              "type": "uint256",
              "internalType": "uint256"
            },
            {
              "name": "claimant",
              "type": "address",
              "internalType": "address"
            },
            {
              "name": "amount",
              "type": "uint256",
              "internalType": "uint256"
            }
          ]
        }
      ],
      "outputs": [
        {
          "name": "",
          "type": "bool",
          "internalType": "bool"
        }
      ],
      "stateMutability": "nonpayable"
    },
    {
      "type": "function",
      "name": "claim",
      "inputs": [
        {
          "name": "claimPayload",
          "type": "tuple",
          "internalType": "struct BasicClaim",
          "components": [
            {
              "name": "allocatorSignature",
              "type": "bytes",
              "internalType": "bytes"
            },
            {
              "name": "sponsorSignature",
              "type": "bytes",
              "internalType": "bytes"
            },
            {
              "name": "sponsor",
              "type": "address",
              "internalType": "address"
            },
            {
              "name": "nonce",
              "type": "uint256",
              "internalType": "uint256"
            },
            {
              "name": "expires",
              "type": "uint256",
              "internalType": "uint256"
            },
            {
              "name": "id",
              "type": "uint256",
              "internalType": "uint256"
            },
            {
              "name": "allocatedAmount",
              "type": "uint256",
              "internalType": "uint256"
            },
            {
              "name": "claimant",
              "type": "address",
              "internalType": "address"
            },
            {
              "name": "amount",
              "type": "uint256",
              "internalType": "uint256"
            }
          ]
        }
      ],
      "outputs": [
        {
          "name": "",
          "type": "bool",
          "internalType": "bool"
        }
      ],
      "stateMutability": "nonpayable"
    },
    {
      "type": "function",
      "name": "claim",
      "inputs": [
        {
          "name": "claimPayload",
          "type": "tuple",
          "internalType": "struct SplitBatchMultichainClaim",
          "components": [
            {
              "name": "allocatorSignature",
              "type": "bytes",
              "internalType": "bytes"
            },
            {
              "name": "sponsorSignature",
              "type": "bytes",
              "internalType": "bytes"
            },
            {
              "name": "sponsor",
              "type": "address",
              "internalType": "address"
            },
            {
              "name": "nonce",
              "type": "uint256",
              "internalType": "uint256"
            },
            {
              "name": "expires",
              "type": "uint256",
              "internalType": "uint256"
            },
            {
              "name": "additionalChains",
              "type": "bytes32[]",
              "internalType": "bytes32[]"
            },
            {
              "name": "claims",
              "type": "tuple[]",
              "internalType": "struct SplitBatchClaimComponent[]",
              "components": [
                {
                  "name": "id",
                  "type": "uint256",
                  "internalType": "uint256"
                },
                {
                  "name": "allocatedAmount",
                  "type": "uint256",
                  "internalType": "uint256"
                },
                {
                  "name": "portions",
                  "type": "tuple[]",
                  "internalType": "struct SplitComponent[]",
                  "components": [
                    {
                      "name": "claimant",
                      "type": "address",
                      "internalType": "address"
                    },
                    {
                      "name": "amount",
                      "type": "uint256",
                      "internalType": "uint256"
                    }
                  ]
                }
              ]
            }
          ]
        }
      ],
      "outputs": [
        {
          "name": "",
          "type": "bool",
          "internalType": "bool"
        }
      ],
      "stateMutability": "nonpayable"
    },
    {
      "type": "function",
      "name": "claim",
      "inputs": [
        {
          "name": "claimPayload",
          "type": "tuple",
          "internalType": "struct BatchMultichainClaimWithWitness",
          "components": [
            {
              "name": "allocatorSignature",
              "type": "bytes",
              "internalType": "bytes"
            },
            {
              "name": "sponsorSignature",
              "type": "bytes",
              "internalType": "bytes"
            },
            {
              "name": "sponsor",
              "type": "address",
              "internalType": "address"
            },
            {
              "name": "nonce",
              "type": "uint256",
              "internalType": "uint256"
            },
            {
              "name": "expires",
              "type": "uint256",
              "internalType": "uint256"
            },
            {
              "name": "witness",
              "type": "bytes32",
              "internalType": "bytes32"
            },
            {
              "name": "witnessTypestring",
              "type": "string",
              "internalType": "string"
            },
            {
              "name": "additionalChains",
              "type": "bytes32[]",
              "internalType": "bytes32[]"
            },
            {
              "name": "claims",
              "type": "tuple[]",
              "internalType": "struct BatchClaimComponent[]",
              "components": [
                {
                  "name": "id",
                  "type": "uint256",
                  "internalType": "uint256"
                },
                {
                  "name": "allocatedAmount",
                  "type": "uint256",
                  "internalType": "uint256"
                },
                {
                  "name": "amount",
                  "type": "uint256",
                  "internalType": "uint256"
                }
              ]
            },
            {
              "name": "claimant",
              "type": "address",
              "internalType": "address"
            }
          ]
        }
      ],
      "outputs": [
        {
          "name": "",
          "type": "bool",
          "internalType": "bool"
        }
      ],
      "stateMutability": "nonpayable"
    },
    {
      "type": "function",
      "name": "claim",
      "inputs": [
        {
          "name": "claimPayload",
          "type": "tuple",
          "internalType": "struct SplitClaimWithWitness",
          "components": [
            {
              "name": "allocatorSignature",
              "type": "bytes",
              "internalType": "bytes"
            },
            {
              "name": "sponsorSignature",
              "type": "bytes",
              "internalType": "bytes"
            },
            {
              "name": "sponsor",
              "type": "address",
              "internalType": "address"
            },
            {
              "name": "nonce",
              "type": "uint256",
              "internalType": "uint256"
            },
            {
              "name": "expires",
              "type": "uint256",
              "internalType": "uint256"
            },
            {
              "name": "witness",
              "type": "bytes32",
              "internalType": "bytes32"
            },
            {
              "name": "witnessTypestring",
              "type": "string",
              "internalType": "string"
            },
            {
              "name": "id",
              "type": "uint256",
              "internalType": "uint256"
            },
            {
              "name": "allocatedAmount",
              "type": "uint256",
              "internalType": "uint256"
            },
            {
              "name": "claimants",
              "type": "tuple[]",
              "internalType": "struct SplitComponent[]",
              "components": [
                {
                  "name": "claimant",
                  "type": "address",
                  "internalType": "address"
                },
                {
                  "name": "amount",
                  "type": "uint256",
                  "internalType": "uint256"
                }
              ]
            }
          ]
        }
      ],
      "outputs": [
        {
          "name": "",
          "type": "bool",
          "internalType": "bool"
        }
      ],
      "stateMutability": "nonpayable"
    },
    {
      "type": "function",
      "name": "claim",
      "inputs": [
        {
          "name": "claimPayload",
          "type": "tuple",
          "internalType": "struct BatchMultichainClaim",
          "components": [
            {
              "name": "allocatorSignature",
              "type": "bytes",
              "internalType": "bytes"
            },
            {
              "name": "sponsorSignature",
              "type": "bytes",
              "internalType": "bytes"
            },
            {
              "name": "sponsor",
              "type": "address",
              "internalType": "address"
            },
            {
              "name": "nonce",
              "type": "uint256",
              "internalType": "uint256"
            },
            {
              "name": "expires",
              "type": "uint256",
              "internalType": "uint256"
            },
            {
              "name": "additionalChains",
              "type": "bytes32[]",
              "internalType": "bytes32[]"
            },
            {
              "name": "claims",
              "type": "tuple[]",
              "internalType": "struct BatchClaimComponent[]",
              "components": [
                {
                  "name": "id",
                  "type": "uint256",
                  "internalType": "uint256"
                },
                {
                  "name": "allocatedAmount",
                  "type": "uint256",
                  "internalType": "uint256"
                },
                {
                  "name": "amount",
                  "type": "uint256",
                  "internalType": "uint256"
                }
              ]
            },
            {
              "name": "claimant",
              "type": "address",
              "internalType": "address"
            }
          ]
        }
      ],
      "outputs": [
        {
          "name": "",
          "type": "bool",
          "internalType": "bool"
        }
      ],
      "stateMutability": "nonpayable"
    },
    {
      "type": "function",
      "name": "claim",
      "inputs": [
        {
          "name": "claimPayload",
          "type": "tuple",
          "internalType": "struct ExogenousSplitMultichainClaimWithWitness",
          "components": [
            {
              "name": "allocatorSignature",
              "type": "bytes",
              "internalType": "bytes"
            },
            {
              "name": "sponsorSignature",
              "type": "bytes",
              "internalType": "bytes"
            },
            {
              "name": "sponsor",
              "type": "address",
              "internalType": "address"
            },
            {
              "name": "nonce",
              "type": "uint256",
              "internalType": "uint256"
            },
            {
              "name": "expires",
              "type": "uint256",
              "internalType": "uint256"
            },
            {
              "name": "witness",
              "type": "bytes32",
              "internalType": "bytes32"
            },
            {
              "name": "witnessTypestring",
              "type": "string",
              "internalType": "string"
            },
            {
              "name": "additionalChains",
              "type": "bytes32[]",
              "internalType": "bytes32[]"
            },
            {
              "name": "chainIndex",
              "type": "uint256",
              "internalType": "uint256"
            },
            {
              "name": "notarizedChainId",
              "type": "uint256",
              "internalType": "uint256"
            },
            {
              "name": "id",
              "type": "uint256",
              "internalType": "uint256"
            },
            {
              "name": "allocatedAmount",
              "type": "uint256",
              "internalType": "uint256"
            },
            {
              "name": "claimants",
              "type": "tuple[]",
              "internalType": "struct SplitComponent[]",
              "components": [
                {
                  "name": "claimant",
                  "type": "address",
                  "internalType": "address"
                },
                {
                  "name": "amount",
                  "type": "uint256",
                  "internalType": "uint256"
                }
              ]
            }
          ]
        }
      ],
      "outputs": [
        {
          "name": "",
          "type": "bool",
          "internalType": "bool"
        }
      ],
      "stateMutability": "nonpayable"
    },
    {
      "type": "function",
      "name": "claim",
      "inputs": [
        {
          "name": "claimPayload",
          "type": "tuple",
          "internalType": "struct ExogenousSplitBatchMultichainClaimWithWitness",
          "components": [
            {
              "name": "allocatorSignature",
              "type": "bytes",
              "internalType": "bytes"
            },
            {
              "name": "sponsorSignature",
              "type": "bytes",
              "internalType": "bytes"
            },
            {
              "name": "sponsor",
              "type": "address",
              "internalType": "address"
            },
            {
              "name": "nonce",
              "type": "uint256",
              "internalType": "uint256"
            },
            {
              "name": "expires",
              "type": "uint256",
              "internalType": "uint256"
            },
            {
              "name": "witness",
              "type": "bytes32",
              "internalType": "bytes32"
            },
            {
              "name": "witnessTypestring",
              "type": "string",
              "internalType": "string"
            },
            {
              "name": "additionalChains",
              "type": "bytes32[]",
              "internalType": "bytes32[]"
            },
            {
              "name": "chainIndex",
              "type": "uint256",
              "internalType": "uint256"
            },
            {
              "name": "notarizedChainId",
              "type": "uint256",
              "internalType": "uint256"
            },
            {
              "name": "claims",
              "type": "tuple[]",
              "internalType": "struct SplitBatchClaimComponent[]",
              "components": [
                {
                  "name": "id",
                  "type": "uint256",
                  "internalType": "uint256"
                },
                {
                  "name": "allocatedAmount",
                  "type": "uint256",
                  "internalType": "uint256"
                },
                {
                  "name": "portions",
                  "type": "tuple[]",
                  "internalType": "struct SplitComponent[]",
                  "components": [
                    {
                      "name": "claimant",
                      "type": "address",
                      "internalType": "address"
                    },
                    {
                      "name": "amount",
                      "type": "uint256",
                      "internalType": "uint256"
                    }
                  ]
                }
              ]
            }
          ]
        }
      ],
      "outputs": [
        {
          "name": "",
          "type": "bool",
          "internalType": "bool"
        }
      ],
      "stateMutability": "nonpayable"
    },
    {
      "type": "function",
      "name": "claim",
      "inputs": [
        {
          "name": "claimPayload",
          "type": "tuple",
          "internalType": "struct QualifiedBatchClaimWithWitness",
          "components": [
            {
              "name": "allocatorSignature",
              "type": "bytes",
              "internalType": "bytes"
            },
            {
              "name": "sponsorSignature",
              "type": "bytes",
              "internalType": "bytes"
            },
            {
              "name": "sponsor",
              "type": "address",
              "internalType": "address"
            },
            {
              "name": "nonce",
              "type": "uint256",
              "internalType": "uint256"
            },
            {
              "name": "expires",
              "type": "uint256",
              "internalType": "uint256"
            },
            {
              "name": "witness",
              "type": "bytes32",
              "internalType": "bytes32"
            },
            {
              "name": "witnessTypestring",
              "type": "string",
              "internalType": "string"
            },
            {
              "name": "qualificationTypehash",
              "type": "bytes32",
              "internalType": "bytes32"
            },
            {
              "name": "qualificationPayload",
              "type": "bytes",
              "internalType": "bytes"
            },
            {
              "name": "claims",
              "type": "tuple[]",
              "internalType": "struct BatchClaimComponent[]",
              "components": [
                {
                  "name": "id",
                  "type": "uint256",
                  "internalType": "uint256"
                },
                {
                  "name": "allocatedAmount",
                  "type": "uint256",
                  "internalType": "uint256"
                },
                {
                  "name": "amount",
                  "type": "uint256",
                  "internalType": "uint256"
                }
              ]
            },
            {
              "name": "claimant",
              "type": "address",
              "internalType": "address"
            }
          ]
        }
      ],
      "outputs": [
        {
          "name": "",
          "type": "bool",
          "internalType": "bool"
        }
      ],
      "stateMutability": "nonpayable"
    },
    {
      "type": "function",
      "name": "claim",
      "inputs": [
        {
          "name": "claimPayload",
          "type": "tuple",
          "internalType": "struct QualifiedBatchMultichainClaimWithWitness",
          "components": [
            {
              "name": "allocatorSignature",
              "type": "bytes",
              "internalType": "bytes"
            },
            {
              "name": "sponsorSignature",
              "type": "bytes",
              "internalType": "bytes"
            },
            {
              "name": "sponsor",
              "type": "address",
              "internalType": "address"
            },
            {
              "name": "nonce",
              "type": "uint256",
              "internalType": "uint256"
            },
            {
              "name": "expires",
              "type": "uint256",
              "internalType": "uint256"
            },
            {
              "name": "witness",
              "type": "bytes32",
              "internalType": "bytes32"
            },
            {
              "name": "witnessTypestring",
              "type": "string",
              "internalType": "string"
            },
            {
              "name": "qualificationTypehash",
              "type": "bytes32",
              "internalType": "bytes32"
            },
            {
              "name": "qualificationPayload",
              "type": "bytes",
              "internalType": "bytes"
            },
            {
              "name": "additionalChains",
              "type": "bytes32[]",
              "internalType": "bytes32[]"
            },
            {
              "name": "claims",
              "type": "tuple[]",
              "internalType": "struct BatchClaimComponent[]",
              "components": [
                {
                  "name": "id",
                  "type": "uint256",
                  "internalType": "uint256"
                },
                {
                  "name": "allocatedAmount",
                  "type": "uint256",
                  "internalType": "uint256"
                },
                {
                  "name": "amount",
                  "type": "uint256",
                  "internalType": "uint256"
                }
              ]
            },
            {
              "name": "claimant",
              "type": "address",
              "internalType": "address"
            }
          ]
        }
      ],
      "outputs": [
        {
          "name": "",
          "type": "bool",
          "internalType": "bool"
        }
      ],
      "stateMutability": "nonpayable"
    },
    {
      "type": "function",
      "name": "claim",
      "inputs": [
        {
          "name": "claimPayload",
          "type": "tuple",
          "internalType": "struct QualifiedSplitClaim",
          "components": [
            {
              "name": "allocatorSignature",
              "type": "bytes",
              "internalType": "bytes"
            },
            {
              "name": "sponsorSignature",
              "type": "bytes",
              "internalType": "bytes"
            },
            {
              "name": "sponsor",
              "type": "address",
              "internalType": "address"
            },
            {
              "name": "nonce",
              "type": "uint256",
              "internalType": "uint256"
            },
            {
              "name": "expires",
              "type": "uint256",
              "internalType": "uint256"
            },
            {
              "name": "qualificationTypehash",
              "type": "bytes32",
              "internalType": "bytes32"
            },
            {
              "name": "qualificationPayload",
              "type": "bytes",
              "internalType": "bytes"
            },
            {
              "name": "id",
              "type": "uint256",
              "internalType": "uint256"
            },
            {
              "name": "allocatedAmount",
              "type": "uint256",
              "internalType": "uint256"
            },
            {
              "name": "claimants",
              "type": "tuple[]",
              "internalType": "struct SplitComponent[]",
              "components": [
                {
                  "name": "claimant",
                  "type": "address",
                  "internalType": "address"
                },
                {
                  "name": "amount",
                  "type": "uint256",
                  "internalType": "uint256"
                }
              ]
            }
          ]
        }
      ],
      "outputs": [
        {
          "name": "",
          "type": "bool",
          "internalType": "bool"
        }
      ],
      "stateMutability": "nonpayable"
    },
    {
      "type": "function",
      "name": "claim",
      "inputs": [
        {
          "name": "claimPayload",
          "type": "tuple",
          "internalType": "struct BatchClaimWithWitness",
          "components": [
            {
              "name": "allocatorSignature",
              "type": "bytes",
              "internalType": "bytes"
            },
            {
              "name": "sponsorSignature",
              "type": "bytes",
              "internalType": "bytes"
            },
            {
              "name": "sponsor",
              "type": "address",
              "internalType": "address"
            },
            {
              "name": "nonce",
              "type": "uint256",
              "internalType": "uint256"
            },
            {
              "name": "expires",
              "type": "uint256",
              "internalType": "uint256"
            },
            {
              "name": "witness",
              "type": "bytes32",
              "internalType": "bytes32"
            },
            {
              "name": "witnessTypestring",
              "type": "string",
              "internalType": "string"
            },
            {
              "name": "claims",
              "type": "tuple[]",
              "internalType": "struct BatchClaimComponent[]",
              "components": [
                {
                  "name": "id",
                  "type": "uint256",
                  "internalType": "uint256"
                },
                {
                  "name": "allocatedAmount",
                  "type": "uint256",
                  "internalType": "uint256"
                },
                {
                  "name": "amount",
                  "type": "uint256",
                  "internalType": "uint256"
                }
              ]
            },
            {
              "name": "claimant",
              "type": "address",
              "internalType": "address"
            }
          ]
        }
      ],
      "outputs": [
        {
          "name": "",
          "type": "bool",
          "internalType": "bool"
        }
      ],
      "stateMutability": "nonpayable"
    },
    {
      "type": "function",
      "name": "claim",
      "inputs": [
        {
          "name": "claimPayload",
          "type": "tuple",
          "internalType": "struct SplitMultichainClaim",
          "components": [
            {
              "name": "allocatorSignature",
              "type": "bytes",
              "internalType": "bytes"
            },
            {
              "name": "sponsorSignature",
              "type": "bytes",
              "internalType": "bytes"
            },
            {
              "name": "sponsor",
              "type": "address",
              "internalType": "address"
            },
            {
              "name": "nonce",
              "type": "uint256",
              "internalType": "uint256"
            },
            {
              "name": "expires",
              "type": "uint256",
              "internalType": "uint256"
            },
            {
              "name": "additionalChains",
              "type": "bytes32[]",
              "internalType": "bytes32[]"
            },
            {
              "name": "id",
              "type": "uint256",
              "internalType": "uint256"
            },
            {
              "name": "allocatedAmount",
              "type": "uint256",
              "internalType": "uint256"
            },
            {
              "name": "claimants",
              "type": "tuple[]",
              "internalType": "struct SplitComponent[]",
              "components": [
                {
                  "name": "claimant",
                  "type": "address",
                  "internalType": "address"
                },
                {
                  "name": "amount",
                  "type": "uint256",
                  "internalType": "uint256"
                }
              ]
            }
          ]
        }
      ],
      "outputs": [
        {
          "name": "",
          "type": "bool",
          "internalType": "bool"
        }
      ],
      "stateMutability": "nonpayable"
    },
    {
      "type": "function",
      "name": "claim",
      "inputs": [
        {
          "name": "claimPayload",
          "type": "tuple",
          "internalType": "struct SplitClaim",
          "components": [
            {
              "name": "allocatorSignature",
              "type": "bytes",
              "internalType": "bytes"
            },
            {
              "name": "sponsorSignature",
              "type": "bytes",
              "internalType": "bytes"
            },
            {
              "name": "sponsor",
              "type": "address",
              "internalType": "address"
            },
            {
              "name": "nonce",
              "type": "uint256",
              "internalType": "uint256"
            },
            {
              "name": "expires",
              "type": "uint256",
              "internalType": "uint256"
            },
            {
              "name": "id",
              "type": "uint256",
              "internalType": "uint256"
            },
            {
              "name": "allocatedAmount",
              "type": "uint256",
              "internalType": "uint256"
            },
            {
              "name": "claimants",
              "type": "tuple[]",
              "internalType": "struct SplitComponent[]",
              "components": [
                {
                  "name": "claimant",
                  "type": "address",
                  "internalType": "address"
                },
                {
                  "name": "amount",
                  "type": "uint256",
                  "internalType": "uint256"
                }
              ]
            }
          ]
        }
      ],
      "outputs": [
        {
          "name": "",
          "type": "bool",
          "internalType": "bool"
        }
      ],
      "stateMutability": "nonpayable"
    },
    {
      "type": "function",
      "name": "claim",
      "inputs": [
        {
          "name": "claimPayload",
          "type": "tuple",
          "internalType": "struct SplitBatchClaim",
          "components": [
            {
              "name": "allocatorSignature",
              "type": "bytes",
              "internalType": "bytes"
            },
            {
              "name": "sponsorSignature",
              "type": "bytes",
              "internalType": "bytes"
            },
            {
              "name": "sponsor",
              "type": "address",
              "internalType": "address"
            },
            {
              "name": "nonce",
              "type": "uint256",
              "internalType": "uint256"
            },
            {
              "name": "expires",
              "type": "uint256",
              "internalType": "uint256"
            },
            {
              "name": "claims",
              "type": "tuple[]",
              "internalType": "struct SplitBatchClaimComponent[]",
              "components": [
                {
                  "name": "id",
                  "type": "uint256",
                  "internalType": "uint256"
                },
                {
                  "name": "allocatedAmount",
                  "type": "uint256",
                  "internalType": "uint256"
                },
                {
                  "name": "portions",
                  "type": "tuple[]",
                  "internalType": "struct SplitComponent[]",
                  "components": [
                    {
                      "name": "claimant",
                      "type": "address",
                      "internalType": "address"
                    },
                    {
                      "name": "amount",
                      "type": "uint256",
                      "internalType": "uint256"
                    }
                  ]
                }
              ]
            }
          ]
        }
      ],
      "outputs": [
        {
          "name": "",
          "type": "bool",
          "internalType": "bool"
        }
      ],
      "stateMutability": "nonpayable"
    },
    {
      "type": "function",
      "name": "claim",
      "inputs": [
        {
          "name": "claimPayload",
          "type": "tuple",
          "internalType": "struct SplitBatchClaimWithWitness",
          "components": [
            {
              "name": "allocatorSignature",
              "type": "bytes",
              "internalType": "bytes"
            },
            {
              "name": "sponsorSignature",
              "type": "bytes",
              "internalType": "bytes"
            },
            {
              "name": "sponsor",
              "type": "address",
              "internalType": "address"
            },
            {
              "name": "nonce",
              "type": "uint256",
              "internalType": "uint256"
            },
            {
              "name": "expires",
              "type": "uint256",
              "internalType": "uint256"
            },
            {
              "name": "witness",
              "type": "bytes32",
              "internalType": "bytes32"
            },
            {
              "name": "witnessTypestring",
              "type": "string",
              "internalType": "string"
            },
            {
              "name": "claims",
              "type": "tuple[]",
              "internalType": "struct SplitBatchClaimComponent[]",
              "components": [
                {
                  "name": "id",
                  "type": "uint256",
                  "internalType": "uint256"
                },
                {
                  "name": "allocatedAmount",
                  "type": "uint256",
                  "internalType": "uint256"
                },
                {
                  "name": "portions",
                  "type": "tuple[]",
                  "internalType": "struct SplitComponent[]",
                  "components": [
                    {
                      "name": "claimant",
                      "type": "address",
                      "internalType": "address"
                    },
                    {
                      "name": "amount",
                      "type": "uint256",
                      "internalType": "uint256"
                    }
                  ]
                }
              ]
            }
          ]
        }
      ],
      "outputs": [
        {
          "name": "",
          "type": "bool",
          "internalType": "bool"
        }
      ],
      "stateMutability": "nonpayable"
    },
    {
      "type": "function",
      "name": "claim",
      "inputs": [
        {
          "name": "claimPayload",
          "type": "tuple",
          "internalType": "struct QualifiedSplitMultichainClaim",
          "components": [
            {
              "name": "allocatorSignature",
              "type": "bytes",
              "internalType": "bytes"
            },
            {
              "name": "sponsorSignature",
              "type": "bytes",
              "internalType": "bytes"
            },
            {
              "name": "sponsor",
              "type": "address",
              "internalType": "address"
            },
            {
              "name": "nonce",
              "type": "uint256",
              "internalType": "uint256"
            },
            {
              "name": "expires",
              "type": "uint256",
              "internalType": "uint256"
            },
            {
              "name": "qualificationTypehash",
              "type": "bytes32",
              "internalType": "bytes32"
            },
            {
              "name": "qualificationPayload",
              "type": "bytes",
              "internalType": "bytes"
            },
            {
              "name": "additionalChains",
              "type": "bytes32[]",
              "internalType": "bytes32[]"
            },
            {
              "name": "id",
              "type": "uint256",
              "internalType": "uint256"
            },
            {
              "name": "allocatedAmount",
              "type": "uint256",
              "internalType": "uint256"
            },
            {
              "name": "claimants",
              "type": "tuple[]",
              "internalType": "struct SplitComponent[]",
              "components": [
                {
                  "name": "claimant",
                  "type": "address",
                  "internalType": "address"
                },
                {
                  "name": "amount",
                  "type": "uint256",
                  "internalType": "uint256"
                }
              ]
            }
          ]
        }
      ],
      "outputs": [
        {
          "name": "",
          "type": "bool",
          "internalType": "bool"
        }
      ],
      "stateMutability": "nonpayable"
    },
    {
      "type": "function",
      "name": "claim",
      "inputs": [
        {
          "name": "claimPayload",
          "type": "tuple",
          "internalType": "struct QualifiedBatchClaim",
          "components": [
            {
              "name": "allocatorSignature",
              "type": "bytes",
              "internalType": "bytes"
            },
            {
              "name": "sponsorSignature",
              "type": "bytes",
              "internalType": "bytes"
            },
            {
              "name": "sponsor",
              "type": "address",
              "internalType": "address"
            },
            {
              "name": "nonce",
              "type": "uint256",
              "internalType": "uint256"
            },
            {
              "name": "expires",
              "type": "uint256",
              "internalType": "uint256"
            },
            {
              "name": "qualificationTypehash",
              "type": "bytes32",
              "internalType": "bytes32"
            },
            {
              "name": "qualificationPayload",
              "type": "bytes",
              "internalType": "bytes"
            },
            {
              "name": "claims",
              "type": "tuple[]",
              "internalType": "struct BatchClaimComponent[]",
              "components": [
                {
                  "name": "id",
                  "type": "uint256",
                  "internalType": "uint256"
                },
                {
                  "name": "allocatedAmount",
                  "type": "uint256",
                  "internalType": "uint256"
                },
                {
                  "name": "amount",
                  "type": "uint256",
                  "internalType": "uint256"
                }
              ]
            },
            {
              "name": "claimant",
              "type": "address",
              "internalType": "address"
            }
          ]
        }
      ],
      "outputs": [
        {
          "name": "",
          "type": "bool",
          "internalType": "bool"
        }
      ],
      "stateMutability": "nonpayable"
    },
    {
      "type": "function",
      "name": "claim",
      "inputs": [
        {
          "name": "claimPayload",
          "type": "tuple",
          "internalType": "struct MultichainClaimWithWitness",
          "components": [
            {
              "name": "allocatorSignature",
              "type": "bytes",
              "internalType": "bytes"
            },
            {
              "name": "sponsorSignature",
              "type": "bytes",
              "internalType": "bytes"
            },
            {
              "name": "sponsor",
              "type": "address",
              "internalType": "address"
            },
            {
              "name": "nonce",
              "type": "uint256",
              "internalType": "uint256"
            },
            {
              "name": "expires",
              "type": "uint256",
              "internalType": "uint256"
            },
            {
              "name": "witness",
              "type": "bytes32",
              "internalType": "bytes32"
            },
            {
              "name": "witnessTypestring",
              "type": "string",
              "internalType": "string"
            },
            {
              "name": "additionalChains",
              "type": "bytes32[]",
              "internalType": "bytes32[]"
            },
            {
              "name": "id",
              "type": "uint256",
              "internalType": "uint256"
            },
            {
              "name": "allocatedAmount",
              "type": "uint256",
              "internalType": "uint256"
            },
            {
              "name": "claimant",
              "type": "address",
              "internalType": "address"
            },
            {
              "name": "amount",
              "type": "uint256",
              "internalType": "uint256"
            }
          ]
        }
      ],
      "outputs": [
        {
          "name": "",
          "type": "bool",
          "internalType": "bool"
        }
      ],
      "stateMutability": "nonpayable"
    },
    {
      "type": "function",
      "name": "claim",
      "inputs": [
        {
          "name": "claimPayload",
          "type": "tuple",
          "internalType": "struct MultichainClaim",
          "components": [
            {
              "name": "allocatorSignature",
              "type": "bytes",
              "internalType": "bytes"
            },
            {
              "name": "sponsorSignature",
              "type": "bytes",
              "internalType": "bytes"
            },
            {
              "name": "sponsor",
              "type": "address",
              "internalType": "address"
            },
            {
              "name": "nonce",
              "type": "uint256",
              "internalType": "uint256"
            },
            {
              "name": "expires",
              "type": "uint256",
              "internalType": "uint256"
            },
            {
              "name": "additionalChains",
              "type": "bytes32[]",
              "internalType": "bytes32[]"
            },
            {
              "name": "id",
              "type": "uint256",
              "internalType": "uint256"
            },
            {
              "name": "allocatedAmount",
              "type": "uint256",
              "internalType": "uint256"
            },
            {
              "name": "claimant",
              "type": "address",
              "internalType": "address"
            },
            {
              "name": "amount",
              "type": "uint256",
              "internalType": "uint256"
            }
          ]
        }
      ],
      "outputs": [
        {
          "name": "",
          "type": "bool",
          "internalType": "bool"
        }
      ],
      "stateMutability": "nonpayable"
    },
    {
      "type": "function",
      "name": "claim",
      "inputs": [
        {
          "name": "claimPayload",
          "type": "tuple",
          "internalType": "struct QualifiedSplitClaimWithWitness",
          "components": [
            {
              "name": "allocatorSignature",
              "type": "bytes",
              "internalType": "bytes"
            },
            {
              "name": "sponsorSignature",
              "type": "bytes",
              "internalType": "bytes"
            },
            {
              "name": "sponsor",
              "type": "address",
              "internalType": "address"
            },
            {
              "name": "nonce",
              "type": "uint256",
              "internalType": "uint256"
            },
            {
              "name": "expires",
              "type": "uint256",
              "internalType": "uint256"
            },
            {
              "name": "witness",
              "type": "bytes32",
              "internalType": "bytes32"
            },
            {
              "name": "witnessTypestring",
              "type": "string",
              "internalType": "string"
            },
            {
              "name": "qualificationTypehash",
              "type": "bytes32",
              "internalType": "bytes32"
            },
            {
              "name": "qualificationPayload",
              "type": "bytes",
              "internalType": "bytes"
            },
            {
              "name": "id",
              "type": "uint256",
              "internalType": "uint256"
            },
            {
              "name": "allocatedAmount",
              "type": "uint256",
              "internalType": "uint256"
            },
            {
              "name": "claimants",
              "type": "tuple[]",
              "internalType": "struct SplitComponent[]",
              "components": [
                {
                  "name": "claimant",
                  "type": "address",
                  "internalType": "address"
                },
                {
                  "name": "amount",
                  "type": "uint256",
                  "internalType": "uint256"
                }
              ]
            }
          ]
        }
      ],
      "outputs": [
        {
          "name": "",
          "type": "bool",
          "internalType": "bool"
        }
      ],
      "stateMutability": "nonpayable"
    },
    {
      "type": "function",
      "name": "claim",
      "inputs": [
        {
          "name": "claimPayload",
          "type": "tuple",
          "internalType": "struct ExogenousQualifiedSplitBatchMultichainClaim",
          "components": [
            {
              "name": "allocatorSignature",
              "type": "bytes",
              "internalType": "bytes"
            },
            {
              "name": "sponsorSignature",
              "type": "bytes",
              "internalType": "bytes"
            },
            {
              "name": "sponsor",
              "type": "address",
              "internalType": "address"
            },
            {
              "name": "nonce",
              "type": "uint256",
              "internalType": "uint256"
            },
            {
              "name": "expires",
              "type": "uint256",
              "internalType": "uint256"
            },
            {
              "name": "qualificationTypehash",
              "type": "bytes32",
              "internalType": "bytes32"
            },
            {
              "name": "qualificationPayload",
              "type": "bytes",
              "internalType": "bytes"
            },
            {
              "name": "additionalChains",
              "type": "bytes32[]",
              "internalType": "bytes32[]"
            },
            {
              "name": "chainIndex",
              "type": "uint256",
              "internalType": "uint256"
            },
            {
              "name": "notarizedChainId",
              "type": "uint256",
              "internalType": "uint256"
            },
            {
              "name": "claims",
              "type": "tuple[]",
              "internalType": "struct SplitBatchClaimComponent[]",
              "components": [
                {
                  "name": "id",
                  "type": "uint256",
                  "internalType": "uint256"
                },
                {
                  "name": "allocatedAmount",
                  "type": "uint256",
                  "internalType": "uint256"
                },
                {
                  "name": "portions",
                  "type": "tuple[]",
                  "internalType": "struct SplitComponent[]",
                  "components": [
                    {
                      "name": "claimant",
                      "type": "address",
                      "internalType": "address"
                    },
                    {
                      "name": "amount",
                      "type": "uint256",
                      "internalType": "uint256"
                    }
                  ]
                }
              ]
            }
          ]
        }
      ],
      "outputs": [
        {
          "name": "",
          "type": "bool",
          "internalType": "bool"
        }
      ],
      "stateMutability": "nonpayable"
    },
    {
      "type": "function",
      "name": "claim",
      "inputs": [
        {
          "name": "claimPayload",
          "type": "tuple",
          "internalType": "struct QualifiedSplitBatchClaim",
          "components": [
            {
              "name": "allocatorSignature",
              "type": "bytes",
              "internalType": "bytes"
            },
            {
              "name": "sponsorSignature",
              "type": "bytes",
              "internalType": "bytes"
            },
            {
              "name": "sponsor",
              "type": "address",
              "internalType": "address"
            },
            {
              "name": "nonce",
              "type": "uint256",
              "internalType": "uint256"
            },
            {
              "name": "expires",
              "type": "uint256",
              "internalType": "uint256"
            },
            {
              "name": "qualificationTypehash",
              "type": "bytes32",
              "internalType": "bytes32"
            },
            {
              "name": "qualificationPayload",
              "type": "bytes",
              "internalType": "bytes"
            },
            {
              "name": "claims",
              "type": "tuple[]",
              "internalType": "struct SplitBatchClaimComponent[]",
              "components": [
                {
                  "name": "id",
                  "type": "uint256",
                  "internalType": "uint256"
                },
                {
                  "name": "allocatedAmount",
                  "type": "uint256",
                  "internalType": "uint256"
                },
                {
                  "name": "portions",
                  "type": "tuple[]",
                  "internalType": "struct SplitComponent[]",
                  "components": [
                    {
                      "name": "claimant",
                      "type": "address",
                      "internalType": "address"
                    },
                    {
                      "name": "amount",
                      "type": "uint256",
                      "internalType": "uint256"
                    }
                  ]
                }
              ]
            }
          ]
        }
      ],
      "outputs": [
        {
          "name": "",
          "type": "bool",
          "internalType": "bool"
        }
      ],
      "stateMutability": "nonpayable"
    },
    {
      "type": "function",
      "name": "claim",
      "inputs": [
        {
          "name": "claimPayload",
          "type": "tuple",
          "internalType": "struct QualifiedSplitBatchClaimWithWitness",
          "components": [
            {
              "name": "allocatorSignature",
              "type": "bytes",
              "internalType": "bytes"
            },
            {
              "name": "sponsorSignature",
              "type": "bytes",
              "internalType": "bytes"
            },
            {
              "name": "sponsor",
              "type": "address",
              "internalType": "address"
            },
            {
              "name": "nonce",
              "type": "uint256",
              "internalType": "uint256"
            },
            {
              "name": "expires",
              "type": "uint256",
              "internalType": "uint256"
            },
            {
              "name": "witness",
              "type": "bytes32",
              "internalType": "bytes32"
            },
            {
              "name": "witnessTypestring",
              "type": "string",
              "internalType": "string"
            },
            {
              "name": "qualificationTypehash",
              "type": "bytes32",
              "internalType": "bytes32"
            },
            {
              "name": "qualificationPayload",
              "type": "bytes",
              "internalType": "bytes"
            },
            {
              "name": "claims",
              "type": "tuple[]",
              "internalType": "struct SplitBatchClaimComponent[]",
              "components": [
                {
                  "name": "id",
                  "type": "uint256",
                  "internalType": "uint256"
                },
                {
                  "name": "allocatedAmount",
                  "type": "uint256",
                  "internalType": "uint256"
                },
                {
                  "name": "portions",
                  "type": "tuple[]",
                  "internalType": "struct SplitComponent[]",
                  "components": [
                    {
                      "name": "claimant",
                      "type": "address",
                      "internalType": "address"
                    },
                    {
                      "name": "amount",
                      "type": "uint256",
                      "internalType": "uint256"
                    }
                  ]
                }
              ]
            }
          ]
        }
      ],
      "outputs": [
        {
          "name": "",
          "type": "bool",
          "internalType": "bool"
        }
      ],
      "stateMutability": "nonpayable"
    },
    {
      "type": "function",
      "name": "claim",
      "inputs": [
        {
          "name": "claimPayload",
          "type": "tuple",
          "internalType": "struct ExogenousQualifiedMultichainClaimWithWitness",
          "components": [
            {
              "name": "allocatorSignature",
              "type": "bytes",
              "internalType": "bytes"
            },
            {
              "name": "sponsorSignature",
              "type": "bytes",
              "internalType": "bytes"
            },
            {
              "name": "sponsor",
              "type": "address",
              "internalType": "address"
            },
            {
              "name": "nonce",
              "type": "uint256",
              "internalType": "uint256"
            },
            {
              "name": "expires",
              "type": "uint256",
              "internalType": "uint256"
            },
            {
              "name": "witness",
              "type": "bytes32",
              "internalType": "bytes32"
            },
            {
              "name": "witnessTypestring",
              "type": "string",
              "internalType": "string"
            },
            {
              "name": "qualificationTypehash",
              "type": "bytes32",
              "internalType": "bytes32"
            },
            {
              "name": "qualificationPayload",
              "type": "bytes",
              "internalType": "bytes"
            },
            {
              "name": "additionalChains",
              "type": "bytes32[]",
              "internalType": "bytes32[]"
            },
            {
              "name": "chainIndex",
              "type": "uint256",
              "internalType": "uint256"
            },
            {
              "name": "notarizedChainId",
              "type": "uint256",
              "internalType": "uint256"
            },
            {
              "name": "id",
              "type": "uint256",
              "internalType": "uint256"
            },
            {
              "name": "allocatedAmount",
              "type": "uint256",
              "internalType": "uint256"
            },
            {
              "name": "claimant",
              "type": "address",
              "internalType": "address"
            },
            {
              "name": "amount",
              "type": "uint256",
              "internalType": "uint256"
            }
          ]
        }
      ],
      "outputs": [
        {
          "name": "",
          "type": "bool",
          "internalType": "bool"
        }
      ],
      "stateMutability": "nonpayable"
    },
    {
      "type": "function",
      "name": "claim",
      "inputs": [
        {
          "name": "claimPayload",
          "type": "tuple",
          "internalType": "struct ExogenousBatchMultichainClaimWithWitness",
          "components": [
            {
              "name": "allocatorSignature",
              "type": "bytes",
              "internalType": "bytes"
            },
            {
              "name": "sponsorSignature",
              "type": "bytes",
              "internalType": "bytes"
            },
            {
              "name": "sponsor",
              "type": "address",
              "internalType": "address"
            },
            {
              "name": "nonce",
              "type": "uint256",
              "internalType": "uint256"
            },
            {
              "name": "expires",
              "type": "uint256",
              "internalType": "uint256"
            },
            {
              "name": "witness",
              "type": "bytes32",
              "internalType": "bytes32"
            },
            {
              "name": "witnessTypestring",
              "type": "string",
              "internalType": "string"
            },
            {
              "name": "additionalChains",
              "type": "bytes32[]",
              "internalType": "bytes32[]"
            },
            {
              "name": "chainIndex",
              "type": "uint256",
              "internalType": "uint256"
            },
            {
              "name": "notarizedChainId",
              "type": "uint256",
              "internalType": "uint256"
            },
            {
              "name": "claims",
              "type": "tuple[]",
              "internalType": "struct BatchClaimComponent[]",
              "components": [
                {
                  "name": "id",
                  "type": "uint256",
                  "internalType": "uint256"
                },
                {
                  "name": "allocatedAmount",
                  "type": "uint256",
                  "internalType": "uint256"
                },
                {
                  "name": "amount",
                  "type": "uint256",
                  "internalType": "uint256"
                }
              ]
            },
            {
              "name": "claimant",
              "type": "address",
              "internalType": "address"
            }
          ]
        }
      ],
      "outputs": [
        {
          "name": "",
          "type": "bool",
          "internalType": "bool"
        }
      ],
      "stateMutability": "nonpayable"
    },
    {
      "type": "function",
      "name": "claim",
      "inputs": [
        {
          "name": "claimPayload",
          "type": "tuple",
          "internalType": "struct SplitMultichainClaimWithWitness",
          "components": [
            {
              "name": "allocatorSignature",
              "type": "bytes",
              "internalType": "bytes"
            },
            {
              "name": "sponsorSignature",
              "type": "bytes",
              "internalType": "bytes"
            },
            {
              "name": "sponsor",
              "type": "address",
              "internalType": "address"
            },
            {
              "name": "nonce",
              "type": "uint256",
              "internalType": "uint256"
            },
            {
              "name": "expires",
              "type": "uint256",
              "internalType": "uint256"
            },
            {
              "name": "witness",
              "type": "bytes32",
              "internalType": "bytes32"
            },
            {
              "name": "witnessTypestring",
              "type": "string",
              "internalType": "string"
            },
            {
              "name": "additionalChains",
              "type": "bytes32[]",
              "internalType": "bytes32[]"
            },
            {
              "name": "id",
              "type": "uint256",
              "internalType": "uint256"
            },
            {
              "name": "allocatedAmount",
              "type": "uint256",
              "internalType": "uint256"
            },
            {
              "name": "claimants",
              "type": "tuple[]",
              "internalType": "struct SplitComponent[]",
              "components": [
                {
                  "name": "claimant",
                  "type": "address",
                  "internalType": "address"
                },
                {
                  "name": "amount",
                  "type": "uint256",
                  "internalType": "uint256"
                }
              ]
            }
          ]
        }
      ],
      "outputs": [
        {
          "name": "",
          "type": "bool",
          "internalType": "bool"
        }
      ],
      "stateMutability": "nonpayable"
    },
    {
      "type": "function",
      "name": "claim",
      "inputs": [
        {
          "name": "claimPayload",
          "type": "tuple",
          "internalType": "struct ExogenousBatchMultichainClaim",
          "components": [
            {
              "name": "allocatorSignature",
              "type": "bytes",
              "internalType": "bytes"
            },
            {
              "name": "sponsorSignature",
              "type": "bytes",
              "internalType": "bytes"
            },
            {
              "name": "sponsor",
              "type": "address",
              "internalType": "address"
            },
            {
              "name": "nonce",
              "type": "uint256",
              "internalType": "uint256"
            },
            {
              "name": "expires",
              "type": "uint256",
              "internalType": "uint256"
            },
            {
              "name": "additionalChains",
              "type": "bytes32[]",
              "internalType": "bytes32[]"
            },
            {
              "name": "chainIndex",
              "type": "uint256",
              "internalType": "uint256"
            },
            {
              "name": "notarizedChainId",
              "type": "uint256",
              "internalType": "uint256"
            },
            {
              "name": "claims",
              "type": "tuple[]",
              "internalType": "struct BatchClaimComponent[]",
              "components": [
                {
                  "name": "id",
                  "type": "uint256",
                  "internalType": "uint256"
                },
                {
                  "name": "allocatedAmount",
                  "type": "uint256",
                  "internalType": "uint256"
                },
                {
                  "name": "amount",
                  "type": "uint256",
                  "internalType": "uint256"
                }
              ]
            },
            {
              "name": "claimant",
              "type": "address",
              "internalType": "address"
            }
          ]
        }
      ],
      "outputs": [
        {
          "name": "",
          "type": "bool",
          "internalType": "bool"
        }
      ],
      "stateMutability": "nonpayable"
    },
    {
      "type": "function",
      "name": "claim",
      "inputs": [
        {
          "name": "claimPayload",
          "type": "tuple",
          "internalType": "struct QualifiedSplitBatchMultichainClaim",
          "components": [
            {
              "name": "allocatorSignature",
              "type": "bytes",
              "internalType": "bytes"
            },
            {
              "name": "sponsorSignature",
              "type": "bytes",
              "internalType": "bytes"
            },
            {
              "name": "sponsor",
              "type": "address",
              "internalType": "address"
            },
            {
              "name": "nonce",
              "type": "uint256",
              "internalType": "uint256"
            },
            {
              "name": "expires",
              "type": "uint256",
              "internalType": "uint256"
            },
            {
              "name": "qualificationTypehash",
              "type": "bytes32",
              "internalType": "bytes32"
            },
            {
              "name": "qualificationPayload",
              "type": "bytes",
              "internalType": "bytes"
            },
            {
              "name": "additionalChains",
              "type": "bytes32[]",
              "internalType": "bytes32[]"
            },
            {
              "name": "claims",
              "type": "tuple[]",
              "internalType": "struct SplitBatchClaimComponent[]",
              "components": [
                {
                  "name": "id",
                  "type": "uint256",
                  "internalType": "uint256"
                },
                {
                  "name": "allocatedAmount",
                  "type": "uint256",
                  "internalType": "uint256"
                },
                {
                  "name": "portions",
                  "type": "tuple[]",
                  "internalType": "struct SplitComponent[]",
                  "components": [
                    {
                      "name": "claimant",
                      "type": "address",
                      "internalType": "address"
                    },
                    {
                      "name": "amount",
                      "type": "uint256",
                      "internalType": "uint256"
                    }
                  ]
                }
              ]
            }
          ]
        }
      ],
      "outputs": [
        {
          "name": "",
          "type": "bool",
          "internalType": "bool"
        }
      ],
      "stateMutability": "nonpayable"
    },
    {
      "type": "function",
      "name": "claimAndWithdraw",
      "inputs": [
        {
          "name": "claimPayload",
          "type": "tuple",
          "internalType": "struct ExogenousQualifiedBatchMultichainClaim",
          "components": [
            {
              "name": "allocatorSignature",
              "type": "bytes",
              "internalType": "bytes"
            },
            {
              "name": "sponsorSignature",
              "type": "bytes",
              "internalType": "bytes"
            },
            {
              "name": "sponsor",
              "type": "address",
              "internalType": "address"
            },
            {
              "name": "nonce",
              "type": "uint256",
              "internalType": "uint256"
            },
            {
              "name": "expires",
              "type": "uint256",
              "internalType": "uint256"
            },
            {
              "name": "qualificationTypehash",
              "type": "bytes32",
              "internalType": "bytes32"
            },
            {
              "name": "qualificationPayload",
              "type": "bytes",
              "internalType": "bytes"
            },
            {
              "name": "additionalChains",
              "type": "bytes32[]",
              "internalType": "bytes32[]"
            },
            {
              "name": "chainIndex",
              "type": "uint256",
              "internalType": "uint256"
            },
            {
              "name": "notarizedChainId",
              "type": "uint256",
              "internalType": "uint256"
            },
            {
              "name": "claims",
              "type": "tuple[]",
              "internalType": "struct BatchClaimComponent[]",
              "components": [
                {
                  "name": "id",
                  "type": "uint256",
                  "internalType": "uint256"
                },
                {
                  "name": "allocatedAmount",
                  "type": "uint256",
                  "internalType": "uint256"
                },
                {
                  "name": "amount",
                  "type": "uint256",
                  "internalType": "uint256"
                }
              ]
            },
            {
              "name": "claimant",
              "type": "address",
              "internalType": "address"
            }
          ]
        }
      ],
      "outputs": [
        {
          "name": "",
          "type": "bool",
          "internalType": "bool"
        }
      ],
      "stateMutability": "nonpayable"
    },
    {
      "type": "function",
      "name": "claimAndWithdraw",
      "inputs": [
        {
          "name": "claimPayload",
          "type": "tuple",
          "internalType": "struct QualifiedSplitClaim",
          "components": [
            {
              "name": "allocatorSignature",
              "type": "bytes",
              "internalType": "bytes"
            },
            {
              "name": "sponsorSignature",
              "type": "bytes",
              "internalType": "bytes"
            },
            {
              "name": "sponsor",
              "type": "address",
              "internalType": "address"
            },
            {
              "name": "nonce",
              "type": "uint256",
              "internalType": "uint256"
            },
            {
              "name": "expires",
              "type": "uint256",
              "internalType": "uint256"
            },
            {
              "name": "qualificationTypehash",
              "type": "bytes32",
              "internalType": "bytes32"
            },
            {
              "name": "qualificationPayload",
              "type": "bytes",
              "internalType": "bytes"
            },
            {
              "name": "id",
              "type": "uint256",
              "internalType": "uint256"
            },
            {
              "name": "allocatedAmount",
              "type": "uint256",
              "internalType": "uint256"
            },
            {
              "name": "claimants",
              "type": "tuple[]",
              "internalType": "struct SplitComponent[]",
              "components": [
                {
                  "name": "claimant",
                  "type": "address",
                  "internalType": "address"
                },
                {
                  "name": "amount",
                  "type": "uint256",
                  "internalType": "uint256"
                }
              ]
            }
          ]
        }
      ],
      "outputs": [
        {
          "name": "",
          "type": "bool",
          "internalType": "bool"
        }
      ],
      "stateMutability": "nonpayable"
    },
    {
      "type": "function",
      "name": "claimAndWithdraw",
      "inputs": [
        {
          "name": "claimPayload",
          "type": "tuple",
          "internalType": "struct QualifiedSplitBatchClaimWithWitness",
          "components": [
            {
              "name": "allocatorSignature",
              "type": "bytes",
              "internalType": "bytes"
            },
            {
              "name": "sponsorSignature",
              "type": "bytes",
              "internalType": "bytes"
            },
            {
              "name": "sponsor",
              "type": "address",
              "internalType": "address"
            },
            {
              "name": "nonce",
              "type": "uint256",
              "internalType": "uint256"
            },
            {
              "name": "expires",
              "type": "uint256",
              "internalType": "uint256"
            },
            {
              "name": "witness",
              "type": "bytes32",
              "internalType": "bytes32"
            },
            {
              "name": "witnessTypestring",
              "type": "string",
              "internalType": "string"
            },
            {
              "name": "qualificationTypehash",
              "type": "bytes32",
              "internalType": "bytes32"
            },
            {
              "name": "qualificationPayload",
              "type": "bytes",
              "internalType": "bytes"
            },
            {
              "name": "claims",
              "type": "tuple[]",
              "internalType": "struct SplitBatchClaimComponent[]",
              "components": [
                {
                  "name": "id",
                  "type": "uint256",
                  "internalType": "uint256"
                },
                {
                  "name": "allocatedAmount",
                  "type": "uint256",
                  "internalType": "uint256"
                },
                {
                  "name": "portions",
                  "type": "tuple[]",
                  "internalType": "struct SplitComponent[]",
                  "components": [
                    {
                      "name": "claimant",
                      "type": "address",
                      "internalType": "address"
                    },
                    {
                      "name": "amount",
                      "type": "uint256",
                      "internalType": "uint256"
                    }
                  ]
                }
              ]
            }
          ]
        }
      ],
      "outputs": [
        {
          "name": "",
          "type": "bool",
          "internalType": "bool"
        }
      ],
      "stateMutability": "nonpayable"
    },
    {
      "type": "function",
      "name": "claimAndWithdraw",
      "inputs": [
        {
          "name": "claimPayload",
          "type": "tuple",
          "internalType": "struct QualifiedSplitBatchMultichainClaim",
          "components": [
            {
              "name": "allocatorSignature",
              "type": "bytes",
              "internalType": "bytes"
            },
            {
              "name": "sponsorSignature",
              "type": "bytes",
              "internalType": "bytes"
            },
            {
              "name": "sponsor",
              "type": "address",
              "internalType": "address"
            },
            {
              "name": "nonce",
              "type": "uint256",
              "internalType": "uint256"
            },
            {
              "name": "expires",
              "type": "uint256",
              "internalType": "uint256"
            },
            {
              "name": "qualificationTypehash",
              "type": "bytes32",
              "internalType": "bytes32"
            },
            {
              "name": "qualificationPayload",
              "type": "bytes",
              "internalType": "bytes"
            },
            {
              "name": "additionalChains",
              "type": "bytes32[]",
              "internalType": "bytes32[]"
            },
            {
              "name": "claims",
              "type": "tuple[]",
              "internalType": "struct SplitBatchClaimComponent[]",
              "components": [
                {
                  "name": "id",
                  "type": "uint256",
                  "internalType": "uint256"
                },
                {
                  "name": "allocatedAmount",
                  "type": "uint256",
                  "internalType": "uint256"
                },
                {
                  "name": "portions",
                  "type": "tuple[]",
                  "internalType": "struct SplitComponent[]",
                  "components": [
                    {
                      "name": "claimant",
                      "type": "address",
                      "internalType": "address"
                    },
                    {
                      "name": "amount",
                      "type": "uint256",
                      "internalType": "uint256"
                    }
                  ]
                }
              ]
            }
          ]
        }
      ],
      "outputs": [
        {
          "name": "",
          "type": "bool",
          "internalType": "bool"
        }
      ],
      "stateMutability": "nonpayable"
    },
    {
      "type": "function",
      "name": "claimAndWithdraw",
      "inputs": [
        {
          "name": "claimPayload",
          "type": "tuple",
          "internalType": "struct QualifiedBatchMultichainClaim",
          "components": [
            {
              "name": "allocatorSignature",
              "type": "bytes",
              "internalType": "bytes"
            },
            {
              "name": "sponsorSignature",
              "type": "bytes",
              "internalType": "bytes"
            },
            {
              "name": "sponsor",
              "type": "address",
              "internalType": "address"
            },
            {
              "name": "nonce",
              "type": "uint256",
              "internalType": "uint256"
            },
            {
              "name": "expires",
              "type": "uint256",
              "internalType": "uint256"
            },
            {
              "name": "qualificationTypehash",
              "type": "bytes32",
              "internalType": "bytes32"
            },
            {
              "name": "qualificationPayload",
              "type": "bytes",
              "internalType": "bytes"
            },
            {
              "name": "additionalChains",
              "type": "bytes32[]",
              "internalType": "bytes32[]"
            },
            {
              "name": "claims",
              "type": "tuple[]",
              "internalType": "struct BatchClaimComponent[]",
              "components": [
                {
                  "name": "id",
                  "type": "uint256",
                  "internalType": "uint256"
                },
                {
                  "name": "allocatedAmount",
                  "type": "uint256",
                  "internalType": "uint256"
                },
                {
                  "name": "amount",
                  "type": "uint256",
                  "internalType": "uint256"
                }
              ]
            },
            {
              "name": "claimant",
              "type": "address",
              "internalType": "address"
            }
          ]
        }
      ],
      "outputs": [
        {
          "name": "",
          "type": "bool",
          "internalType": "bool"
        }
      ],
      "stateMutability": "nonpayable"
    },
    {
      "type": "function",
      "name": "claimAndWithdraw",
      "inputs": [
        {
          "name": "claimPayload",
          "type": "tuple",
          "internalType": "struct QualifiedSplitBatchClaim",
          "components": [
            {
              "name": "allocatorSignature",
              "type": "bytes",
              "internalType": "bytes"
            },
            {
              "name": "sponsorSignature",
              "type": "bytes",
              "internalType": "bytes"
            },
            {
              "name": "sponsor",
              "type": "address",
              "internalType": "address"
            },
            {
              "name": "nonce",
              "type": "uint256",
              "internalType": "uint256"
            },
            {
              "name": "expires",
              "type": "uint256",
              "internalType": "uint256"
            },
            {
              "name": "qualificationTypehash",
              "type": "bytes32",
              "internalType": "bytes32"
            },
            {
              "name": "qualificationPayload",
              "type": "bytes",
              "internalType": "bytes"
            },
            {
              "name": "claims",
              "type": "tuple[]",
              "internalType": "struct SplitBatchClaimComponent[]",
              "components": [
                {
                  "name": "id",
                  "type": "uint256",
                  "internalType": "uint256"
                },
                {
                  "name": "allocatedAmount",
                  "type": "uint256",
                  "internalType": "uint256"
                },
                {
                  "name": "portions",
                  "type": "tuple[]",
                  "internalType": "struct SplitComponent[]",
                  "components": [
                    {
                      "name": "claimant",
                      "type": "address",
                      "internalType": "address"
                    },
                    {
                      "name": "amount",
                      "type": "uint256",
                      "internalType": "uint256"
                    }
                  ]
                }
              ]
            }
          ]
        }
      ],
      "outputs": [
        {
          "name": "",
          "type": "bool",
          "internalType": "bool"
        }
      ],
      "stateMutability": "nonpayable"
    },
    {
      "type": "function",
      "name": "claimAndWithdraw",
      "inputs": [
        {
          "name": "claimPayload",
          "type": "tuple",
          "internalType": "struct QualifiedClaimWithWitness",
          "components": [
            {
              "name": "allocatorSignature",
              "type": "bytes",
              "internalType": "bytes"
            },
            {
              "name": "sponsorSignature",
              "type": "bytes",
              "internalType": "bytes"
            },
            {
              "name": "sponsor",
              "type": "address",
              "internalType": "address"
            },
            {
              "name": "nonce",
              "type": "uint256",
              "internalType": "uint256"
            },
            {
              "name": "expires",
              "type": "uint256",
              "internalType": "uint256"
            },
            {
              "name": "witness",
              "type": "bytes32",
              "internalType": "bytes32"
            },
            {
              "name": "witnessTypestring",
              "type": "string",
              "internalType": "string"
            },
            {
              "name": "qualificationTypehash",
              "type": "bytes32",
              "internalType": "bytes32"
            },
            {
              "name": "qualificationPayload",
              "type": "bytes",
              "internalType": "bytes"
            },
            {
              "name": "id",
              "type": "uint256",
              "internalType": "uint256"
            },
            {
              "name": "allocatedAmount",
              "type": "uint256",
              "internalType": "uint256"
            },
            {
              "name": "claimant",
              "type": "address",
              "internalType": "address"
            },
            {
              "name": "amount",
              "type": "uint256",
              "internalType": "uint256"
            }
          ]
        }
      ],
      "outputs": [
        {
          "name": "",
          "type": "bool",
          "internalType": "bool"
        }
      ],
      "stateMutability": "nonpayable"
    },
    {
      "type": "function",
      "name": "claimAndWithdraw",
      "inputs": [
        {
          "name": "claimPayload",
          "type": "tuple",
          "internalType": "struct QualifiedBatchMultichainClaimWithWitness",
          "components": [
            {
              "name": "allocatorSignature",
              "type": "bytes",
              "internalType": "bytes"
            },
            {
              "name": "sponsorSignature",
              "type": "bytes",
              "internalType": "bytes"
            },
            {
              "name": "sponsor",
              "type": "address",
              "internalType": "address"
            },
            {
              "name": "nonce",
              "type": "uint256",
              "internalType": "uint256"
            },
            {
              "name": "expires",
              "type": "uint256",
              "internalType": "uint256"
            },
            {
              "name": "witness",
              "type": "bytes32",
              "internalType": "bytes32"
            },
            {
              "name": "witnessTypestring",
              "type": "string",
              "internalType": "string"
            },
            {
              "name": "qualificationTypehash",
              "type": "bytes32",
              "internalType": "bytes32"
            },
            {
              "name": "qualificationPayload",
              "type": "bytes",
              "internalType": "bytes"
            },
            {
              "name": "additionalChains",
              "type": "bytes32[]",
              "internalType": "bytes32[]"
            },
            {
              "name": "claims",
              "type": "tuple[]",
              "internalType": "struct BatchClaimComponent[]",
              "components": [
                {
                  "name": "id",
                  "type": "uint256",
                  "internalType": "uint256"
                },
                {
                  "name": "allocatedAmount",
                  "type": "uint256",
                  "internalType": "uint256"
                },
                {
                  "name": "amount",
                  "type": "uint256",
                  "internalType": "uint256"
                }
              ]
            },
            {
              "name": "claimant",
              "type": "address",
              "internalType": "address"
            }
          ]
        }
      ],
      "outputs": [
        {
          "name": "",
          "type": "bool",
          "internalType": "bool"
        }
      ],
      "stateMutability": "nonpayable"
    },
    {
      "type": "function",
      "name": "claimAndWithdraw",
      "inputs": [
        {
          "name": "claimPayload",
          "type": "tuple",
          "internalType": "struct MultichainClaimWithWitness",
          "components": [
            {
              "name": "allocatorSignature",
              "type": "bytes",
              "internalType": "bytes"
            },
            {
              "name": "sponsorSignature",
              "type": "bytes",
              "internalType": "bytes"
            },
            {
              "name": "sponsor",
              "type": "address",
              "internalType": "address"
            },
            {
              "name": "nonce",
              "type": "uint256",
              "internalType": "uint256"
            },
            {
              "name": "expires",
              "type": "uint256",
              "internalType": "uint256"
            },
            {
              "name": "witness",
              "type": "bytes32",
              "internalType": "bytes32"
            },
            {
              "name": "witnessTypestring",
              "type": "string",
              "internalType": "string"
            },
            {
              "name": "additionalChains",
              "type": "bytes32[]",
              "internalType": "bytes32[]"
            },
            {
              "name": "id",
              "type": "uint256",
              "internalType": "uint256"
            },
            {
              "name": "allocatedAmount",
              "type": "uint256",
              "internalType": "uint256"
            },
            {
              "name": "claimant",
              "type": "address",
              "internalType": "address"
            },
            {
              "name": "amount",
              "type": "uint256",
              "internalType": "uint256"
            }
          ]
        }
      ],
      "outputs": [
        {
          "name": "",
          "type": "bool",
          "internalType": "bool"
        }
      ],
      "stateMutability": "nonpayable"
    },
    {
      "type": "function",
      "name": "claimAndWithdraw",
      "inputs": [
        {
          "name": "claimPayload",
          "type": "tuple",
          "internalType": "struct QualifiedClaim",
          "components": [
            {
              "name": "allocatorSignature",
              "type": "bytes",
              "internalType": "bytes"
            },
            {
              "name": "sponsorSignature",
              "type": "bytes",
              "internalType": "bytes"
            },
            {
              "name": "sponsor",
              "type": "address",
              "internalType": "address"
            },
            {
              "name": "nonce",
              "type": "uint256",
              "internalType": "uint256"
            },
            {
              "name": "expires",
              "type": "uint256",
              "internalType": "uint256"
            },
            {
              "name": "qualificationTypehash",
              "type": "bytes32",
              "internalType": "bytes32"
            },
            {
              "name": "qualificationPayload",
              "type": "bytes",
              "internalType": "bytes"
            },
            {
              "name": "id",
              "type": "uint256",
              "internalType": "uint256"
            },
            {
              "name": "allocatedAmount",
              "type": "uint256",
              "internalType": "uint256"
            },
            {
              "name": "claimant",
              "type": "address",
              "internalType": "address"
            },
            {
              "name": "amount",
              "type": "uint256",
              "internalType": "uint256"
            }
          ]
        }
      ],
      "outputs": [
        {
          "name": "",
          "type": "bool",
          "internalType": "bool"
        }
      ],
      "stateMutability": "nonpayable"
    },
    {
      "type": "function",
      "name": "claimAndWithdraw",
      "inputs": [
        {
          "name": "claimPayload",
          "type": "tuple",
          "internalType": "struct ExogenousSplitBatchMultichainClaim",
          "components": [
            {
              "name": "allocatorSignature",
              "type": "bytes",
              "internalType": "bytes"
            },
            {
              "name": "sponsorSignature",
              "type": "bytes",
              "internalType": "bytes"
            },
            {
              "name": "sponsor",
              "type": "address",
              "internalType": "address"
            },
            {
              "name": "nonce",
              "type": "uint256",
              "internalType": "uint256"
            },
            {
              "name": "expires",
              "type": "uint256",
              "internalType": "uint256"
            },
            {
              "name": "additionalChains",
              "type": "bytes32[]",
              "internalType": "bytes32[]"
            },
            {
              "name": "chainIndex",
              "type": "uint256",
              "internalType": "uint256"
            },
            {
              "name": "notarizedChainId",
              "type": "uint256",
              "internalType": "uint256"
            },
            {
              "name": "claims",
              "type": "tuple[]",
              "internalType": "struct SplitBatchClaimComponent[]",
              "components": [
                {
                  "name": "id",
                  "type": "uint256",
                  "internalType": "uint256"
                },
                {
                  "name": "allocatedAmount",
                  "type": "uint256",
                  "internalType": "uint256"
                },
                {
                  "name": "portions",
                  "type": "tuple[]",
                  "internalType": "struct SplitComponent[]",
                  "components": [
                    {
                      "name": "claimant",
                      "type": "address",
                      "internalType": "address"
                    },
                    {
                      "name": "amount",
                      "type": "uint256",
                      "internalType": "uint256"
                    }
                  ]
                }
              ]
            }
          ]
        }
      ],
      "outputs": [
        {
          "name": "",
          "type": "bool",
          "internalType": "bool"
        }
      ],
      "stateMutability": "nonpayable"
    },
    {
      "type": "function",
      "name": "claimAndWithdraw",
      "inputs": [
        {
          "name": "claimPayload",
          "type": "tuple",
          "internalType": "struct QualifiedSplitBatchMultichainClaimWithWitness",
          "components": [
            {
              "name": "allocatorSignature",
              "type": "bytes",
              "internalType": "bytes"
            },
            {
              "name": "sponsorSignature",
              "type": "bytes",
              "internalType": "bytes"
            },
            {
              "name": "sponsor",
              "type": "address",
              "internalType": "address"
            },
            {
              "name": "nonce",
              "type": "uint256",
              "internalType": "uint256"
            },
            {
              "name": "expires",
              "type": "uint256",
              "internalType": "uint256"
            },
            {
              "name": "witness",
              "type": "bytes32",
              "internalType": "bytes32"
            },
            {
              "name": "witnessTypestring",
              "type": "string",
              "internalType": "string"
            },
            {
              "name": "qualificationTypehash",
              "type": "bytes32",
              "internalType": "bytes32"
            },
            {
              "name": "qualificationPayload",
              "type": "bytes",
              "internalType": "bytes"
            },
            {
              "name": "additionalChains",
              "type": "bytes32[]",
              "internalType": "bytes32[]"
            },
            {
              "name": "claims",
              "type": "tuple[]",
              "internalType": "struct SplitBatchClaimComponent[]",
              "components": [
                {
                  "name": "id",
                  "type": "uint256",
                  "internalType": "uint256"
                },
                {
                  "name": "allocatedAmount",
                  "type": "uint256",
                  "internalType": "uint256"
                },
                {
                  "name": "portions",
                  "type": "tuple[]",
                  "internalType": "struct SplitComponent[]",
                  "components": [
                    {
                      "name": "claimant",
                      "type": "address",
                      "internalType": "address"
                    },
                    {
                      "name": "amount",
                      "type": "uint256",
                      "internalType": "uint256"
                    }
                  ]
                }
              ]
            }
          ]
        }
      ],
      "outputs": [
        {
          "name": "",
          "type": "bool",
          "internalType": "bool"
        }
      ],
      "stateMutability": "nonpayable"
    },
    {
      "type": "function",
      "name": "claimAndWithdraw",
      "inputs": [
        {
          "name": "claimPayload",
          "type": "tuple",
          "internalType": "struct SplitMultichainClaim",
          "components": [
            {
              "name": "allocatorSignature",
              "type": "bytes",
              "internalType": "bytes"
            },
            {
              "name": "sponsorSignature",
              "type": "bytes",
              "internalType": "bytes"
            },
            {
              "name": "sponsor",
              "type": "address",
              "internalType": "address"
            },
            {
              "name": "nonce",
              "type": "uint256",
              "internalType": "uint256"
            },
            {
              "name": "expires",
              "type": "uint256",
              "internalType": "uint256"
            },
            {
              "name": "additionalChains",
              "type": "bytes32[]",
              "internalType": "bytes32[]"
            },
            {
              "name": "id",
              "type": "uint256",
              "internalType": "uint256"
            },
            {
              "name": "allocatedAmount",
              "type": "uint256",
              "internalType": "uint256"
            },
            {
              "name": "claimants",
              "type": "tuple[]",
              "internalType": "struct SplitComponent[]",
              "components": [
                {
                  "name": "claimant",
                  "type": "address",
                  "internalType": "address"
                },
                {
                  "name": "amount",
                  "type": "uint256",
                  "internalType": "uint256"
                }
              ]
            }
          ]
        }
      ],
      "outputs": [
        {
          "name": "",
          "type": "bool",
          "internalType": "bool"
        }
      ],
      "stateMutability": "nonpayable"
    },
    {
      "type": "function",
      "name": "claimAndWithdraw",
      "inputs": [
        {
          "name": "claimPayload",
          "type": "tuple",
          "internalType": "struct ExogenousBatchMultichainClaim",
          "components": [
            {
              "name": "allocatorSignature",
              "type": "bytes",
              "internalType": "bytes"
            },
            {
              "name": "sponsorSignature",
              "type": "bytes",
              "internalType": "bytes"
            },
            {
              "name": "sponsor",
              "type": "address",
              "internalType": "address"
            },
            {
              "name": "nonce",
              "type": "uint256",
              "internalType": "uint256"
            },
            {
              "name": "expires",
              "type": "uint256",
              "internalType": "uint256"
            },
            {
              "name": "additionalChains",
              "type": "bytes32[]",
              "internalType": "bytes32[]"
            },
            {
              "name": "chainIndex",
              "type": "uint256",
              "internalType": "uint256"
            },
            {
              "name": "notarizedChainId",
              "type": "uint256",
              "internalType": "uint256"
            },
            {
              "name": "claims",
              "type": "tuple[]",
              "internalType": "struct BatchClaimComponent[]",
              "components": [
                {
                  "name": "id",
                  "type": "uint256",
                  "internalType": "uint256"
                },
                {
                  "name": "allocatedAmount",
                  "type": "uint256",
                  "internalType": "uint256"
                },
                {
                  "name": "amount",
                  "type": "uint256",
                  "internalType": "uint256"
                }
              ]
            },
            {
              "name": "claimant",
              "type": "address",
              "internalType": "address"
            }
          ]
        }
      ],
      "outputs": [
        {
          "name": "",
          "type": "bool",
          "internalType": "bool"
        }
      ],
      "stateMutability": "nonpayable"
    },
    {
      "type": "function",
      "name": "claimAndWithdraw",
      "inputs": [
        {
          "name": "claimPayload",
          "type": "tuple",
          "internalType": "struct ClaimWithWitness",
          "components": [
            {
              "name": "allocatorSignature",
              "type": "bytes",
              "internalType": "bytes"
            },
            {
              "name": "sponsorSignature",
              "type": "bytes",
              "internalType": "bytes"
            },
            {
              "name": "sponsor",
              "type": "address",
              "internalType": "address"
            },
            {
              "name": "nonce",
              "type": "uint256",
              "internalType": "uint256"
            },
            {
              "name": "expires",
              "type": "uint256",
              "internalType": "uint256"
            },
            {
              "name": "witness",
              "type": "bytes32",
              "internalType": "bytes32"
            },
            {
              "name": "witnessTypestring",
              "type": "string",
              "internalType": "string"
            },
            {
              "name": "id",
              "type": "uint256",
              "internalType": "uint256"
            },
            {
              "name": "allocatedAmount",
              "type": "uint256",
              "internalType": "uint256"
            },
            {
              "name": "claimant",
              "type": "address",
              "internalType": "address"
            },
            {
              "name": "amount",
              "type": "uint256",
              "internalType": "uint256"
            }
          ]
        }
      ],
      "outputs": [
        {
          "name": "",
          "type": "bool",
          "internalType": "bool"
        }
      ],
      "stateMutability": "nonpayable"
    },
    {
      "type": "function",
      "name": "claimAndWithdraw",
      "inputs": [
        {
          "name": "claimPayload",
          "type": "tuple",
          "internalType": "struct ExogenousSplitMultichainClaimWithWitness",
          "components": [
            {
              "name": "allocatorSignature",
              "type": "bytes",
              "internalType": "bytes"
            },
            {
              "name": "sponsorSignature",
              "type": "bytes",
              "internalType": "bytes"
            },
            {
              "name": "sponsor",
              "type": "address",
              "internalType": "address"
            },
            {
              "name": "nonce",
              "type": "uint256",
              "internalType": "uint256"
            },
            {
              "name": "expires",
              "type": "uint256",
              "internalType": "uint256"
            },
            {
              "name": "witness",
              "type": "bytes32",
              "internalType": "bytes32"
            },
            {
              "name": "witnessTypestring",
              "type": "string",
              "internalType": "string"
            },
            {
              "name": "additionalChains",
              "type": "bytes32[]",
              "internalType": "bytes32[]"
            },
            {
              "name": "chainIndex",
              "type": "uint256",
              "internalType": "uint256"
            },
            {
              "name": "notarizedChainId",
              "type": "uint256",
              "internalType": "uint256"
            },
            {
              "name": "id",
              "type": "uint256",
              "internalType": "uint256"
            },
            {
              "name": "allocatedAmount",
              "type": "uint256",
              "internalType": "uint256"
            },
            {
              "name": "claimants",
              "type": "tuple[]",
              "internalType": "struct SplitComponent[]",
              "components": [
                {
                  "name": "claimant",
                  "type": "address",
                  "internalType": "address"
                },
                {
                  "name": "amount",
                  "type": "uint256",
                  "internalType": "uint256"
                }
              ]
            }
          ]
        }
      ],
      "outputs": [
        {
          "name": "",
          "type": "bool",
          "internalType": "bool"
        }
      ],
      "stateMutability": "nonpayable"
    },
    {
      "type": "function",
      "name": "claimAndWithdraw",
      "inputs": [
        {
          "name": "claimPayload",
          "type": "tuple",
          "internalType": "struct SplitMultichainClaimWithWitness",
          "components": [
            {
              "name": "allocatorSignature",
              "type": "bytes",
              "internalType": "bytes"
            },
            {
              "name": "sponsorSignature",
              "type": "bytes",
              "internalType": "bytes"
            },
            {
              "name": "sponsor",
              "type": "address",
              "internalType": "address"
            },
            {
              "name": "nonce",
              "type": "uint256",
              "internalType": "uint256"
            },
            {
              "name": "expires",
              "type": "uint256",
              "internalType": "uint256"
            },
            {
              "name": "witness",
              "type": "bytes32",
              "internalType": "bytes32"
            },
            {
              "name": "witnessTypestring",
              "type": "string",
              "internalType": "string"
            },
            {
              "name": "additionalChains",
              "type": "bytes32[]",
              "internalType": "bytes32[]"
            },
            {
              "name": "id",
              "type": "uint256",
              "internalType": "uint256"
            },
            {
              "name": "allocatedAmount",
              "type": "uint256",
              "internalType": "uint256"
            },
            {
              "name": "claimants",
              "type": "tuple[]",
              "internalType": "struct SplitComponent[]",
              "components": [
                {
                  "name": "claimant",
                  "type": "address",
                  "internalType": "address"
                },
                {
                  "name": "amount",
                  "type": "uint256",
                  "internalType": "uint256"
                }
              ]
            }
          ]
        }
      ],
      "outputs": [
        {
          "name": "",
          "type": "bool",
          "internalType": "bool"
        }
      ],
      "stateMutability": "nonpayable"
    },
    {
      "type": "function",
      "name": "claimAndWithdraw",
      "inputs": [
        {
          "name": "claimPayload",
          "type": "tuple",
          "internalType": "struct ExogenousQualifiedMultichainClaimWithWitness",
          "components": [
            {
              "name": "allocatorSignature",
              "type": "bytes",
              "internalType": "bytes"
            },
            {
              "name": "sponsorSignature",
              "type": "bytes",
              "internalType": "bytes"
            },
            {
              "name": "sponsor",
              "type": "address",
              "internalType": "address"
            },
            {
              "name": "nonce",
              "type": "uint256",
              "internalType": "uint256"
            },
            {
              "name": "expires",
              "type": "uint256",
              "internalType": "uint256"
            },
            {
              "name": "witness",
              "type": "bytes32",
              "internalType": "bytes32"
            },
            {
              "name": "witnessTypestring",
              "type": "string",
              "internalType": "string"
            },
            {
              "name": "qualificationTypehash",
              "type": "bytes32",
              "internalType": "bytes32"
            },
            {
              "name": "qualificationPayload",
              "type": "bytes",
              "internalType": "bytes"
            },
            {
              "name": "additionalChains",
              "type": "bytes32[]",
              "internalType": "bytes32[]"
            },
            {
              "name": "chainIndex",
              "type": "uint256",
              "internalType": "uint256"
            },
            {
              "name": "notarizedChainId",
              "type": "uint256",
              "internalType": "uint256"
            },
            {
              "name": "id",
              "type": "uint256",
              "internalType": "uint256"
            },
            {
              "name": "allocatedAmount",
              "type": "uint256",
              "internalType": "uint256"
            },
            {
              "name": "claimant",
              "type": "address",
              "internalType": "address"
            },
            {
              "name": "amount",
              "type": "uint256",
              "internalType": "uint256"
            }
          ]
        }
      ],
      "outputs": [
        {
          "name": "",
          "type": "bool",
          "internalType": "bool"
        }
      ],
      "stateMutability": "nonpayable"
    },
    {
      "type": "function",
      "name": "claimAndWithdraw",
      "inputs": [
        {
          "name": "claimPayload",
          "type": "tuple",
          "internalType": "struct SplitClaimWithWitness",
          "components": [
            {
              "name": "allocatorSignature",
              "type": "bytes",
              "internalType": "bytes"
            },
            {
              "name": "sponsorSignature",
              "type": "bytes",
              "internalType": "bytes"
            },
            {
              "name": "sponsor",
              "type": "address",
              "internalType": "address"
            },
            {
              "name": "nonce",
              "type": "uint256",
              "internalType": "uint256"
            },
            {
              "name": "expires",
              "type": "uint256",
              "internalType": "uint256"
            },
            {
              "name": "witness",
              "type": "bytes32",
              "internalType": "bytes32"
            },
            {
              "name": "witnessTypestring",
              "type": "string",
              "internalType": "string"
            },
            {
              "name": "id",
              "type": "uint256",
              "internalType": "uint256"
            },
            {
              "name": "allocatedAmount",
              "type": "uint256",
              "internalType": "uint256"
            },
            {
              "name": "claimants",
              "type": "tuple[]",
              "internalType": "struct SplitComponent[]",
              "components": [
                {
                  "name": "claimant",
                  "type": "address",
                  "internalType": "address"
                },
                {
                  "name": "amount",
                  "type": "uint256",
                  "internalType": "uint256"
                }
              ]
            }
          ]
        }
      ],
      "outputs": [
        {
          "name": "",
          "type": "bool",
          "internalType": "bool"
        }
      ],
      "stateMutability": "nonpayable"
    },
    {
      "type": "function",
      "name": "claimAndWithdraw",
      "inputs": [
        {
          "name": "claimPayload",
          "type": "tuple",
          "internalType": "struct BatchClaimWithWitness",
          "components": [
            {
              "name": "allocatorSignature",
              "type": "bytes",
              "internalType": "bytes"
            },
            {
              "name": "sponsorSignature",
              "type": "bytes",
              "internalType": "bytes"
            },
            {
              "name": "sponsor",
              "type": "address",
              "internalType": "address"
            },
            {
              "name": "nonce",
              "type": "uint256",
              "internalType": "uint256"
            },
            {
              "name": "expires",
              "type": "uint256",
              "internalType": "uint256"
            },
            {
              "name": "witness",
              "type": "bytes32",
              "internalType": "bytes32"
            },
            {
              "name": "witnessTypestring",
              "type": "string",
              "internalType": "string"
            },
            {
              "name": "claims",
              "type": "tuple[]",
              "internalType": "struct BatchClaimComponent[]",
              "components": [
                {
                  "name": "id",
                  "type": "uint256",
                  "internalType": "uint256"
                },
                {
                  "name": "allocatedAmount",
                  "type": "uint256",
                  "internalType": "uint256"
                },
                {
                  "name": "amount",
                  "type": "uint256",
                  "internalType": "uint256"
                }
              ]
            },
            {
              "name": "claimant",
              "type": "address",
              "internalType": "address"
            }
          ]
        }
      ],
      "outputs": [
        {
          "name": "",
          "type": "bool",
          "internalType": "bool"
        }
      ],
      "stateMutability": "nonpayable"
    },
    {
      "type": "function",
      "name": "claimAndWithdraw",
      "inputs": [
        {
          "name": "claimPayload",
          "type": "tuple",
          "internalType": "struct SplitBatchClaim",
          "components": [
            {
              "name": "allocatorSignature",
              "type": "bytes",
              "internalType": "bytes"
            },
            {
              "name": "sponsorSignature",
              "type": "bytes",
              "internalType": "bytes"
            },
            {
              "name": "sponsor",
              "type": "address",
              "internalType": "address"
            },
            {
              "name": "nonce",
              "type": "uint256",
              "internalType": "uint256"
            },
            {
              "name": "expires",
              "type": "uint256",
              "internalType": "uint256"
            },
            {
              "name": "claims",
              "type": "tuple[]",
              "internalType": "struct SplitBatchClaimComponent[]",
              "components": [
                {
                  "name": "id",
                  "type": "uint256",
                  "internalType": "uint256"
                },
                {
                  "name": "allocatedAmount",
                  "type": "uint256",
                  "internalType": "uint256"
                },
                {
                  "name": "portions",
                  "type": "tuple[]",
                  "internalType": "struct SplitComponent[]",
                  "components": [
                    {
                      "name": "claimant",
                      "type": "address",
                      "internalType": "address"
                    },
                    {
                      "name": "amount",
                      "type": "uint256",
                      "internalType": "uint256"
                    }
                  ]
                }
              ]
            }
          ]
        }
      ],
      "outputs": [
        {
          "name": "",
          "type": "bool",
          "internalType": "bool"
        }
      ],
      "stateMutability": "nonpayable"
    },
    {
      "type": "function",
      "name": "claimAndWithdraw",
      "inputs": [
        {
          "name": "claimPayload",
          "type": "tuple",
          "internalType": "struct ExogenousSplitBatchMultichainClaimWithWitness",
          "components": [
            {
              "name": "allocatorSignature",
              "type": "bytes",
              "internalType": "bytes"
            },
            {
              "name": "sponsorSignature",
              "type": "bytes",
              "internalType": "bytes"
            },
            {
              "name": "sponsor",
              "type": "address",
              "internalType": "address"
            },
            {
              "name": "nonce",
              "type": "uint256",
              "internalType": "uint256"
            },
            {
              "name": "expires",
              "type": "uint256",
              "internalType": "uint256"
            },
            {
              "name": "witness",
              "type": "bytes32",
              "internalType": "bytes32"
            },
            {
              "name": "witnessTypestring",
              "type": "string",
              "internalType": "string"
            },
            {
              "name": "additionalChains",
              "type": "bytes32[]",
              "internalType": "bytes32[]"
            },
            {
              "name": "chainIndex",
              "type": "uint256",
              "internalType": "uint256"
            },
            {
              "name": "notarizedChainId",
              "type": "uint256",
              "internalType": "uint256"
            },
            {
              "name": "claims",
              "type": "tuple[]",
              "internalType": "struct SplitBatchClaimComponent[]",
              "components": [
                {
                  "name": "id",
                  "type": "uint256",
                  "internalType": "uint256"
                },
                {
                  "name": "allocatedAmount",
                  "type": "uint256",
                  "internalType": "uint256"
                },
                {
                  "name": "portions",
                  "type": "tuple[]",
                  "internalType": "struct SplitComponent[]",
                  "components": [
                    {
                      "name": "claimant",
                      "type": "address",
                      "internalType": "address"
                    },
                    {
                      "name": "amount",
                      "type": "uint256",
                      "internalType": "uint256"
                    }
                  ]
                }
              ]
            }
          ]
        }
      ],
      "outputs": [
        {
          "name": "",
          "type": "bool",
          "internalType": "bool"
        }
      ],
      "stateMutability": "nonpayable"
    },
    {
      "type": "function",
      "name": "claimAndWithdraw",
      "inputs": [
        {
          "name": "claimPayload",
          "type": "tuple",
          "internalType": "struct SplitBatchMultichainClaimWithWitness",
          "components": [
            {
              "name": "allocatorSignature",
              "type": "bytes",
              "internalType": "bytes"
            },
            {
              "name": "sponsorSignature",
              "type": "bytes",
              "internalType": "bytes"
            },
            {
              "name": "sponsor",
              "type": "address",
              "internalType": "address"
            },
            {
              "name": "nonce",
              "type": "uint256",
              "internalType": "uint256"
            },
            {
              "name": "expires",
              "type": "uint256",
              "internalType": "uint256"
            },
            {
              "name": "witness",
              "type": "bytes32",
              "internalType": "bytes32"
            },
            {
              "name": "witnessTypestring",
              "type": "string",
              "internalType": "string"
            },
            {
              "name": "additionalChains",
              "type": "bytes32[]",
              "internalType": "bytes32[]"
            },
            {
              "name": "claims",
              "type": "tuple[]",
              "internalType": "struct SplitBatchClaimComponent[]",
              "components": [
                {
                  "name": "id",
                  "type": "uint256",
                  "internalType": "uint256"
                },
                {
                  "name": "allocatedAmount",
                  "type": "uint256",
                  "internalType": "uint256"
                },
                {
                  "name": "portions",
                  "type": "tuple[]",
                  "internalType": "struct SplitComponent[]",
                  "components": [
                    {
                      "name": "claimant",
                      "type": "address",
                      "internalType": "address"
                    },
                    {
                      "name": "amount",
                      "type": "uint256",
                      "internalType": "uint256"
                    }
                  ]
                }
              ]
            }
          ]
        }
      ],
      "outputs": [
        {
          "name": "",
          "type": "bool",
          "internalType": "bool"
        }
      ],
      "stateMutability": "nonpayable"
    },
    {
      "type": "function",
      "name": "claimAndWithdraw",
      "inputs": [
        {
          "name": "claimPayload",
          "type": "tuple",
          "internalType": "struct ExogenousQualifiedSplitMultichainClaimWithWitness",
          "components": [
            {
              "name": "allocatorSignature",
              "type": "bytes",
              "internalType": "bytes"
            },
            {
              "name": "sponsorSignature",
              "type": "bytes",
              "internalType": "bytes"
            },
            {
              "name": "sponsor",
              "type": "address",
              "internalType": "address"
            },
            {
              "name": "nonce",
              "type": "uint256",
              "internalType": "uint256"
            },
            {
              "name": "expires",
              "type": "uint256",
              "internalType": "uint256"
            },
            {
              "name": "witness",
              "type": "bytes32",
              "internalType": "bytes32"
            },
            {
              "name": "witnessTypestring",
              "type": "string",
              "internalType": "string"
            },
            {
              "name": "qualificationTypehash",
              "type": "bytes32",
              "internalType": "bytes32"
            },
            {
              "name": "qualificationPayload",
              "type": "bytes",
              "internalType": "bytes"
            },
            {
              "name": "additionalChains",
              "type": "bytes32[]",
              "internalType": "bytes32[]"
            },
            {
              "name": "chainIndex",
              "type": "uint256",
              "internalType": "uint256"
            },
            {
              "name": "notarizedChainId",
              "type": "uint256",
              "internalType": "uint256"
            },
            {
              "name": "id",
              "type": "uint256",
              "internalType": "uint256"
            },
            {
              "name": "allocatedAmount",
              "type": "uint256",
              "internalType": "uint256"
            },
            {
              "name": "claimants",
              "type": "tuple[]",
              "internalType": "struct SplitComponent[]",
              "components": [
                {
                  "name": "claimant",
                  "type": "address",
                  "internalType": "address"
                },
                {
                  "name": "amount",
                  "type": "uint256",
                  "internalType": "uint256"
                }
              ]
            }
          ]
        }
      ],
      "outputs": [
        {
          "name": "",
          "type": "bool",
          "internalType": "bool"
        }
      ],
      "stateMutability": "nonpayable"
    },
    {
      "type": "function",
      "name": "claimAndWithdraw",
      "inputs": [
        {
          "name": "claimPayload",
          "type": "tuple",
          "internalType": "struct SplitClaim",
          "components": [
            {
              "name": "allocatorSignature",
              "type": "bytes",
              "internalType": "bytes"
            },
            {
              "name": "sponsorSignature",
              "type": "bytes",
              "internalType": "bytes"
            },
            {
              "name": "sponsor",
              "type": "address",
              "internalType": "address"
            },
            {
              "name": "nonce",
              "type": "uint256",
              "internalType": "uint256"
            },
            {
              "name": "expires",
              "type": "uint256",
              "internalType": "uint256"
            },
            {
              "name": "id",
              "type": "uint256",
              "internalType": "uint256"
            },
            {
              "name": "allocatedAmount",
              "type": "uint256",
              "internalType": "uint256"
            },
            {
              "name": "claimants",
              "type": "tuple[]",
              "internalType": "struct SplitComponent[]",
              "components": [
                {
                  "name": "claimant",
                  "type": "address",
                  "internalType": "address"
                },
                {
                  "name": "amount",
                  "type": "uint256",
                  "internalType": "uint256"
                }
              ]
            }
          ]
        }
      ],
      "outputs": [
        {
          "name": "",
          "type": "bool",
          "internalType": "bool"
        }
      ],
      "stateMutability": "nonpayable"
    },
    {
      "type": "function",
      "name": "claimAndWithdraw",
      "inputs": [
        {
          "name": "claimPayload",
          "type": "tuple",
          "internalType": "struct BatchClaim",
          "components": [
            {
              "name": "allocatorSignature",
              "type": "bytes",
              "internalType": "bytes"
            },
            {
              "name": "sponsorSignature",
              "type": "bytes",
              "internalType": "bytes"
            },
            {
              "name": "sponsor",
              "type": "address",
              "internalType": "address"
            },
            {
              "name": "nonce",
              "type": "uint256",
              "internalType": "uint256"
            },
            {
              "name": "expires",
              "type": "uint256",
              "internalType": "uint256"
            },
            {
              "name": "claims",
              "type": "tuple[]",
              "internalType": "struct BatchClaimComponent[]",
              "components": [
                {
                  "name": "id",
                  "type": "uint256",
                  "internalType": "uint256"
                },
                {
                  "name": "allocatedAmount",
                  "type": "uint256",
                  "internalType": "uint256"
                },
                {
                  "name": "amount",
                  "type": "uint256",
                  "internalType": "uint256"
                }
              ]
            },
            {
              "name": "claimant",
              "type": "address",
              "internalType": "address"
            }
          ]
        }
      ],
      "outputs": [
        {
          "name": "",
          "type": "bool",
          "internalType": "bool"
        }
      ],
      "stateMutability": "nonpayable"
    },
    {
      "type": "function",
      "name": "claimAndWithdraw",
      "inputs": [
        {
          "name": "claimPayload",
          "type": "tuple",
          "internalType": "struct MultichainClaim",
          "components": [
            {
              "name": "allocatorSignature",
              "type": "bytes",
              "internalType": "bytes"
            },
            {
              "name": "sponsorSignature",
              "type": "bytes",
              "internalType": "bytes"
            },
            {
              "name": "sponsor",
              "type": "address",
              "internalType": "address"
            },
            {
              "name": "nonce",
              "type": "uint256",
              "internalType": "uint256"
            },
            {
              "name": "expires",
              "type": "uint256",
              "internalType": "uint256"
            },
            {
              "name": "additionalChains",
              "type": "bytes32[]",
              "internalType": "bytes32[]"
            },
            {
              "name": "id",
              "type": "uint256",
              "internalType": "uint256"
            },
            {
              "name": "allocatedAmount",
              "type": "uint256",
              "internalType": "uint256"
            },
            {
              "name": "claimant",
              "type": "address",
              "internalType": "address"
            },
            {
              "name": "amount",
              "type": "uint256",
              "internalType": "uint256"
            }
          ]
        }
      ],
      "outputs": [
        {
          "name": "",
          "type": "bool",
          "internalType": "bool"
        }
      ],
      "stateMutability": "nonpayable"
    },
    {
      "type": "function",
      "name": "claimAndWithdraw",
      "inputs": [
        {
          "name": "claimPayload",
          "type": "tuple",
          "internalType": "struct ExogenousQualifiedSplitMultichainClaim",
          "components": [
            {
              "name": "allocatorSignature",
              "type": "bytes",
              "internalType": "bytes"
            },
            {
              "name": "sponsorSignature",
              "type": "bytes",
              "internalType": "bytes"
            },
            {
              "name": "sponsor",
              "type": "address",
              "internalType": "address"
            },
            {
              "name": "nonce",
              "type": "uint256",
              "internalType": "uint256"
            },
            {
              "name": "expires",
              "type": "uint256",
              "internalType": "uint256"
            },
            {
              "name": "qualificationTypehash",
              "type": "bytes32",
              "internalType": "bytes32"
            },
            {
              "name": "qualificationPayload",
              "type": "bytes",
              "internalType": "bytes"
            },
            {
              "name": "additionalChains",
              "type": "bytes32[]",
              "internalType": "bytes32[]"
            },
            {
              "name": "chainIndex",
              "type": "uint256",
              "internalType": "uint256"
            },
            {
              "name": "notarizedChainId",
              "type": "uint256",
              "internalType": "uint256"
            },
            {
              "name": "id",
              "type": "uint256",
              "internalType": "uint256"
            },
            {
              "name": "allocatedAmount",
              "type": "uint256",
              "internalType": "uint256"
            },
            {
              "name": "claimants",
              "type": "tuple[]",
              "internalType": "struct SplitComponent[]",
              "components": [
                {
                  "name": "claimant",
                  "type": "address",
                  "internalType": "address"
                },
                {
                  "name": "amount",
                  "type": "uint256",
                  "internalType": "uint256"
                }
              ]
            }
          ]
        }
      ],
      "outputs": [
        {
          "name": "",
          "type": "bool",
          "internalType": "bool"
        }
      ],
      "stateMutability": "nonpayable"
    },
    {
      "type": "function",
      "name": "claimAndWithdraw",
      "inputs": [
        {
          "name": "claimPayload",
          "type": "tuple",
          "internalType": "struct SplitBatchMultichainClaim",
          "components": [
            {
              "name": "allocatorSignature",
              "type": "bytes",
              "internalType": "bytes"
            },
            {
              "name": "sponsorSignature",
              "type": "bytes",
              "internalType": "bytes"
            },
            {
              "name": "sponsor",
              "type": "address",
              "internalType": "address"
            },
            {
              "name": "nonce",
              "type": "uint256",
              "internalType": "uint256"
            },
            {
              "name": "expires",
              "type": "uint256",
              "internalType": "uint256"
            },
            {
              "name": "additionalChains",
              "type": "bytes32[]",
              "internalType": "bytes32[]"
            },
            {
              "name": "claims",
              "type": "tuple[]",
              "internalType": "struct SplitBatchClaimComponent[]",
              "components": [
                {
                  "name": "id",
                  "type": "uint256",
                  "internalType": "uint256"
                },
                {
                  "name": "allocatedAmount",
                  "type": "uint256",
                  "internalType": "uint256"
                },
                {
                  "name": "portions",
                  "type": "tuple[]",
                  "internalType": "struct SplitComponent[]",
                  "components": [
                    {
                      "name": "claimant",
                      "type": "address",
                      "internalType": "address"
                    },
                    {
                      "name": "amount",
                      "type": "uint256",
                      "internalType": "uint256"
                    }
                  ]
                }
              ]
            }
          ]
        }
      ],
      "outputs": [
        {
          "name": "",
          "type": "bool",
          "internalType": "bool"
        }
      ],
      "stateMutability": "nonpayable"
    },
    {
      "type": "function",
      "name": "claimAndWithdraw",
      "inputs": [
        {
          "name": "claimPayload",
          "type": "tuple",
          "internalType": "struct ExogenousQualifiedSplitBatchMultichainClaim",
          "components": [
            {
              "name": "allocatorSignature",
              "type": "bytes",
              "internalType": "bytes"
            },
            {
              "name": "sponsorSignature",
              "type": "bytes",
              "internalType": "bytes"
            },
            {
              "name": "sponsor",
              "type": "address",
              "internalType": "address"
            },
            {
              "name": "nonce",
              "type": "uint256",
              "internalType": "uint256"
            },
            {
              "name": "expires",
              "type": "uint256",
              "internalType": "uint256"
            },
            {
              "name": "qualificationTypehash",
              "type": "bytes32",
              "internalType": "bytes32"
            },
            {
              "name": "qualificationPayload",
              "type": "bytes",
              "internalType": "bytes"
            },
            {
              "name": "additionalChains",
              "type": "bytes32[]",
              "internalType": "bytes32[]"
            },
            {
              "name": "chainIndex",
              "type": "uint256",
              "internalType": "uint256"
            },
            {
              "name": "notarizedChainId",
              "type": "uint256",
              "internalType": "uint256"
            },
            {
              "name": "claims",
              "type": "tuple[]",
              "internalType": "struct SplitBatchClaimComponent[]",
              "components": [
                {
                  "name": "id",
                  "type": "uint256",
                  "internalType": "uint256"
                },
                {
                  "name": "allocatedAmount",
                  "type": "uint256",
                  "internalType": "uint256"
                },
                {
                  "name": "portions",
                  "type": "tuple[]",
                  "internalType": "struct SplitComponent[]",
                  "components": [
                    {
                      "name": "claimant",
                      "type": "address",
                      "internalType": "address"
                    },
                    {
                      "name": "amount",
                      "type": "uint256",
                      "internalType": "uint256"
                    }
                  ]
                }
              ]
            }
          ]
        }
      ],
      "outputs": [
        {
          "name": "",
          "type": "bool",
          "internalType": "bool"
        }
      ],
      "stateMutability": "nonpayable"
    },
    {
      "type": "function",
      "name": "claimAndWithdraw",
      "inputs": [
        {
          "name": "claimPayload",
          "type": "tuple",
          "internalType": "struct ExogenousMultichainClaimWithWitness",
          "components": [
            {
              "name": "allocatorSignature",
              "type": "bytes",
              "internalType": "bytes"
            },
            {
              "name": "sponsorSignature",
              "type": "bytes",
              "internalType": "bytes"
            },
            {
              "name": "sponsor",
              "type": "address",
              "internalType": "address"
            },
            {
              "name": "nonce",
              "type": "uint256",
              "internalType": "uint256"
            },
            {
              "name": "expires",
              "type": "uint256",
              "internalType": "uint256"
            },
            {
              "name": "witness",
              "type": "bytes32",
              "internalType": "bytes32"
            },
            {
              "name": "witnessTypestring",
              "type": "string",
              "internalType": "string"
            },
            {
              "name": "additionalChains",
              "type": "bytes32[]",
              "internalType": "bytes32[]"
            },
            {
              "name": "chainIndex",
              "type": "uint256",
              "internalType": "uint256"
            },
            {
              "name": "notarizedChainId",
              "type": "uint256",
              "internalType": "uint256"
            },
            {
              "name": "id",
              "type": "uint256",
              "internalType": "uint256"
            },
            {
              "name": "allocatedAmount",
              "type": "uint256",
              "internalType": "uint256"
            },
            {
              "name": "claimant",
              "type": "address",
              "internalType": "address"
            },
            {
              "name": "amount",
              "type": "uint256",
              "internalType": "uint256"
            }
          ]
        }
      ],
      "outputs": [
        {
          "name": "",
          "type": "bool",
          "internalType": "bool"
        }
      ],
      "stateMutability": "nonpayable"
    },
    {
      "type": "function",
      "name": "claimAndWithdraw",
      "inputs": [
        {
          "name": "claimPayload",
          "type": "tuple",
          "internalType": "struct QualifiedBatchClaimWithWitness",
          "components": [
            {
              "name": "allocatorSignature",
              "type": "bytes",
              "internalType": "bytes"
            },
            {
              "name": "sponsorSignature",
              "type": "bytes",
              "internalType": "bytes"
            },
            {
              "name": "sponsor",
              "type": "address",
              "internalType": "address"
            },
            {
              "name": "nonce",
              "type": "uint256",
              "internalType": "uint256"
            },
            {
              "name": "expires",
              "type": "uint256",
              "internalType": "uint256"
            },
            {
              "name": "witness",
              "type": "bytes32",
              "internalType": "bytes32"
            },
            {
              "name": "witnessTypestring",
              "type": "string",
              "internalType": "string"
            },
            {
              "name": "qualificationTypehash",
              "type": "bytes32",
              "internalType": "bytes32"
            },
            {
              "name": "qualificationPayload",
              "type": "bytes",
              "internalType": "bytes"
            },
            {
              "name": "claims",
              "type": "tuple[]",
              "internalType": "struct BatchClaimComponent[]",
              "components": [
                {
                  "name": "id",
                  "type": "uint256",
                  "internalType": "uint256"
                },
                {
                  "name": "allocatedAmount",
                  "type": "uint256",
                  "internalType": "uint256"
                },
                {
                  "name": "amount",
                  "type": "uint256",
                  "internalType": "uint256"
                }
              ]
            },
            {
              "name": "claimant",
              "type": "address",
              "internalType": "address"
            }
          ]
        }
      ],
      "outputs": [
        {
          "name": "",
          "type": "bool",
          "internalType": "bool"
        }
      ],
      "stateMutability": "nonpayable"
    },
    {
      "type": "function",
      "name": "claimAndWithdraw",
      "inputs": [
        {
          "name": "claimPayload",
          "type": "tuple",
          "internalType": "struct BasicClaim",
          "components": [
            {
              "name": "allocatorSignature",
              "type": "bytes",
              "internalType": "bytes"
            },
            {
              "name": "sponsorSignature",
              "type": "bytes",
              "internalType": "bytes"
            },
            {
              "name": "sponsor",
              "type": "address",
              "internalType": "address"
            },
            {
              "name": "nonce",
              "type": "uint256",
              "internalType": "uint256"
            },
            {
              "name": "expires",
              "type": "uint256",
              "internalType": "uint256"
            },
            {
              "name": "id",
              "type": "uint256",
              "internalType": "uint256"
            },
            {
              "name": "allocatedAmount",
              "type": "uint256",
              "internalType": "uint256"
            },
            {
              "name": "claimant",
              "type": "address",
              "internalType": "address"
            },
            {
              "name": "amount",
              "type": "uint256",
              "internalType": "uint256"
            }
          ]
        }
      ],
      "outputs": [
        {
          "name": "",
          "type": "bool",
          "internalType": "bool"
        }
      ],
      "stateMutability": "nonpayable"
    },
    {
      "type": "function",
      "name": "claimAndWithdraw",
      "inputs": [
        {
          "name": "claimPayload",
          "type": "tuple",
          "internalType": "struct BatchMultichainClaim",
          "components": [
            {
              "name": "allocatorSignature",
              "type": "bytes",
              "internalType": "bytes"
            },
            {
              "name": "sponsorSignature",
              "type": "bytes",
              "internalType": "bytes"
            },
            {
              "name": "sponsor",
              "type": "address",
              "internalType": "address"
            },
            {
              "name": "nonce",
              "type": "uint256",
              "internalType": "uint256"
            },
            {
              "name": "expires",
              "type": "uint256",
              "internalType": "uint256"
            },
            {
              "name": "additionalChains",
              "type": "bytes32[]",
              "internalType": "bytes32[]"
            },
            {
              "name": "claims",
              "type": "tuple[]",
              "internalType": "struct BatchClaimComponent[]",
              "components": [
                {
                  "name": "id",
                  "type": "uint256",
                  "internalType": "uint256"
                },
                {
                  "name": "allocatedAmount",
                  "type": "uint256",
                  "internalType": "uint256"
                },
                {
                  "name": "amount",
                  "type": "uint256",
                  "internalType": "uint256"
                }
              ]
            },
            {
              "name": "claimant",
              "type": "address",
              "internalType": "address"
            }
          ]
        }
      ],
      "outputs": [
        {
          "name": "",
          "type": "bool",
          "internalType": "bool"
        }
      ],
      "stateMutability": "nonpayable"
    },
    {
      "type": "function",
      "name": "claimAndWithdraw",
      "inputs": [
        {
          "name": "claimPayload",
          "type": "tuple",
          "internalType": "struct BatchMultichainClaimWithWitness",
          "components": [
            {
              "name": "allocatorSignature",
              "type": "bytes",
              "internalType": "bytes"
            },
            {
              "name": "sponsorSignature",
              "type": "bytes",
              "internalType": "bytes"
            },
            {
              "name": "sponsor",
              "type": "address",
              "internalType": "address"
            },
            {
              "name": "nonce",
              "type": "uint256",
              "internalType": "uint256"
            },
            {
              "name": "expires",
              "type": "uint256",
              "internalType": "uint256"
            },
            {
              "name": "witness",
              "type": "bytes32",
              "internalType": "bytes32"
            },
            {
              "name": "witnessTypestring",
              "type": "string",
              "internalType": "string"
            },
            {
              "name": "additionalChains",
              "type": "bytes32[]",
              "internalType": "bytes32[]"
            },
            {
              "name": "claims",
              "type": "tuple[]",
              "internalType": "struct BatchClaimComponent[]",
              "components": [
                {
                  "name": "id",
                  "type": "uint256",
                  "internalType": "uint256"
                },
                {
                  "name": "allocatedAmount",
                  "type": "uint256",
                  "internalType": "uint256"
                },
                {
                  "name": "amount",
                  "type": "uint256",
                  "internalType": "uint256"
                }
              ]
            },
            {
              "name": "claimant",
              "type": "address",
              "internalType": "address"
            }
          ]
        }
      ],
      "outputs": [
        {
          "name": "",
          "type": "bool",
          "internalType": "bool"
        }
      ],
      "stateMutability": "nonpayable"
    },
    {
      "type": "function",
      "name": "claimAndWithdraw",
      "inputs": [
        {
          "name": "claimPayload",
          "type": "tuple",
          "internalType": "struct ExogenousMultichainClaim",
          "components": [
            {
              "name": "allocatorSignature",
              "type": "bytes",
              "internalType": "bytes"
            },
            {
              "name": "sponsorSignature",
              "type": "bytes",
              "internalType": "bytes"
            },
            {
              "name": "sponsor",
              "type": "address",
              "internalType": "address"
            },
            {
              "name": "nonce",
              "type": "uint256",
              "internalType": "uint256"
            },
            {
              "name": "expires",
              "type": "uint256",
              "internalType": "uint256"
            },
            {
              "name": "additionalChains",
              "type": "bytes32[]",
              "internalType": "bytes32[]"
            },
            {
              "name": "chainIndex",
              "type": "uint256",
              "internalType": "uint256"
            },
            {
              "name": "notarizedChainId",
              "type": "uint256",
              "internalType": "uint256"
            },
            {
              "name": "id",
              "type": "uint256",
              "internalType": "uint256"
            },
            {
              "name": "allocatedAmount",
              "type": "uint256",
              "internalType": "uint256"
            },
            {
              "name": "claimant",
              "type": "address",
              "internalType": "address"
            },
            {
              "name": "amount",
              "type": "uint256",
              "internalType": "uint256"
            }
          ]
        }
      ],
      "outputs": [
        {
          "name": "",
          "type": "bool",
          "internalType": "bool"
        }
      ],
      "stateMutability": "nonpayable"
    },
    {
      "type": "function",
      "name": "claimAndWithdraw",
      "inputs": [
        {
          "name": "claimPayload",
          "type": "tuple",
          "internalType": "struct QualifiedSplitMultichainClaimWithWitness",
          "components": [
            {
              "name": "allocatorSignature",
              "type": "bytes",
              "internalType": "bytes"
            },
            {
              "name": "sponsorSignature",
              "type": "bytes",
              "internalType": "bytes"
            },
            {
              "name": "sponsor",
              "type": "address",
              "internalType": "address"
            },
            {
              "name": "nonce",
              "type": "uint256",
              "internalType": "uint256"
            },
            {
              "name": "expires",
              "type": "uint256",
              "internalType": "uint256"
            },
            {
              "name": "witness",
              "type": "bytes32",
              "internalType": "bytes32"
            },
            {
              "name": "witnessTypestring",
              "type": "string",
              "internalType": "string"
            },
            {
              "name": "qualificationTypehash",
              "type": "bytes32",
              "internalType": "bytes32"
            },
            {
              "name": "qualificationPayload",
              "type": "bytes",
              "internalType": "bytes"
            },
            {
              "name": "additionalChains",
              "type": "bytes32[]",
              "internalType": "bytes32[]"
            },
            {
              "name": "id",
              "type": "uint256",
              "internalType": "uint256"
            },
            {
              "name": "allocatedAmount",
              "type": "uint256",
              "internalType": "uint256"
            },
            {
              "name": "claimants",
              "type": "tuple[]",
              "internalType": "struct SplitComponent[]",
              "components": [
                {
                  "name": "claimant",
                  "type": "address",
                  "internalType": "address"
                },
                {
                  "name": "amount",
                  "type": "uint256",
                  "internalType": "uint256"
                }
              ]
            }
          ]
        }
      ],
      "outputs": [
        {
          "name": "",
          "type": "bool",
          "internalType": "bool"
        }
      ],
      "stateMutability": "nonpayable"
    },
    {
      "type": "function",
      "name": "claimAndWithdraw",
      "inputs": [
        {
          "name": "claimPayload",
          "type": "tuple",
          "internalType": "struct QualifiedMultichainClaimWithWitness",
          "components": [
            {
              "name": "allocatorSignature",
              "type": "bytes",
              "internalType": "bytes"
            },
            {
              "name": "sponsorSignature",
              "type": "bytes",
              "internalType": "bytes"
            },
            {
              "name": "sponsor",
              "type": "address",
              "internalType": "address"
            },
            {
              "name": "nonce",
              "type": "uint256",
              "internalType": "uint256"
            },
            {
              "name": "expires",
              "type": "uint256",
              "internalType": "uint256"
            },
            {
              "name": "witness",
              "type": "bytes32",
              "internalType": "bytes32"
            },
            {
              "name": "witnessTypestring",
              "type": "string",
              "internalType": "string"
            },
            {
              "name": "qualificationTypehash",
              "type": "bytes32",
              "internalType": "bytes32"
            },
            {
              "name": "qualificationPayload",
              "type": "bytes",
              "internalType": "bytes"
            },
            {
              "name": "additionalChains",
              "type": "bytes32[]",
              "internalType": "bytes32[]"
            },
            {
              "name": "id",
              "type": "uint256",
              "internalType": "uint256"
            },
            {
              "name": "allocatedAmount",
              "type": "uint256",
              "internalType": "uint256"
            },
            {
              "name": "claimant",
              "type": "address",
              "internalType": "address"
            },
            {
              "name": "amount",
              "type": "uint256",
              "internalType": "uint256"
            }
          ]
        }
      ],
      "outputs": [
        {
          "name": "",
          "type": "bool",
          "internalType": "bool"
        }
      ],
      "stateMutability": "nonpayable"
    },
    {
      "type": "function",
      "name": "claimAndWithdraw",
      "inputs": [
        {
          "name": "claimPayload",
          "type": "tuple",
          "internalType": "struct ExogenousQualifiedSplitBatchMultichainClaimWithWitness",
          "components": [
            {
              "name": "allocatorSignature",
              "type": "bytes",
              "internalType": "bytes"
            },
            {
              "name": "sponsorSignature",
              "type": "bytes",
              "internalType": "bytes"
            },
            {
              "name": "sponsor",
              "type": "address",
              "internalType": "address"
            },
            {
              "name": "nonce",
              "type": "uint256",
              "internalType": "uint256"
            },
            {
              "name": "expires",
              "type": "uint256",
              "internalType": "uint256"
            },
            {
              "name": "witness",
              "type": "bytes32",
              "internalType": "bytes32"
            },
            {
              "name": "witnessTypestring",
              "type": "string",
              "internalType": "string"
            },
            {
              "name": "qualificationTypehash",
              "type": "bytes32",
              "internalType": "bytes32"
            },
            {
              "name": "qualificationPayload",
              "type": "bytes",
              "internalType": "bytes"
            },
            {
              "name": "additionalChains",
              "type": "bytes32[]",
              "internalType": "bytes32[]"
            },
            {
              "name": "chainIndex",
              "type": "uint256",
              "internalType": "uint256"
            },
            {
              "name": "notarizedChainId",
              "type": "uint256",
              "internalType": "uint256"
            },
            {
              "name": "claims",
              "type": "tuple[]",
              "internalType": "struct SplitBatchClaimComponent[]",
              "components": [
                {
                  "name": "id",
                  "type": "uint256",
                  "internalType": "uint256"
                },
                {
                  "name": "allocatedAmount",
                  "type": "uint256",
                  "internalType": "uint256"
                },
                {
                  "name": "portions",
                  "type": "tuple[]",
                  "internalType": "struct SplitComponent[]",
                  "components": [
                    {
                      "name": "claimant",
                      "type": "address",
                      "internalType": "address"
                    },
                    {
                      "name": "amount",
                      "type": "uint256",
                      "internalType": "uint256"
                    }
                  ]
                }
              ]
            }
          ]
        }
      ],
      "outputs": [
        {
          "name": "",
          "type": "bool",
          "internalType": "bool"
        }
      ],
      "stateMutability": "nonpayable"
    },
    {
      "type": "function",
      "name": "claimAndWithdraw",
      "inputs": [
        {
          "name": "claimPayload",
          "type": "tuple",
          "internalType": "struct ExogenousSplitMultichainClaim",
          "components": [
            {
              "name": "allocatorSignature",
              "type": "bytes",
              "internalType": "bytes"
            },
            {
              "name": "sponsorSignature",
              "type": "bytes",
              "internalType": "bytes"
            },
            {
              "name": "sponsor",
              "type": "address",
              "internalType": "address"
            },
            {
              "name": "nonce",
              "type": "uint256",
              "internalType": "uint256"
            },
            {
              "name": "expires",
              "type": "uint256",
              "internalType": "uint256"
            },
            {
              "name": "additionalChains",
              "type": "bytes32[]",
              "internalType": "bytes32[]"
            },
            {
              "name": "chainIndex",
              "type": "uint256",
              "internalType": "uint256"
            },
            {
              "name": "notarizedChainId",
              "type": "uint256",
              "internalType": "uint256"
            },
            {
              "name": "id",
              "type": "uint256",
              "internalType": "uint256"
            },
            {
              "name": "allocatedAmount",
              "type": "uint256",
              "internalType": "uint256"
            },
            {
              "name": "claimants",
              "type": "tuple[]",
              "internalType": "struct SplitComponent[]",
              "components": [
                {
                  "name": "claimant",
                  "type": "address",
                  "internalType": "address"
                },
                {
                  "name": "amount",
                  "type": "uint256",
                  "internalType": "uint256"
                }
              ]
            }
          ]
        }
      ],
      "outputs": [
        {
          "name": "",
          "type": "bool",
          "internalType": "bool"
        }
      ],
      "stateMutability": "nonpayable"
    },
    {
      "type": "function",
      "name": "claimAndWithdraw",
      "inputs": [
        {
          "name": "claimPayload",
          "type": "tuple",
          "internalType": "struct QualifiedSplitMultichainClaim",
          "components": [
            {
              "name": "allocatorSignature",
              "type": "bytes",
              "internalType": "bytes"
            },
            {
              "name": "sponsorSignature",
              "type": "bytes",
              "internalType": "bytes"
            },
            {
              "name": "sponsor",
              "type": "address",
              "internalType": "address"
            },
            {
              "name": "nonce",
              "type": "uint256",
              "internalType": "uint256"
            },
            {
              "name": "expires",
              "type": "uint256",
              "internalType": "uint256"
            },
            {
              "name": "qualificationTypehash",
              "type": "bytes32",
              "internalType": "bytes32"
            },
            {
              "name": "qualificationPayload",
              "type": "bytes",
              "internalType": "bytes"
            },
            {
              "name": "additionalChains",
              "type": "bytes32[]",
              "internalType": "bytes32[]"
            },
            {
              "name": "id",
              "type": "uint256",
              "internalType": "uint256"
            },
            {
              "name": "allocatedAmount",
              "type": "uint256",
              "internalType": "uint256"
            },
            {
              "name": "claimants",
              "type": "tuple[]",
              "internalType": "struct SplitComponent[]",
              "components": [
                {
                  "name": "claimant",
                  "type": "address",
                  "internalType": "address"
                },
                {
                  "name": "amount",
                  "type": "uint256",
                  "internalType": "uint256"
                }
              ]
            }
          ]
        }
      ],
      "outputs": [
        {
          "name": "",
          "type": "bool",
          "internalType": "bool"
        }
      ],
      "stateMutability": "nonpayable"
    },
    {
      "type": "function",
      "name": "claimAndWithdraw",
      "inputs": [
        {
          "name": "claimPayload",
          "type": "tuple",
          "internalType": "struct ExogenousQualifiedMultichainClaim",
          "components": [
            {
              "name": "allocatorSignature",
              "type": "bytes",
              "internalType": "bytes"
            },
            {
              "name": "sponsorSignature",
              "type": "bytes",
              "internalType": "bytes"
            },
            {
              "name": "sponsor",
              "type": "address",
              "internalType": "address"
            },
            {
              "name": "nonce",
              "type": "uint256",
              "internalType": "uint256"
            },
            {
              "name": "expires",
              "type": "uint256",
              "internalType": "uint256"
            },
            {
              "name": "qualificationTypehash",
              "type": "bytes32",
              "internalType": "bytes32"
            },
            {
              "name": "qualificationPayload",
              "type": "bytes",
              "internalType": "bytes"
            },
            {
              "name": "additionalChains",
              "type": "bytes32[]",
              "internalType": "bytes32[]"
            },
            {
              "name": "chainIndex",
              "type": "uint256",
              "internalType": "uint256"
            },
            {
              "name": "notarizedChainId",
              "type": "uint256",
              "internalType": "uint256"
            },
            {
              "name": "id",
              "type": "uint256",
              "internalType": "uint256"
            },
            {
              "name": "allocatedAmount",
              "type": "uint256",
              "internalType": "uint256"
            },
            {
              "name": "claimant",
              "type": "address",
              "internalType": "address"
            },
            {
              "name": "amount",
              "type": "uint256",
              "internalType": "uint256"
            }
          ]
        }
      ],
      "outputs": [
        {
          "name": "",
          "type": "bool",
          "internalType": "bool"
        }
      ],
      "stateMutability": "nonpayable"
    },
    {
      "type": "function",
      "name": "claimAndWithdraw",
      "inputs": [
        {
          "name": "claimPayload",
          "type": "tuple",
          "internalType": "struct ExogenousBatchMultichainClaimWithWitness",
          "components": [
            {
              "name": "allocatorSignature",
              "type": "bytes",
              "internalType": "bytes"
            },
            {
              "name": "sponsorSignature",
              "type": "bytes",
              "internalType": "bytes"
            },
            {
              "name": "sponsor",
              "type": "address",
              "internalType": "address"
            },
            {
              "name": "nonce",
              "type": "uint256",
              "internalType": "uint256"
            },
            {
              "name": "expires",
              "type": "uint256",
              "internalType": "uint256"
            },
            {
              "name": "witness",
              "type": "bytes32",
              "internalType": "bytes32"
            },
            {
              "name": "witnessTypestring",
              "type": "string",
              "internalType": "string"
            },
            {
              "name": "additionalChains",
              "type": "bytes32[]",
              "internalType": "bytes32[]"
            },
            {
              "name": "chainIndex",
              "type": "uint256",
              "internalType": "uint256"
            },
            {
              "name": "notarizedChainId",
              "type": "uint256",
              "internalType": "uint256"
            },
            {
              "name": "claims",
              "type": "tuple[]",
              "internalType": "struct BatchClaimComponent[]",
              "components": [
                {
                  "name": "id",
                  "type": "uint256",
                  "internalType": "uint256"
                },
                {
                  "name": "allocatedAmount",
                  "type": "uint256",
                  "internalType": "uint256"
                },
                {
                  "name": "amount",
                  "type": "uint256",
                  "internalType": "uint256"
                }
              ]
            },
            {
              "name": "claimant",
              "type": "address",
              "internalType": "address"
            }
          ]
        }
      ],
      "outputs": [
        {
          "name": "",
          "type": "bool",
          "internalType": "bool"
        }
      ],
      "stateMutability": "nonpayable"
    },
    {
      "type": "function",
      "name": "claimAndWithdraw",
      "inputs": [
        {
          "name": "claimPayload",
          "type": "tuple",
          "internalType": "struct QualifiedMultichainClaim",
          "components": [
            {
              "name": "allocatorSignature",
              "type": "bytes",
              "internalType": "bytes"
            },
            {
              "name": "sponsorSignature",
              "type": "bytes",
              "internalType": "bytes"
            },
            {
              "name": "sponsor",
              "type": "address",
              "internalType": "address"
            },
            {
              "name": "nonce",
              "type": "uint256",
              "internalType": "uint256"
            },
            {
              "name": "expires",
              "type": "uint256",
              "internalType": "uint256"
            },
            {
              "name": "qualificationTypehash",
              "type": "bytes32",
              "internalType": "bytes32"
            },
            {
              "name": "qualificationPayload",
              "type": "bytes",
              "internalType": "bytes"
            },
            {
              "name": "additionalChains",
              "type": "bytes32[]",
              "internalType": "bytes32[]"
            },
            {
              "name": "id",
              "type": "uint256",
              "internalType": "uint256"
            },
            {
              "name": "allocatedAmount",
              "type": "uint256",
              "internalType": "uint256"
            },
            {
              "name": "claimant",
              "type": "address",
              "internalType": "address"
            },
            {
              "name": "amount",
              "type": "uint256",
              "internalType": "uint256"
            }
          ]
        }
      ],
      "outputs": [
        {
          "name": "",
          "type": "bool",
          "internalType": "bool"
        }
      ],
      "stateMutability": "nonpayable"
    },
    {
      "type": "function",
      "name": "claimAndWithdraw",
      "inputs": [
        {
          "name": "claimPayload",
          "type": "tuple",
          "internalType": "struct SplitBatchClaimWithWitness",
          "components": [
            {
              "name": "allocatorSignature",
              "type": "bytes",
              "internalType": "bytes"
            },
            {
              "name": "sponsorSignature",
              "type": "bytes",
              "internalType": "bytes"
            },
            {
              "name": "sponsor",
              "type": "address",
              "internalType": "address"
            },
            {
              "name": "nonce",
              "type": "uint256",
              "internalType": "uint256"
            },
            {
              "name": "expires",
              "type": "uint256",
              "internalType": "uint256"
            },
            {
              "name": "witness",
              "type": "bytes32",
              "internalType": "bytes32"
            },
            {
              "name": "witnessTypestring",
              "type": "string",
              "internalType": "string"
            },
            {
              "name": "claims",
              "type": "tuple[]",
              "internalType": "struct SplitBatchClaimComponent[]",
              "components": [
                {
                  "name": "id",
                  "type": "uint256",
                  "internalType": "uint256"
                },
                {
                  "name": "allocatedAmount",
                  "type": "uint256",
                  "internalType": "uint256"
                },
                {
                  "name": "portions",
                  "type": "tuple[]",
                  "internalType": "struct SplitComponent[]",
                  "components": [
                    {
                      "name": "claimant",
                      "type": "address",
                      "internalType": "address"
                    },
                    {
                      "name": "amount",
                      "type": "uint256",
                      "internalType": "uint256"
                    }
                  ]
                }
              ]
            }
          ]
        }
      ],
      "outputs": [
        {
          "name": "",
          "type": "bool",
          "internalType": "bool"
        }
      ],
      "stateMutability": "nonpayable"
    },
    {
      "type": "function",
      "name": "claimAndWithdraw",
      "inputs": [
        {
          "name": "claimPayload",
          "type": "tuple",
          "internalType": "struct QualifiedBatchClaim",
          "components": [
            {
              "name": "allocatorSignature",
              "type": "bytes",
              "internalType": "bytes"
            },
            {
              "name": "sponsorSignature",
              "type": "bytes",
              "internalType": "bytes"
            },
            {
              "name": "sponsor",
              "type": "address",
              "internalType": "address"
            },
            {
              "name": "nonce",
              "type": "uint256",
              "internalType": "uint256"
            },
            {
              "name": "expires",
              "type": "uint256",
              "internalType": "uint256"
            },
            {
              "name": "qualificationTypehash",
              "type": "bytes32",
              "internalType": "bytes32"
            },
            {
              "name": "qualificationPayload",
              "type": "bytes",
              "internalType": "bytes"
            },
            {
              "name": "claims",
              "type": "tuple[]",
              "internalType": "struct BatchClaimComponent[]",
              "components": [
                {
                  "name": "id",
                  "type": "uint256",
                  "internalType": "uint256"
                },
                {
                  "name": "allocatedAmount",
                  "type": "uint256",
                  "internalType": "uint256"
                },
                {
                  "name": "amount",
                  "type": "uint256",
                  "internalType": "uint256"
                }
              ]
            },
            {
              "name": "claimant",
              "type": "address",
              "internalType": "address"
            }
          ]
        }
      ],
      "outputs": [
        {
          "name": "",
          "type": "bool",
          "internalType": "bool"
        }
      ],
      "stateMutability": "nonpayable"
    },
    {
      "type": "function",
      "name": "claimAndWithdraw",
      "inputs": [
        {
          "name": "claimPayload",
          "type": "tuple",
          "internalType": "struct QualifiedSplitClaimWithWitness",
          "components": [
            {
              "name": "allocatorSignature",
              "type": "bytes",
              "internalType": "bytes"
            },
            {
              "name": "sponsorSignature",
              "type": "bytes",
              "internalType": "bytes"
            },
            {
              "name": "sponsor",
              "type": "address",
              "internalType": "address"
            },
            {
              "name": "nonce",
              "type": "uint256",
              "internalType": "uint256"
            },
            {
              "name": "expires",
              "type": "uint256",
              "internalType": "uint256"
            },
            {
              "name": "witness",
              "type": "bytes32",
              "internalType": "bytes32"
            },
            {
              "name": "witnessTypestring",
              "type": "string",
              "internalType": "string"
            },
            {
              "name": "qualificationTypehash",
              "type": "bytes32",
              "internalType": "bytes32"
            },
            {
              "name": "qualificationPayload",
              "type": "bytes",
              "internalType": "bytes"
            },
            {
              "name": "id",
              "type": "uint256",
              "internalType": "uint256"
            },
            {
              "name": "allocatedAmount",
              "type": "uint256",
              "internalType": "uint256"
            },
            {
              "name": "claimants",
              "type": "tuple[]",
              "internalType": "struct SplitComponent[]",
              "components": [
                {
                  "name": "claimant",
                  "type": "address",
                  "internalType": "address"
                },
                {
                  "name": "amount",
                  "type": "uint256",
                  "internalType": "uint256"
                }
              ]
            }
          ]
        }
      ],
      "outputs": [
        {
          "name": "",
          "type": "bool",
          "internalType": "bool"
        }
      ],
      "stateMutability": "nonpayable"
    },
    {
      "type": "function",
      "name": "claimAndWithdraw",
      "inputs": [
        {
          "name": "claimPayload",
          "type": "tuple",
          "internalType": "struct ExogenousQualifiedBatchMultichainClaimWithWitness",
          "components": [
            {
              "name": "allocatorSignature",
              "type": "bytes",
              "internalType": "bytes"
            },
            {
              "name": "sponsorSignature",
              "type": "bytes",
              "internalType": "bytes"
            },
            {
              "name": "sponsor",
              "type": "address",
              "internalType": "address"
            },
            {
              "name": "nonce",
              "type": "uint256",
              "internalType": "uint256"
            },
            {
              "name": "expires",
              "type": "uint256",
              "internalType": "uint256"
            },
            {
              "name": "witness",
              "type": "bytes32",
              "internalType": "bytes32"
            },
            {
              "name": "witnessTypestring",
              "type": "string",
              "internalType": "string"
            },
            {
              "name": "qualificationTypehash",
              "type": "bytes32",
              "internalType": "bytes32"
            },
            {
              "name": "qualificationPayload",
              "type": "bytes",
              "internalType": "bytes"
            },
            {
              "name": "additionalChains",
              "type": "bytes32[]",
              "internalType": "bytes32[]"
            },
            {
              "name": "chainIndex",
              "type": "uint256",
              "internalType": "uint256"
            },
            {
              "name": "notarizedChainId",
              "type": "uint256",
              "internalType": "uint256"
            },
            {
              "name": "claims",
              "type": "tuple[]",
              "internalType": "struct BatchClaimComponent[]",
              "components": [
                {
                  "name": "id",
                  "type": "uint256",
                  "internalType": "uint256"
                },
                {
                  "name": "allocatedAmount",
                  "type": "uint256",
                  "internalType": "uint256"
                },
                {
                  "name": "amount",
                  "type": "uint256",
                  "internalType": "uint256"
                }
              ]
            },
            {
              "name": "claimant",
              "type": "address",
              "internalType": "address"
            }
          ]
        }
      ],
      "outputs": [
        {
          "name": "",
          "type": "bool",
          "internalType": "bool"
        }
      ],
      "stateMutability": "nonpayable"
    },
    {
      "type": "function",
      "name": "consume",
      "inputs": [
        {
          "name": "nonces",
          "type": "uint256[]",
          "internalType": "uint256[]"
        }
      ],
      "outputs": [
        {
          "name": "",
          "type": "bool",
          "internalType": "bool"
        }
      ],
      "stateMutability": "nonpayable"
    },
    {
      "type": "function",
      "name": "decimals",
      "inputs": [
        {
          "name": "id",
          "type": "uint256",
          "internalType": "uint256"
        }
      ],
      "outputs": [
        {
          "name": "",
          "type": "uint8",
          "internalType": "uint8"
        }
      ],
      "stateMutability": "view"
    },
    {
      "type": "function",
      "name": "deposit",
      "inputs": [
        {
          "name": "token",
          "type": "address",
          "internalType": "address"
        },
        {
          "name": "",
          "type": "uint256",
          "internalType": "uint256"
        },
        {
          "name": "",
          "type": "uint256",
          "internalType": "uint256"
        },
        {
          "name": "",
          "type": "uint256",
          "internalType": "uint256"
        },
        {
          "name": "",
          "type": "address",
          "internalType": "address"
        },
        {
          "name": "",
          "type": "address",
          "internalType": "address"
        },
        {
          "name": "",
          "type": "uint8",
          "internalType": "enum ResetPeriod"
        },
        {
          "name": "",
          "type": "uint8",
          "internalType": "enum Scope"
        },
        {
          "name": "recipient",
          "type": "address",
          "internalType": "address"
        },
        {
          "name": "signature",
          "type": "bytes",
          "internalType": "bytes"
        }
      ],
      "outputs": [
        {
          "name": "",
          "type": "uint256",
          "internalType": "uint256"
        }
      ],
      "stateMutability": "nonpayable"
    },
    {
      "type": "function",
      "name": "deposit",
      "inputs": [
        {
          "name": "allocator",
          "type": "address",
          "internalType": "address"
        },
        {
          "name": "resetPeriod",
          "type": "uint8",
          "internalType": "enum ResetPeriod"
        },
        {
          "name": "scope",
          "type": "uint8",
          "internalType": "enum Scope"
        },
        {
          "name": "recipient",
          "type": "address",
          "internalType": "address"
        }
      ],
      "outputs": [
        {
          "name": "",
          "type": "uint256",
          "internalType": "uint256"
        }
      ],
      "stateMutability": "payable"
    },
    {
      "type": "function",
      "name": "deposit",
      "inputs": [
        {
          "name": "token",
          "type": "address",
          "internalType": "address"
        },
        {
          "name": "allocator",
          "type": "address",
          "internalType": "address"
        },
        {
          "name": "resetPeriod",
          "type": "uint8",
          "internalType": "enum ResetPeriod"
        },
        {
          "name": "scope",
          "type": "uint8",
          "internalType": "enum Scope"
        },
        {
          "name": "amount",
          "type": "uint256",
          "internalType": "uint256"
        },
        {
          "name": "recipient",
          "type": "address",
          "internalType": "address"
        }
      ],
      "outputs": [
        {
          "name": "",
          "type": "uint256",
          "internalType": "uint256"
        }
      ],
      "stateMutability": "nonpayable"
    },
    {
      "type": "function",
      "name": "deposit",
      "inputs": [
        {
          "name": "token",
          "type": "address",
          "internalType": "address"
        },
        {
          "name": "allocator",
          "type": "address",
          "internalType": "address"
        },
        {
          "name": "amount",
          "type": "uint256",
          "internalType": "uint256"
        }
      ],
      "outputs": [
        {
          "name": "",
          "type": "uint256",
          "internalType": "uint256"
        }
      ],
      "stateMutability": "nonpayable"
    },
    {
      "type": "function",
      "name": "deposit",
      "inputs": [
        {
          "name": "",
          "type": "address",
          "internalType": "address"
        },
        {
          "name": "permitted",
          "type": "tuple[]",
          "internalType": "struct ISignatureTransfer.TokenPermissions[]",
          "components": [
            {
              "name": "token",
              "type": "address",
              "internalType": "address"
            },
            {
              "name": "amount",
              "type": "uint256",
              "internalType": "uint256"
            }
          ]
        },
        {
          "name": "",
          "type": "uint256",
          "internalType": "uint256"
        },
        {
          "name": "",
          "type": "uint256",
          "internalType": "uint256"
        },
        {
          "name": "",
          "type": "address",
          "internalType": "address"
        },
        {
          "name": "",
          "type": "uint8",
          "internalType": "enum ResetPeriod"
        },
        {
          "name": "",
          "type": "uint8",
          "internalType": "enum Scope"
        },
        {
          "name": "recipient",
          "type": "address",
          "internalType": "address"
        },
        {
          "name": "signature",
          "type": "bytes",
          "internalType": "bytes"
        }
      ],
      "outputs": [
        {
          "name": "",
          "type": "uint256[]",
          "internalType": "uint256[]"
        }
      ],
      "stateMutability": "payable"
    },
    {
      "type": "function",
      "name": "deposit",
      "inputs": [
        {
          "name": "idsAndAmounts",
          "type": "uint256[2][]",
          "internalType": "uint256[2][]"
        },
        {
          "name": "recipient",
          "type": "address",
          "internalType": "address"
        }
      ],
      "outputs": [
        {
          "name": "",
          "type": "bool",
          "internalType": "bool"
        }
      ],
      "stateMutability": "payable"
    },
    {
      "type": "function",
      "name": "deposit",
      "inputs": [
        {
          "name": "allocator",
          "type": "address",
          "internalType": "address"
        }
      ],
      "outputs": [
        {
          "name": "",
          "type": "uint256",
          "internalType": "uint256"
        }
      ],
      "stateMutability": "payable"
    },
    {
      "type": "function",
      "name": "depositAndRegister",
      "inputs": [
        {
          "name": "token",
          "type": "address",
          "internalType": "address"
        },
        {
          "name": "",
          "type": "uint256",
          "internalType": "uint256"
        },
        {
          "name": "",
          "type": "uint256",
          "internalType": "uint256"
        },
        {
          "name": "",
          "type": "uint256",
          "internalType": "uint256"
        },
        {
          "name": "depositor",
          "type": "address",
          "internalType": "address"
        },
        {
          "name": "",
          "type": "address",
          "internalType": "address"
        },
        {
          "name": "resetPeriod",
          "type": "uint8",
          "internalType": "enum ResetPeriod"
        },
        {
          "name": "",
          "type": "uint8",
          "internalType": "enum Scope"
        },
        {
          "name": "claimHash",
          "type": "bytes32",
          "internalType": "bytes32"
        },
        {
          "name": "compactCategory",
          "type": "uint8",
          "internalType": "enum CompactCategory"
        },
        {
          "name": "witness",
          "type": "string",
          "internalType": "string"
        },
        {
          "name": "signature",
          "type": "bytes",
          "internalType": "bytes"
        }
      ],
      "outputs": [
        {
          "name": "",
          "type": "uint256",
          "internalType": "uint256"
        }
      ],
      "stateMutability": "nonpayable"
    },
    {
      "type": "function",
      "name": "depositAndRegister",
      "inputs": [
        {
          "name": "idsAndAmounts",
          "type": "uint256[2][]",
          "internalType": "uint256[2][]"
        },
        {
          "name": "claimHashesAndTypehashes",
          "type": "bytes32[2][]",
          "internalType": "bytes32[2][]"
        },
        {
          "name": "duration",
          "type": "uint256",
          "internalType": "uint256"
        }
      ],
      "outputs": [
        {
          "name": "",
          "type": "bool",
          "internalType": "bool"
        }
      ],
      "stateMutability": "payable"
    },
    {
      "type": "function",
      "name": "depositAndRegister",
      "inputs": [
        {
          "name": "allocator",
          "type": "address",
          "internalType": "address"
        },
        {
          "name": "claimHash",
          "type": "bytes32",
          "internalType": "bytes32"
        },
        {
          "name": "typehash",
          "type": "bytes32",
          "internalType": "bytes32"
        }
      ],
      "outputs": [
        {
          "name": "id",
          "type": "uint256",
          "internalType": "uint256"
        }
      ],
      "stateMutability": "payable"
    },
    {
      "type": "function",
      "name": "depositAndRegister",
      "inputs": [
        {
          "name": "depositor",
          "type": "address",
          "internalType": "address"
        },
        {
          "name": "permitted",
          "type": "tuple[]",
          "internalType": "struct ISignatureTransfer.TokenPermissions[]",
          "components": [
            {
              "name": "token",
              "type": "address",
              "internalType": "address"
            },
            {
              "name": "amount",
              "type": "uint256",
              "internalType": "uint256"
            }
          ]
        },
        {
          "name": "",
          "type": "uint256",
          "internalType": "uint256"
        },
        {
          "name": "",
          "type": "uint256",
          "internalType": "uint256"
        },
        {
          "name": "",
          "type": "address",
          "internalType": "address"
        },
        {
          "name": "resetPeriod",
          "type": "uint8",
          "internalType": "enum ResetPeriod"
        },
        {
          "name": "",
          "type": "uint8",
          "internalType": "enum Scope"
        },
        {
          "name": "claimHash",
          "type": "bytes32",
          "internalType": "bytes32"
        },
        {
          "name": "compactCategory",
          "type": "uint8",
          "internalType": "enum CompactCategory"
        },
        {
          "name": "witness",
          "type": "string",
          "internalType": "string"
        },
        {
          "name": "signature",
          "type": "bytes",
          "internalType": "bytes"
        }
      ],
      "outputs": [
        {
          "name": "",
          "type": "uint256[]",
          "internalType": "uint256[]"
        }
      ],
      "stateMutability": "payable"
    },
    {
      "type": "function",
      "name": "depositAndRegister",
      "inputs": [
        {
          "name": "token",
          "type": "address",
          "internalType": "address"
        },
        {
          "name": "allocator",
          "type": "address",
          "internalType": "address"
        },
        {
          "name": "amount",
          "type": "uint256",
          "internalType": "uint256"
        },
        {
          "name": "claimHash",
          "type": "bytes32",
          "internalType": "bytes32"
        },
        {
          "name": "typehash",
          "type": "bytes32",
          "internalType": "bytes32"
        }
      ],
      "outputs": [
        {
          "name": "id",
          "type": "uint256",
          "internalType": "uint256"
        }
      ],
      "stateMutability": "nonpayable"
    },
    {
      "type": "function",
      "name": "disableForcedWithdrawal",
      "inputs": [
        {
          "name": "id",
          "type": "uint256",
          "internalType": "uint256"
        }
      ],
      "outputs": [
        {
          "name": "",
          "type": "bool",
          "internalType": "bool"
        }
      ],
      "stateMutability": "nonpayable"
    },
    {
      "type": "function",
      "name": "enableForcedWithdrawal",
      "inputs": [
        {
          "name": "id",
          "type": "uint256",
          "internalType": "uint256"
        }
      ],
      "outputs": [
        {
          "name": "",
          "type": "uint256",
          "internalType": "uint256"
        }
      ],
      "stateMutability": "nonpayable"
    },
    {
      "type": "function",
      "name": "extsload",
      "inputs": [
        {
          "name": "slot",
          "type": "bytes32",
          "internalType": "bytes32"
        }
      ],
      "outputs": [
        {
          "name": "",
          "type": "bytes32",
          "internalType": "bytes32"
        }
      ],
      "stateMutability": "view"
    },
    {
      "type": "function",
      "name": "extsload",
      "inputs": [
        {
          "name": "slots",
          "type": "bytes32[]",
          "internalType": "bytes32[]"
        }
      ],
      "outputs": [
        {
          "name": "",
          "type": "bytes32[]",
          "internalType": "bytes32[]"
        }
      ],
      "stateMutability": "view"
    },
    {
      "type": "function",
      "name": "exttload",
      "inputs": [
        {
          "name": "slot",
          "type": "bytes32",
          "internalType": "bytes32"
        }
      ],
      "outputs": [
        {
          "name": "",
          "type": "bytes32",
          "internalType": "bytes32"
        }
      ],
      "stateMutability": "view"
    },
    {
      "type": "function",
      "name": "forcedWithdrawal",
      "inputs": [
        {
          "name": "id",
          "type": "uint256",
          "internalType": "uint256"
        },
        {
          "name": "recipient",
          "type": "address",
          "internalType": "address"
        },
        {
          "name": "amount",
          "type": "uint256",
          "internalType": "uint256"
        }
      ],
      "outputs": [
        {
          "name": "",
          "type": "bool",
          "internalType": "bool"
        }
      ],
      "stateMutability": "nonpayable"
    },
    {
      "type": "function",
      "name": "getForcedWithdrawalStatus",
      "inputs": [
        {
          "name": "account",
          "type": "address",
          "internalType": "address"
        },
        {
          "name": "id",
          "type": "uint256",
          "internalType": "uint256"
        }
      ],
      "outputs": [
        {
          "name": "",
          "type": "uint8",
          "internalType": "enum ForcedWithdrawalStatus"
        },
        {
          "name": "",
          "type": "uint256",
          "internalType": "uint256"
        }
      ],
      "stateMutability": "view"
    },
    {
      "type": "function",
      "name": "getLockDetails",
      "inputs": [
        {
          "name": "id",
          "type": "uint256",
          "internalType": "uint256"
        }
      ],
      "outputs": [
        {
          "name": "",
          "type": "address",
          "internalType": "address"
        },
        {
          "name": "",
          "type": "address",
          "internalType": "address"
        },
        {
          "name": "",
          "type": "uint8",
          "internalType": "enum ResetPeriod"
        },
        {
          "name": "",
          "type": "uint8",
          "internalType": "enum Scope"
        }
      ],
      "stateMutability": "view"
    },
    {
      "type": "function",
      "name": "getRegistrationStatus",
      "inputs": [
        {
          "name": "sponsor",
          "type": "address",
          "internalType": "address"
        },
        {
          "name": "claimHash",
          "type": "bytes32",
          "internalType": "bytes32"
        },
        {
          "name": "typehash",
          "type": "bytes32",
          "internalType": "bytes32"
        }
      ],
      "outputs": [
        {
          "name": "isActive",
          "type": "bool",
          "internalType": "bool"
        },
        {
          "name": "expires",
          "type": "uint256",
          "internalType": "uint256"
        }
      ],
      "stateMutability": "view"
    },
    {
      "type": "function",
      "name": "hasConsumedAllocatorNonce",
      "inputs": [
        {
          "name": "nonce",
          "type": "uint256",
          "internalType": "uint256"
        },
        {
          "name": "allocator",
          "type": "address",
          "internalType": "address"
        }
      ],
      "outputs": [
        {
          "name": "",
          "type": "bool",
          "internalType": "bool"
        }
      ],
      "stateMutability": "view"
    },
    {
      "type": "function",
      "name": "isOperator",
      "inputs": [
        {
          "name": "owner",
          "type": "address",
          "internalType": "address"
        },
        {
          "name": "spender",
          "type": "address",
          "internalType": "address"
        }
      ],
      "outputs": [
        {
          "name": "status",
          "type": "bool",
          "internalType": "bool"
        }
      ],
      "stateMutability": "view"
    },
    {
      "type": "function",
      "name": "name",
      "inputs": [
        {
          "name": "id",
          "type": "uint256",
          "internalType": "uint256"
        }
      ],
      "outputs": [
        {
          "name": "",
          "type": "string",
          "internalType": "string"
        }
      ],
      "stateMutability": "view"
    },
    {
      "type": "function",
      "name": "name",
      "inputs": [],
      "outputs": [
        {
          "name": "",
          "type": "string",
          "internalType": "string"
        }
      ],
      "stateMutability": "pure"
    },
    {
      "type": "function",
      "name": "register",
      "inputs": [
        {
          "name": "claimHashesAndTypehashes",
          "type": "bytes32[2][]",
          "internalType": "bytes32[2][]"
        },
        {
          "name": "duration",
          "type": "uint256",
          "internalType": "uint256"
        }
      ],
      "outputs": [
        {
          "name": "",
          "type": "bool",
          "internalType": "bool"
        }
      ],
      "stateMutability": "nonpayable"
    },
    {
      "type": "function",
      "name": "register",
      "inputs": [
        {
          "name": "claimHash",
          "type": "bytes32",
          "internalType": "bytes32"
        },
        {
          "name": "typehash",
          "type": "bytes32",
          "internalType": "bytes32"
        },
        {
          "name": "duration",
          "type": "uint256",
          "internalType": "uint256"
        }
      ],
      "outputs": [
        {
          "name": "",
          "type": "bool",
          "internalType": "bool"
        }
      ],
      "stateMutability": "nonpayable"
    },
    {
      "type": "function",
      "name": "setOperator",
      "inputs": [
        {
          "name": "operator",
          "type": "address",
          "internalType": "address"
        },
        {
          "name": "approved",
          "type": "bool",
          "internalType": "bool"
        }
      ],
      "outputs": [
        {
          "name": "",
          "type": "bool",
          "internalType": "bool"
        }
      ],
      "stateMutability": "payable"
    },
    {
      "type": "function",
      "name": "supportsInterface",
      "inputs": [
        {
          "name": "interfaceId",
          "type": "bytes4",
          "internalType": "bytes4"
        }
      ],
      "outputs": [
        {
          "name": "result",
          "type": "bool",
          "internalType": "bool"
        }
      ],
      "stateMutability": "view"
    },
    {
      "type": "function",
      "name": "symbol",
      "inputs": [
        {
          "name": "id",
          "type": "uint256",
          "internalType": "uint256"
        }
      ],
      "outputs": [
        {
          "name": "",
          "type": "string",
          "internalType": "string"
        }
      ],
      "stateMutability": "view"
    },
    {
      "type": "function",
      "name": "tokenURI",
      "inputs": [
        {
          "name": "id",
          "type": "uint256",
          "internalType": "uint256"
        }
      ],
      "outputs": [
        {
          "name": "",
          "type": "string",
          "internalType": "string"
        }
      ],
      "stateMutability": "view"
    },
    {
      "type": "function",
      "name": "transfer",
      "inputs": [
        {
          "name": "to",
          "type": "address",
          "internalType": "address"
        },
        {
          "name": "id",
          "type": "uint256",
          "internalType": "uint256"
        },
        {
          "name": "amount",
          "type": "uint256",
          "internalType": "uint256"
        }
      ],
      "outputs": [
        {
          "name": "",
          "type": "bool",
          "internalType": "bool"
        }
      ],
      "stateMutability": "payable"
    },
    {
      "type": "function",
      "name": "transferFrom",
      "inputs": [
        {
          "name": "from",
          "type": "address",
          "internalType": "address"
        },
        {
          "name": "to",
          "type": "address",
          "internalType": "address"
        },
        {
          "name": "id",
          "type": "uint256",
          "internalType": "uint256"
        },
        {
          "name": "amount",
          "type": "uint256",
          "internalType": "uint256"
        }
      ],
      "outputs": [
        {
          "name": "",
          "type": "bool",
          "internalType": "bool"
        }
      ],
      "stateMutability": "payable"
    },
    {
      "type": "event",
      "name": "AllocatorRegistered",
      "inputs": [
        {
          "name": "allocatorId",
          "type": "uint96",
          "indexed": false,
          "internalType": "uint96"
        },
        {
          "name": "allocator",
          "type": "address",
          "indexed": false,
          "internalType": "address"
        }
      ],
      "anonymous": false
    },
    {
      "type": "event",
      "name": "Approval",
      "inputs": [
        {
          "name": "owner",
          "type": "address",
          "indexed": true,
          "internalType": "address"
        },
        {
          "name": "spender",
          "type": "address",
          "indexed": true,
          "internalType": "address"
        },
        {
          "name": "id",
          "type": "uint256",
          "indexed": true,
          "internalType": "uint256"
        },
        {
          "name": "amount",
          "type": "uint256",
          "indexed": false,
          "internalType": "uint256"
        }
      ],
      "anonymous": false
    },
    {
      "type": "event",
      "name": "Claim",
      "inputs": [
        {
          "name": "sponsor",
          "type": "address",
          "indexed": true,
          "internalType": "address"
        },
        {
          "name": "allocator",
          "type": "address",
          "indexed": true,
          "internalType": "address"
        },
        {
          "name": "arbiter",
          "type": "address",
          "indexed": true,
          "internalType": "address"
        },
        {
          "name": "claimHash",
          "type": "bytes32",
          "indexed": false,
          "internalType": "bytes32"
        }
      ],
      "anonymous": false
    },
    {
      "type": "event",
      "name": "CompactRegistered",
      "inputs": [
        {
          "name": "sponsor",
          "type": "address",
          "indexed": true,
          "internalType": "address"
        },
        {
          "name": "claimHash",
          "type": "bytes32",
          "indexed": false,
          "internalType": "bytes32"
        },
        {
          "name": "typehash",
          "type": "bytes32",
          "indexed": false,
          "internalType": "bytes32"
        },
        {
          "name": "expires",
          "type": "uint256",
          "indexed": false,
          "internalType": "uint256"
        }
      ],
      "anonymous": false
    },
    {
      "type": "event",
      "name": "ForcedWithdrawalStatusUpdated",
      "inputs": [
        {
          "name": "account",
          "type": "address",
          "indexed": true,
          "internalType": "address"
        },
        {
          "name": "id",
          "type": "uint256",
          "indexed": true,
          "internalType": "uint256"
        },
        {
          "name": "activating",
          "type": "bool",
          "indexed": false,
          "internalType": "bool"
        },
        {
          "name": "withdrawableAt",
          "type": "uint256",
          "indexed": false,
          "internalType": "uint256"
        }
      ],
      "anonymous": false
    },
    {
      "type": "event",
      "name": "OperatorSet",
      "inputs": [
        {
          "name": "owner",
          "type": "address",
          "indexed": true,
          "internalType": "address"
        },
        {
          "name": "operator",
          "type": "address",
          "indexed": true,
          "internalType": "address"
        },
        {
          "name": "approved",
          "type": "bool",
          "indexed": false,
          "internalType": "bool"
        }
      ],
      "anonymous": false
    },
    {
      "type": "event",
      "name": "Transfer",
      "inputs": [
        {
          "name": "by",
          "type": "address",
          "indexed": false,
          "internalType": "address"
        },
        {
          "name": "from",
          "type": "address",
          "indexed": true,
          "internalType": "address"
        },
        {
          "name": "to",
          "type": "address",
          "indexed": true,
          "internalType": "address"
        },
        {
          "name": "id",
          "type": "uint256",
          "indexed": true,
          "internalType": "uint256"
        },
        {
          "name": "amount",
          "type": "uint256",
          "indexed": false,
          "internalType": "uint256"
        }
      ],
      "anonymous": false
    },
    {
      "type": "error",
      "name": "AllocatedAmountExceeded",
      "inputs": [
        {
          "name": "allocatedAmount",
          "type": "uint256",
          "internalType": "uint256"
        },
        {
          "name": "providedAmount",
          "type": "uint256",
          "internalType": "uint256"
        }
      ]
    },
    {
      "type": "error",
      "name": "BalanceOverflow",
      "inputs": []
    },
    {
      "type": "error",
      "name": "Expired",
      "inputs": [
        {
          "name": "expiration",
          "type": "uint256",
          "internalType": "uint256"
        }
      ]
    },
    {
      "type": "error",
      "name": "ForcedWithdrawalAlreadyDisabled",
      "inputs": [
        {
          "name": "account",
          "type": "address",
          "internalType": "address"
        },
        {
          "name": "id",
          "type": "uint256",
          "internalType": "uint256"
        }
      ]
    },
    {
      "type": "error",
      "name": "InsufficientBalance",
      "inputs": []
    },
    {
      "type": "error",
      "name": "InsufficientPermission",
      "inputs": []
    },
    {
      "type": "error",
      "name": "InvalidBatchAllocation",
      "inputs": []
    },
    {
      "type": "error",
      "name": "InvalidBatchDepositStructure",
      "inputs": []
    },
    {
      "type": "error",
      "name": "InvalidDepositBalanceChange",
      "inputs": []
    },
    {
      "type": "error",
      "name": "InvalidDepositTokenOrdering",
      "inputs": []
    },
    {
      "type": "error",
      "name": "InvalidRegistrationDuration",
      "inputs": [
        {
          "name": "duration",
          "type": "uint256",
          "internalType": "uint256"
        }
      ]
    },
    {
      "type": "error",
      "name": "InvalidRegistrationProof",
      "inputs": [
        {
          "name": "allocator",
          "type": "address",
          "internalType": "address"
        }
      ]
    },
    {
      "type": "error",
      "name": "InvalidScope",
      "inputs": [
        {
          "name": "id",
          "type": "uint256",
          "internalType": "uint256"
        }
      ]
    },
    {
      "type": "error",
      "name": "InvalidSignature",
      "inputs": []
    },
    {
      "type": "error",
      "name": "InvalidToken",
      "inputs": [
        {
          "name": "token",
          "type": "address",
          "internalType": "address"
        }
      ]
    },
    {
      "type": "error",
      "name": "OnlyDirectCalls",
      "inputs": []
    },
    {
      "type": "error",
      "name": "Permit2CallFailed",
      "inputs": []
    },
    {
      "type": "error",
      "name": "PrematureWithdrawal",
      "inputs": [
        {
          "name": "id",
          "type": "uint256",
          "internalType": "uint256"
        }
      ]
    },
    {
      "type": "error",
      "name": "ReentrantCall",
      "inputs": [
        {
          "name": "existingCaller",
          "type": "address",
          "internalType": "address"
        }
      ]
    },
    {
      "type": "error",
      "name": "TStoreAlreadyActivated",
      "inputs": []
    },
    {
      "type": "error",
      "name": "TStoreNotSupported",
      "inputs": []
    },
    {
      "type": "error",
      "name": "TloadTestContractDeploymentFailed",
      "inputs": []
    },
    {
      "type": "error",
      "name": "UnallocatedTransfer",
      "inputs": [
        {
          "name": "operator",
          "type": "address",
          "internalType": "address"
        },
        {
          "name": "from",
          "type": "address",
          "internalType": "address"
        },
        {
          "name": "to",
          "type": "address",
          "internalType": "address"
        },
        {
          "name": "id",
          "type": "uint256",
          "internalType": "uint256"
        },
        {
          "name": "amount",
          "type": "uint256",
          "internalType": "uint256"
        }
      ]
    }
  ],
  "bytecode": {
    "object": "0x6101a060405234610085576100126100a8565b604051615ff19081610248823960805181611cda015260a05181611caa015260c05181613a4c015260e051816139d301526101005181613bac015261012051816137eb015261014051816137ca0152610160518181816115170152818161252e015261315001526101805181614eb10152f35b5f80fd5b634e487b7160e01b5f52604160045260245ffd5b6040513d5f823e3d90fd5b696002601e613d5c3d52f35f52600a60165ff06001600160a01b03811615610238575f80808084600a5a04fa3d15610233573d6001600160401b0381116102195760405190601f8101601f19908116603f011682016001600160401b038111838210176102195760405281525f60203d92013e5b801561021e57600160c052600360e0526005610100525b60a05260805246610120526101c74660a090604051907f8b73c3c69bb8fe3d512ecc4cf759cc79239f7b179b0ffacaa9a75d522b39400f82527f5e6f7b4e1ac3d625bac418bc955510b3e054cb6cc23cc27885107f080180b29260208301527f044852b2a670ade5407e78fb2863c51de9fcb96542a07186fe3aeda6bb8a116d604083015260608201523060808201522090565b61014052604051613e2a8082016001600160401b03811183821017610219578291616239833903905ff0801561021457610160526e22d473030f116ddee9f6b43ac78ba33b151561018052565b61009d565b610089565b600260c052600460e052600661010052610133565b61011c565b632aea588760e01b5f5260045ffdfe6080806040526004361015610012575f80fd5b5f3560e01c908162ad800c1461312757508062fdd58e146130eb57806301ffc9a7146130a757806303417d721461309057806306659b7f1461307b57806306e8cc181461306657806306fdde031461303c57806308e600ee14613027578063095bcdb614612f4e5780630a133cf214612f395780630d57fec914612f245780630f5eeadf14612f0f578063107d4ee414612ec857806310d8267214612dff57806312a1e6ea14612dea57806312d4888514612d7a57806312f9d21e14612d6557806313589bfe14612d50578063138cd81914612d2a578063144bd5b514612cc85780631486590714612cb3578063176f405a14612c525780631b98b63f14612c3d5780631bb81a8114612c285780631d474b1414612c135780631e2eaeaf14612bf7578063200f0c4d14612b8f578063206620a114612b3f57806325d7776b14612b155780632737edb914612afe57806327c777a914612a815780632a9c4d0d146129515780632acd5dc31461293c5780632c4bbd17146129255780632e3ff2f7146128c15780632e4d55cc146128ac57806331bbae3e1461286e57806332e2a80314612859578063341056c5146128445780633644e5151461282a578063393c33e21461272f5780633f458a19146127185780633f47e662146126fc5780634073c0cc146126d9578063409b3a7e146126c4578063414fd914146126af578063418a23f51461269a578063426a849314612636578063440a0ec3146125ed57806344b97d78146125ba5780634ad5205e146125a35780634c1024161461258c5780634d585fbf146125755780634e41a1fb146125015780634e55a548146124ea578063507cb46f1461249057806353e5006714612350578063548439e114612339578063558a7297146122c4578063577cdc64146122ad5780635920212814612296578063598af9e7146122605780635ac2ccf1146122495780635b15bfd9146121dd5780635b6016ec146121765780635d76a382146121615780635e6c91ff1461214c57806362a420bb1461211557806363f5b1ad146120d8578063648705561461209a578063671b3bd61461202a5780636a9a4c4414611f895780636af2791b14611f745780637003019014611f125780637112406d14611dc857806371f5012714611db1578063721f629214611d765780637423eb3c14611c9157806376d531d414611c7c5780638340f54914611c41578063843719f014611bf15780638678555914611bdc57806388d247c414611bc557806388da84d414611bae57806389ce066114611b59578063935ed2ba14611b1e5780639730f4fd14611b07578063996d3aac14611adc57806399cf8b9b146119e85780639be5f537146119d1578063a23941471461191c578063a4c7bd93146118e2578063aa41c87e14611895578063aa8b845d14611863578063b20abc481461184e578063b24849b714611824578063b3244389146117ee578063b4039fc2146117c1578063b54baefd1461178c578063b602ae021461174a578063b6363cf214611705578063b7ace047146116c0578063b8a5bbad14611682578063bc95bd7a14611637578063c4d195e8146115f0578063c8091041146115b4578063c87b56dd14611432578063ca6cc39f146113e5578063d204f11e1461139a578063d2a1805f14611379578063d34ddc8214611362578063d350188c1461134d578063d3917f3c146112ff578063d921f36a146112b8578063da15ee7f1461112f578063da2f268b146110e6578063db04bc72146110d1578063dbd035ff14611059578063dd589cfc14610fdc578063e0565c4914610f8e578063e05c6e7d14610f41578063e6c5b65414610ee6578063e8672f9314610ed1578063ea14532e14610e6a578063eaa6748314610e33578063eb19600814610df9578063eb35a6d214610d89578063eb43182114610d4d578063ebcbd7b514610cf6578063ecaca40e14610c8d578063eea77a7814610c18578063eed634ad14610c03578063eed9357214610bb8578063f135baaa14610b9c578063f23d923d14610b2e578063f2f0def114610ae9578063f340fa0114610ab8578063f44a345214610a5a578063f745381c14610a24578063f95d3d16146109ea578063fa1c55001461098a578063fb75fb6914610924578063fcfe431a146108c1578063fdc060e7146107d75763fe99049a14610655575f80fd5b60803660031901126107d3576106696131bd565b6106716131ff565b6044359160643561068d60016001605c1b038560a01c16614862565b9260018060a01b0383169260018060a01b038216945f60208160a460405194828052601c8601948591631a808f91885233868901528b60408901528c60608901528d60808901528a60a08901525af15f5163e57f706f60e01b016107b85750505067edcaa89a82293940603452602852336014526034602020541561077f575b84601452604060142080548084116107725783900390556028528360145260406014208054908282019182106107655755335f526020525f516020615f655f395f51905f5260405fa45f603452602060405160018152f35b6389560ca15f526004601cfd5b63f4d678b85f526004601cfd5b845f5260545f20805460018101610798575b505061070d565b8084116107ab5783900390555f80610791565b63deda90305f526004601cfd5b3d1517156107cb5763014c931060a49252fd5b3d5f803e3d5ffd5b5f80fd5b346107d3576107e536613408565b608081015f806107f5838561377f565b905f915b80831061089c5750505061088a576108796035928461087461087f9660e06040515f516020615fa55f395f51905f52815233602082015233604082015260208301976060898184013760c0820152209560608201359661086f61086760016001605c1b038a60a01c16614862565b809335613fcf565b614012565b61377f565b9061527d565b602060405160018152f35b634e487b715f5260116020526024601cfd5b90919260019060206108af8685876138cd565b013580960195861017930191906107f9565b346107d357602061091a601760356108d8366133d4565b6101806108f96108f36108ed83850185613c23565b90614bee565b83615c0a565b9290919361090b610160820135613c58565b926109146137c8565b95614d26565b6040519015158152f35b346107d357602061091a603461093936613249565b61095b61095361094d610100840184613898565b90614e53565b826030615651565b9061010061096b3615848461532d565b916109796001361517613cdd565b926109826137c8565b946021615e45565b346107d357602061091a603461099f3661327d565b6109bb6109b36108ed610100840184613c23565b826031615651565b906109c960e0820135613c58565b6101006109d96002361517613cdd565b926109e26137c8565b946026615e45565b346107d357602061091a60356109ff36613215565b610120610a10604036151783615bc9565b92919390610a1c6137c8565b946024615e45565b346107d357602061091a60176034610a3b3661333c565b610a4481615571565b90610100610a506137c8565b93361592806152df565b346107d357602061091a6035610a6f36613249565b610a8a610a826108ed60e0840184613c23565b82602b615651565b9060e0610a993615848461532d565b91610aa76001361517613cdd565b92610ab06137c8565b94601f615e45565b60203660031901126107d3576020610ad6610ad16131bd565b614320565b610ae134823361437c565b604051908152f35b346107d357602061091a60176035610b00366133a0565b610b19610b1361094d60e0840184613898565b82615834565b9060e0610b246137c8565b93361592806151a7565b346107d357602061091a6035610b4336613215565b3615610100610b73610b6b60408417859060e0910160c08101355f52013560205260405f2090565b846030615651565b92610b8b6002610b8485878561532d565b9417613cdd565b92610b946137c8565b946023615e45565b346107d35760203660031901126107d3576004355c5f5260205ff35b346107d357602061091a6035610bcd36613215565b610be7610be16108ed610140840184613c23565b82615b8a565b9091610140610bfa610120830135613c58565b916109e26137c8565b346107d357602061091a6034610bcd36613215565b346107d357602061091a6035610c2d366133d4565b361590610c5b610c5360808417839060e0910160c08101355f52013560205260405f2090565b826032615651565b91610140610c6a82858561532d565b92610c7e6002610b84610120840135613c58565b93610c876137c8565b95614239565b346107d35760a03660031901126107d3576020610ca86131bd565b610cd9610cc4610cb66131ff565b610cbf846148dc565b6142e2565b91610ccd6139d1565b8260443591339061487c565b610ce1613baa565b610ae1610258361517608435606435336141b4565b346107d357602061091a6034610d0b366134d1565b610180610d326108f360c0361517849060e0910160c08101355f52013560205260405f2090565b92909193610d44610160820135613c58565b92610c876137c8565b346107d357602061091a6034610d623661327d565b610120610d7d610d7761094d83850185613898565b83615baa565b929193906109826137c8565b346107d35760203660031901126107d3576020600435610ae162ffffff77278d00094890015180000f3c00025800003c00000f000001601860078560fc1c16021c1642018281610df38195339190604051926014526341d0e04b5f526034526038601c2091604052565b556148f6565b346107d357602061091a6035610e0e3661333c565b610100610e1a826155cc565b919092610e2a6002361517613cdd565b92610a1c6137c8565b346107d357602061091a6034610e48366133a0565b610e5b610a8261094d60e0840184613898565b9060e061096b3615848461532d565b346107d357602061091a60176034610e813661333c565b610e95610c5361094d610140840184613898565b90610ea23615838361532d565b90610140610eb4610120830135613c58565b91610ec26002361517613cdd565b93610ecb6137c8565b956151a7565b346107d357602061091a60346109ff36613215565b346107d357602061091a6034610efb3661327d565b610f20610f188260e09060c08101355f52013560205260405f2090565b82602f615651565b90361560c0610f3160028317613cdd565b92610f3a6137c8565b9480614239565b346107d357602061091a6035610f563661333c565b610f5f81615250565b90610f6d60e0820135613c58565b610100610f7d6002361517613cdd565b92610f866137c8565b946025615e45565b346107d357602061091a6034610fa336613215565b6101003615610fd1610fcb60408317859060e0910160c08101355f52013560205260405f2090565b84615b66565b929093610f3a6137c8565b346107d357602061091a610fef3661343b565b6040515f516020615fa55f395f51905f528152338482015233604082015261103f8260e0868201936080856060830137209260608201359361086f61086760016001605c1b038760a01c16614862565b608061104d60a084016137b4565b92013591336034615c31565b346107d35760203660031901126107d3576004356001600160401b0381116107d357611089903690600401613370565b6040519160408360208152836020820152019160051b8301916020806040850193925b83355481520191019084838210156110c85750602080916110ac565b60408186030190f35b346107d357602061091a6034610a6f36613249565b346107d35760403660031901126107d35760206004356111046131ff565b906040519183526303f37b1a600c52806040526001603760282054918360405260ff161b1615158152f35b6101603660031901126107d3576111446131bd565b6024356001600160401b0381116107d35761116390369060040161346e565b61116e9291926131d3565b5060a4359060088210156107d357600260c43510156107d35760e43591610104359460038610156107d357610124356001600160401b0381116107d3576111b990369060040161330f565b9661014435906001600160401b0382116107d357869588926111df90369060040161330f565b6111ed8584899e949e614984565b96819f939183839b949b0160051b90602001209561120b8b84614a8c565b83839992993615976001891792611221946143c6565b9f9091604051925f5260205260405260605f206080890152604052601f19916002811460061b90600114600b020190801515010160f301169060071b01610180019060c01761126f94613e72565b611279948a614b38565b60180277278d00094890015180000f3c00025800003c00000f000001901c62ffffff16916112a6936141b4565b6040516112b48192826135c0565b0390f35b346107d357602061091a601760356112cf366132db565b6101806112e46108f361094d83850185613898565b929091936112f6610160820135613c58565b92610ecb6137c8565b346107d357602061091a6035611314366133d4565b61014061134161133b6080361517849060e0910160c08101355f52013560205260405f2090565b83615bd9565b92919390610b946137c8565b346107d357602061091a6034610e0e3661333c565b346107d357602061091a60176034610b00366133a0565b346107d357602061091a603561138e366132db565b610140610a10826155f4565b346107d357602061091a601760346113b13661343b565b6113c4610a8261094d60a0840184613898565b90361560a06113d560018317613cdd565b926113de6137c8565b94806151a7565b346107d357602061091a60356113fa36613215565b61140381615250565b9061141160e0820135613c58565b6101006114216002361517613cdd565b9261142a6137c8565b946022615e45565b346107d35760203660031901126107d357604051600435608082016001600160401b038111838210176115a05760409081525f60208401818152918401818152606085019182526001600160a01b03848116865261149c60a086901c60016001605c1b0316614862565b16835260078460fc1c16600881101561158c5781528360ff1c90600282101561158c5790825260405163d637ca8d60e01b815294516001600160a01b03908116600487015292519092166024850152905161150b91906115009060448601906135a6565b5160648401906135b3565b60848201525f8160a4817f00000000000000000000000000000000000000000000000000000000000000006001600160a01b03165afa8015611581576112b4915f9161155f575b5060405191829182613193565b61157b91503d805f833e61157381836135f9565b810190613635565b82611552565b6040513d5f823e3d90fd5b634e487b7160e01b5f52602160045260245ffd5b634e487b7160e01b5f52604160045260245ffd5b60403660031901126107d3576004356001600160401b0381116107d3576115e261087f91369060040161346e565b6115ea6131ff565b916138dd565b346107d357602061091a601760356116073661327d565b61162161161b6108ed610100840184613c23565b82615b66565b9061010061162d6137c8565b9336159280614d26565b346107d357602061091a6017603561164e366133a0565b611661610f186108ed60c0840184613c23565b90361560c061167260028317613cdd565b9261167b6137c8565b9480614d26565b346107d357602061091a60176034611699366133a0565b6116a281615516565b90361560a06116b082613cdd565b926116b96137c8565b94806152df565b346107d357602061091a601760346116d736613249565b6116f4610f188260e09060c08101355f52013560205260405f2090565b90361560c06116b060028317613cdd565b346107d35760403660031901126107d35761171e6131bd565b6117266131ff565b9067edcaa89a822939406020526014525f5260206034600c20546040519015158152f35b346107d357602061091a603561175f36613249565b361561176d81836028615651565b9061177781613cdd565b916117806137c8565b9360a083179180614239565b346107d357602061091a601760346117a336613249565b6117b6610b136108ed60e0840184613c23565b9060e061162d6137c8565b346107d357602061091a60346117d63661327d565b60e06117e182615524565b919092610e2a3615613cdd565b346107d357602061091a603461180336613215565b61014061181861133b6108ed83850185613c23565b92919390610ab06137c8565b346107d357602061091a60346118393661333c565b610120611818610d776108ed83850185613c23565b346107d357602061091a60356118393661333c565b602061187c610ae1611874366132b1565b939091614320565b9261188834853361437c565b61025836151791336141b4565b346107d357602061091a60346118aa3661333c565b6118be610be161094d610140840184613898565b90916101406118d1610120830135613c58565b916118da6137c8565b946027615e45565b346107d357602061091a60346118f7366132db565b61190081615542565b9091610140611913610120830135613c58565b91610f866137c8565b346107d35761192a36613408565b608081015f8061193a838561377f565b905f915b8083106119ac5750505061088a576108796034928461087461087f9660e06040515f516020615fa55f395f51905f52815233602082015233604082015260208301976060898184013760c0820152209560608201359661086f61086760016001605c1b038a60a01c16614862565b90919260019060206119bf8685876138cd565b0135809601958610179301919061193e565b346107d357602061091a6017603461164e366133a0565b6101203660031901126107d3576119fd6131bd565b506024356001600160401b0381116107d357611a1d90369060040161346e565b611a256131d3565b50600860a43510156107d357600260c43510156107d35760e435916001600160a01b03831683036107d35761010435906001600160401b0382116107d3576112b493611aca611a7b611ad094369060040161330f565b959093611a89848383614984565b9592611ab660c09b9399929b361592611aa460848517613d1e565b611aae8d83614a8c565b949094613db8565b608084015260071b61022001921790613e72565b86614b38565b604051918291826135c0565b346107d357602061091a60176034611af33661327d565b611afc81615774565b9060e0610a506137c8565b346107d357602061091a601760346116073661327d565b346107d357602061091a60176034611b3536613539565b611b48610f1861094d60c0840184613898565b90361560c06113d560028317613cdd565b346107d357602061091a6035611b6e366133d4565b611b92610be16080361517839060e0910160c08101355f52013560205260405f2090565b9091610140611ba5610120830135613c58565b9161142a6137c8565b346107d357602061091a60176035610e813661333c565b346107d357602061091a60176035611b3536613539565b346107d357602061091a603461175f36613249565b346107d357602061091a60176035611c08366132db565b611c118161559c565b9091610140611c24610120830135613c58565b91611c326002361517613cdd565b93611c3b6137c8565b956152df565b346107d3576020611c63611c74611c573661356c565b919390610cbf856148dc565b8093611c6d6139d1565b339061487c565b610ae1613baa565b346107d357602061091a6035610efb3661327d565b346107d3575f3660031901126107d357323303611d67577f00000000000000000000000000000000000000000000000000000000000000008015611d5c575b611d4d575f8080807f0000000000000000000000000000000000000000000000000000000000000000600a5a04fa3d15611d48573d611d0e8161361a565b90611d1c60405192836135f9565b81525f60203d92013e5b15611d39575f805460ff19166001179055005b6370a4078f60e01b5f5260045ffd5b611d26565b630f45b98b60e41b5f5260045ffd5b5060ff5f5416611cd0565b63096650c560e21b5f5260045ffd5b346107d357602061091a60176035611d8d36613539565b611da0610a826108ed60a0840184613c23565b90361560a061167260018317613cdd565b346107d357602061091a60176035611699366133a0565b346107d357611dd63661349e565b60608101611de48183613898565b8060069492941b81810460401482151715611efe57611e0290614bad565b935f915f5b818110611e955750505061088a57611e4d81611e2d856020611e52975191012082615373565b611e476039611e3c8785613898565b6020860135916140ed565b90614012565b613898565b5f5b818110611e6657602060405160018152f35b80611e8f6034611e796001948688614192565b611e86602082018261377f565b9091359161527d565b01611e54565b611ea0818385614192565b5f90611eaf602082018261377f565b905f915b808310611ed957505050906040839260019460061b8b0190356020820152015201611e07565b9091976001906020611eec8b85876138cd565b01358096019586101798019190611eb3565b634e487b7160e01b5f52601160045260245ffd5b346107d35760203660031901126107d357600435611f4981339190604051926014526341d0e04b5f526034526038601c2091604052565b805415611f5f57905f61087f92553615906148f6565b5063e632dbad5f52336020526040526044601cfd5b346107d357602061091a6034610c2d366133d4565b346107d3576080611f9936613408565b611fed611fe460608301611fde84611fc6611fb4848361377f565b6040519060061b809282372082615373565b611e47611fd3858461377f565b60208501359161406f565b8361377f565b939092016137b4565b905f5b83811061200257602060405160018152f35b8061202361201360019387866138cd565b6020810135903586336035615c31565b5001611ff0565b346107d35760c03660031901126107d3576120436131bd565b61204b6131ff565b906044359160088310156107d3576064359160028310156107d357612087611c74926020956120786131e9565b95612082856148dc565b61434b565b80936120916139d1565b6084359261487c565b346107d357602061091a601760356120b136613505565b6101806120bd82615626565b929091936120cf610160820135613c58565b92611c3b6137c8565b346107d357602061091a60346120ed3661333c565b361560e061210060408317846028615651565b92610b8b61210f84868461532d565b93613cdd565b346107d357602061091a6017603561212c36613249565b61214061161b61094d610100840184613898565b90610100610b246137c8565b346107d357602061091a6034611b6e366133d4565b346107d357602061091a60356118aa3661333c565b60603660031901126107d3576004356001600160401b0381116107d3576121a190369060040161346e565b602435906001600160401b0382116107d3576020926121d46121ca61091a94369060040161346e565b92909333916138dd565b60443591614159565b346107d35760203660031901126107d357608060043561224761220b60016001605c1b038360a01c16614862565b604080516001600160a01b038086168252909216602083015290929061223a90840160fc83901c6007166135a6565b606083019060ff1c6135b3565bf35b346107d357602061091a601760346108d8366133d4565b346107d35761226e3661356c565b9167edcaa89a822939406034526028526014525f52602060545f20545f603452604051908152f35b346107d357602061091a60176034611d8d36613539565b346107d357602061091a6017603461212c36613249565b60403660031901126107d3576122d86131bd565b602435908115158092036107d35767edcaa89a82293940602052336014525f52806034600c2055602052600c5160601c337fceb576d9f15e4e200fdb5096d64d5dfd667e16def20c1eefd14256d8e3faa267602080a3602060405160018152f35b346107d357602061091a601760356113b13661343b565b346107d3576101803660031901126107d35761236a6131bd565b6123726131d3565b9061237b6131e9565b5060c43560088110156107d357600260e43510156107d3576101043590610124359060038210156107d357610144356001600160401b0381116107d3576123c690369060040161330f565b94909261016435956001600160401b0387116107d35787966123ec90369060040161330f565b9890916123f885613d53565b839d93969297919436159b61240e938d936143c6565b9990604051905f52866020528b60405260605f20610100860152604052601f1961016085015161017f0116906101401761244794613e72565b61245093613eca565b60180277278d00094890015180000f3c00025800003c00000f000001901c62ffffff169161247d936141b4565b612485613baa565b604051908152602090f35b60803660031901126107d3576124a46131bd565b60243560088110156107d3576044359060028210156107d357606435916001600160a01b03831683036107d357602093610ae1926124e1926142b1565b9182349161437c565b346107d357602061091a601760356117a336613249565b346107d35760203660031901126107d357604051634e41a1fb60e01b815260048035908201525f816024817f00000000000000000000000000000000000000000000000000000000000000006001600160a01b03165afa8015611581576112b4915f9161155f575060405191829182613193565b346107d357602061091a601760346120b136613505565b346107d357602061091a60176034611c08366132db565b346107d357602061091a60176035611af33661327d565b346107d357602061091a60346125cf3661333c565b6125d881615774565b9060e06125e36137c8565b9336159280614239565b346107d3576040612627612600366132b1565b91605892601c926040519260148401526368a30dd083526034830152605482015201205490565b81519042811182526020820152f35b61263f366132b1565b909167edcaa89a8229394060345233602852601452815f528060545f20555f5260205160601c337fb3fd5071835887567a0671151121894ddccc2842f1d10bedad13e0d17cace9a760205fa45f603452602060405160018152f35b346107d357602061091a6035610d0b366134d1565b346107d357602061091a603461138e366132db565b346107d357602061091a6034610f563661333c565b346107d35760603660031901126107d35761087f604435602435600435336141b4565b346107d35760203660031901126107d357602060405160128152f35b346107d357602061091a60176035610a3b3661333c565b346107d35761273d3661349e565b6060810161274b8183613898565b8060069492941b81810460401482151715611efe5761276990614bad565b935f915f5b8181106127c15750505061088a57611e4d81611e2d856020612794975191012082615373565b5f5b8181106127a857602060405160018152f35b806127bb6035611e796001948688614192565b01612796565b6127cc818385614192565b5f906127db602082018261377f565b905f915b80831061280557505050906040839260019460061b8b019035602082015201520161276e565b90919760019060206128188b85876138cd565b013580960195861017980191906127df565b346107d3575f3660031901126107d3576020610ae16137c8565b346107d357602061091a60356118f7366132db565b346107d357602061091a60346113fa36613215565b346107d35760403660031901126107d3576004356001600160401b0381116107d35761091a6128a3602092369060040161346e565b60243591614159565b346107d357602061091a60356125cf3661333c565b346107d35760603660031901126107d3576004356128dd6131ff565b60408051336014526341d0e04b5f5260348490526038601c209152544281119015176129145761091a906020926044359133613697565b50639287bcb05f526020526024601cfd5b346107d357602061091a601760346112cf366132db565b346107d357602061091a603561099f3661327d565b346107d35760403660031901126107d35761296a6131bd565b6024356001600160401b0381116107d35761298990369060040161330f565b6001600160a01b03909216916055811491338414843b1515179183612a35575b50501715612a25576129ba81613ef9565b806744036fc77deaed23605c1b1791825480612a1157508060209355815f5282527fc54dcaa67a8fd7b4a9aa6fd57351934c792613d5ec1acbd65274270e6de8f7e460405fa16001600160601b0360405191168152f35b8263c18b0e975f526020526040526044601cfd5b634e7f492b5f526020526024601cfd5b809192935015612a6d57808260405137604051206001600160a01b031683146001600160f81b031991358216909114169083806129a9565b634e487b7160e01b5f52603260045260245ffd5b346107d357602061091a612a943661343b565b6040515f516020615fa55f395f51905f5281523384820152336040820152612ae48260e0868201936080856060830137209260608201359361086f61086760016001605c1b038760a01c16614862565b6080612af260a084016137b4565b92013591336035615c31565b346107d357602061091a601760356116d736613249565b346107d357602061091a6035612b2a3661333c565b610140610d7d61133b61094d83850185613898565b346107d357602061091a6035612b5436613249565b612b686109b361094d610100840184613898565b90612b7660e0820135613c58565b610100612b866002361517613cdd565b926118da6137c8565b346107d3576080612b9f36613408565b612bba611fe460608301611fde84611fc6611fb4848361377f565b905f5b838110612bcf57602060405160018152f35b80612bf0612be060019387866138cd565b6020810135903586336034615c31565b5001612bbd565b346107d35760203660031901126107d357600435545f5260205ff35b346107d357602061091a6034611314366133d4565b346107d357602061091a60356120ed3661333c565b346107d357602061091a6035610fa336613215565b346107d357602061091a60176034612c6936613215565b612c7d610c536108ed610140840184613c23565b90612c8a3615838361532d565b90610140612c9c610120830135613c58565b91612caa6002361517613cdd565b936109146137c8565b346107d357602061091a603561180336613215565b346107d35760403660031901126107d357612d06612ce46131bd565b602435909190604051926014526341d0e04b5f526034526038601c2091604052565b546040518115154283116002030291600383101561158c5760409282526020820152f35b346107d357602061091a6035612d3f366132db565b610120611341604036151783615bc9565b346107d357602061091a6035610e48366133a0565b346107d357602061091a6034610b4336613215565b346107d35760203660031901126107d3576004356001600160401b0381116107d357612daa903690600401613370565b90612dbc612db733613ef9565b613fa8565b809160051b01905b818110612dd657602060405160018152f35b602090612de4338235613fcf565b01612dc4565b346107d357602061091a6034612b2a3661333c565b346107d3576101403660031901126107d357612e196131bd565b612e216131d3565b50612e2a6131e9565b50600860c43510156107d357600260e43510156107d35761010435906001600160a01b03821682036107d357610124356001600160401b0381116107d357602092612ead92612e80611c7493369060040161330f565b929091612ec3361594612e9560a48717613d1e565b94612e9f84613d53565b9b839c9a939991929a613db8565b6101008201526101406102008317921790613e72565b613eca565b346107d357602061091a6034612edd3661327d565b612ef16109536108ed610100840184613c23565b90610100612f013615848461532d565b91610aa76002361517613cdd565b346107d357602061091a6035612edd3661327d565b346107d357602061091a6034612d3f366132db565b346107d357602061091a603561093936613249565b612f57366132b1565b612f6f60016001605c1b038360a09594951c16614862565b9160018060a01b038116925f60208160a460405194828052601c8601948591631a808f91885233868901523360408901528a60608901528b60808901528960a08901525af15f5163e57f706f60e01b016107b85750505067edcaa89a8229394060205233601452835f5260405f208054808411610772578390039055601452825f5260405f208054908282019182106107655755335f52602052335f516020615f655f395f51905f5260405fa4602060405160018152f35b346107d357602061091a6035610d623661327d565b346107d3575f3660031901126107d357602080526b0b54686520436f6d70616374604b5260606020f35b346107d357602061091a60356117d63661327d565b346107d357602061091a6034612b5436613249565b346107d357602061091a60176035612c6936613215565b346107d35760203660031901126107d3576004356001600160e01b0319811681036107d35760209060e01c604051906301ffc9a7630f632fb3821491141715158152f35b346107d35760403660031901126107d3576131046131bd565b67edcaa89a822939406020526014526024355f52602060405f2054604051908152f35b346107d35760203660031901126107d357622b600360e21b815260048035908201525f816024817f00000000000000000000000000000000000000000000000000000000000000006001600160a01b03165afa8015611581576112b4915f9161155f5750604051918291825b602060409281835280519182918282860152018484015e5f828201840152601f01601f1916010190565b600435906001600160a01b03821682036107d357565b608435906001600160a01b03821682036107d357565b60a435906001600160a01b03821682036107d357565b602435906001600160a01b03821682036107d357565b60206003198201126107d357600435906001600160401b0382116107d3576101809082900360031901126107d35760040190565b60206003198201126107d357600435906001600160401b0382116107d3576101209082900360031901126107d35760040190565b60206003198201126107d357600435906001600160401b0382116107d3576101409082900360031901126107d35760040190565b60609060031901126107d3576004356001600160a01b03811681036107d357906024359060443590565b60206003198201126107d357600435906001600160401b0382116107d3576101a09082900360031901126107d35760040190565b9181601f840112156107d3578235916001600160401b0383116107d357602083818601950101116107d357565b60206003198201126107d357600435906001600160401b0382116107d3576101609082900360031901126107d35760040190565b9181601f840112156107d3578235916001600160401b0383116107d3576020808501948460051b0101116107d357565b60206003198201126107d357600435906001600160401b0382116107d3576101009082900360031901126107d35760040190565b60206003198201126107d357600435906001600160401b0382116107d3576101c09082900360031901126107d35760040190565b60206003198201126107d357600435906001600160401b0382116107d35760a09082900360031901126107d35760040190565b60206003198201126107d357600435906001600160401b0382116107d35760c09082900360031901126107d35760040190565b9181601f840112156107d3578235916001600160401b0383116107d3576020808501948460061b0101116107d357565b60206003198201126107d357600435906001600160401b0382116107d35760809082900360031901126107d35760040190565b60206003198201126107d357600435906001600160401b0382116107d3576102009082900360031901126107d35760040190565b60206003198201126107d357600435906001600160401b0382116107d3576101e09082900360031901126107d35760040190565b60206003198201126107d357600435906001600160401b0382116107d35760e09082900360031901126107d35760040190565b60609060031901126107d3576004356001600160a01b03811681036107d357906024356001600160a01b03811681036107d3579060443590565b90600882101561158c5752565b90600282101561158c5752565b60206040818301928281528451809452019201905f5b8181106135e35750505090565b82518452602093840193909201916001016135d6565b90601f801991011681019081106001600160401b038211176115a057604052565b6001600160401b0381116115a057601f01601f191660200190565b6020818303126107d3578051906001600160401b0382116107d3570181601f820112156107d3578051906136688261361a565b9261367660405194856135f9565b828452602083830101116107d357815f9260208093018386015e8301015290565b909291926136a36139d1565b6001600160a01b0384168061372457505f9081808538935af115613717575b67edcaa89a8229394060205280601452825f5260405f209182549283821161077257815f9403905533835260205260018060a01b03165f516020615f655f395f51905f52604083a4613712613baa565b600190565b63b12d13eb5f526004601cfd5b9091926137313083613b85565b9260145260345263a9059cbb60601b5f5260205f6044601082855af13d1560015f51141716156137725761376a905f6034523090613b85565b9003906136c2565b6390b8ec185f526004601cfd5b903590601e19813603018212156107d357018035906001600160401b0382116107d357602001918160061b360383136107d357565b356001600160a01b03811681036107d35790565b7f00000000000000000000000000000000000000000000000000000000000000007f000000000000000000000000000000000000000000000000000000000000000046186138135790565b5060a06040517f8b73c3c69bb8fe3d512ecc4cf759cc79239f7b179b0ffacaa9a75d522b39400f81527f5e6f7b4e1ac3d625bac418bc955510b3e054cb6cc23cc27885107f080180b29260208201527f044852b2a670ade5407e78fb2863c51de9fcb96542a07186fe3aeda6bb8a116d60408201524660608201523060808201522090565b903590601e19813603018212156107d357018035906001600160401b0382116107d357602001918160051b360383136107d357565b9190811015612a6d5760061b0190565b91906138e76139d1565b82359060018060a01b03821615916020850135341415831634158414178215176139c4578060016001605c1b03849260a01c1661392381613fa8565b936139b2575b505b81811061394157505050505061393f613baa565b565b61394c8183876138cd565b80359060016001605c1b038260a01c166001600160601b0386168103613991575b506001929161398b916020013590876001600160a01b03821661487c565b0161392b565b61398b919550916020836139a760019695613fa8565b96925050919261396d565b6139be9034908661437c565b5f613929565b63ca0fc08e5f526004601cfd5b7f000000000000000000000000000000000000000000000000000000000000000080600414613b595780600314613b475780600914613b105780600a14613ad357600814613a2d57634e487b7160e01b5f52605160045260245ffd5b613a43361568929eee149b4bd212686028615651565b805b613ac357507f000000000000000000000000000000000000000000000000000000000000000080600214613a9c57600114613a8e57634e487b7160e01b5f52605160045260245ffd5b3368929eee149b4bd212685d565b505f5460ff1615613ab5573368929eee149b4bd212685d565b3368929eee149b4bd2126855565b63f57c448b5f526020526024601cfd5b5060e0604036151768929eee149b4bd212680160c08101355f520135602052613b0a60405f2068929eee149b4bd212686031615651565b80613a45565b5068929eee149b4bd21328355f90815268929eee149b4bd213483560205260409020613b0a9068929eee149b4bd21268602f615651565b5068929eee149b4bd212685c80613a45565b505f5460ff1615613b755768929eee149b4bd212685c80613a45565b68929eee149b4bd2126854613b0a565b602460106020939284936014526370a0823160601b5f525afa601f3d11166020510290565b7f000000000000000000000000000000000000000000000000000000000000000080600614613bfc57600514613bee57634e487b7160e01b5f52605160045260245ffd5b5f68929eee149b4bd212685d565b505f5460ff1615613c15575f68929eee149b4bd212685d565b5f68929eee149b4bd2126855565b903590601e19813603018212156107d357018035906001600160401b0382116107d3576020019160608202360383136107d357565b60a090604051907f8b73c3c69bb8fe3d512ecc4cf759cc79239f7b179b0ffacaa9a75d522b39400f82527f5e6f7b4e1ac3d625bac418bc955510b3e054cb6cc23cc27885107f080180b29260208301527f044852b2a670ade5407e78fb2863c51de9fcb96542a07186fe3aeda6bb8a116d604083015260608201523060808201522090565b90604051915f516020615fa55f395f51905f525f525f516020615fc55f395f51905f526020525f516020615f855f395f51905f5260405260051b5191604052565b60a0906080604051917fe055493563385cc588fffacbffe2dab023fef807baa449530431169b0eeb5b69835260208301372090565b90613d5c6139d1565b613d7c613d7460a43560c43560e435612082876148dc565b923090613b85565b906040519063137c29fe82526080600460208401373060a083015260243560c083015260843560e0830152610140610120830152610160820190565b60807f63697069656e7429546f6b656e5065726d697373696f6e73286164647265737391609681527f436f6d706163744465706f736974207769746e65737329436f6d70616374446560208201527f706f736974286164647265737320616c6c6f6361746f722c75696e743820726560408201527f736574506572696f642c75696e74382073636f70652c6164647265737320726560608201527520746f6b656e2c75696e7432353620616d6f756e742960968201520152565b9093805f9493601c92869582613e86614eaf565b9987015260408387018360208201520137016024019101826e22d473030f116ddee9f6b43ac78ba35af11615613eb857565b3d6107cb57637f28c61e5f526004601cfd5b613ed8909291923090613b85565b9283811015613eec5761393f93039161437c565b63426d8dcf5f526004601cfd5b6affffffffffffffffffffff6a7fffffffffffffffffffff8260491c16818360481c16178060021c178060041c178060081c178060101c178060201c176755555555555555558160011c169003673333333333333333808260021c169116018060041c01670f0f0f0f0f0f0f0f660f0f0f0f0f0f0f8260081c169116018060101c01911690690fedcba9876543210000600f60581b91607f600319918060201c0116604803161c60581b161790565b6744036fc77deaed23605c1b81175415613fbf5750565b63cf90c3a85f526020526024601cfd5b604051916020526303f37b1a600c5280604052603760282090600182549160ff161b9080821661400157179055604052565b63dbc205b160601b600c526044601cfd5b916140206040820135614f51565b803590601e19813603018212156107d35701918235926001600160401b0384116107d3576020019280360384136107d35761393f93614069916140616137c8565b918585614f6c565b336150bc565b90929183159161408185826038615aa0565b9161409561408e84614862565b8092613fcf565b946001600160601b0360019316905b8084106140c257505050506140b557565b633a03d3bb5f526004601cfd5b90919293600190836001600160601b036140df8886896038615b0a565b1614151794019291906140a4565b919093928415926140ff868284615aa0565b9261410c61408e85614862565b956001600160601b0360019416915b81851061412d5750505050506140b557565b9091929394600190846001600160601b0361414a8987878b615b0a565b1614151795019392919061411b565b91905f5b81811061416d5750505050600190565b8061418c8461417f60019486896138cd565b60208101359035336141b4565b0161415d565b9190811015612a6d5760051b81013590603e19813603018212156107d3570190565b91929092604051908360148301526368a30dd082526034820194855260548201526058601c8201208242019262278d00811182548510176142295750829055607401526001600160a01b0316907ff78a2f33ff80ef4391f7449c748dc2d577a62cd645108f4f4069f4a7e0635b6a90606090a2565b631f9a96f45f526020526024601cfd5b939195909497969286019586359560208801359760608101359861425d89876152bf565b89811061429c575091614299999a93916142939593604060018060a01b03910135169760016001605c1b038a60a01c1690614c4a565b90615c31565b90565b8990633078b2f65f526020526040526044601cfd5b90916142bc81613ef9565b6744036fc77deaed23605c1b811754909118613fbf5760a01b9160fc1b9060ff1b171790565b6142eb82613ef9565b6744036fc77deaed23605c1b81175490921861430f57600360fc1b9160a01b171790565b5063cf90c3a85f526020526024601cfd5b61432981613ef9565b6744036fc77deaed23605c1b811754909118613fbf5760a01b600360fc1b1790565b9261435581613ef9565b6744036fc77deaed23605c1b811754909118613fbf5760a01b9160fc1b9060ff1b17171790565b909167edcaa89a8229394060205281601452825f5260405f208054908282019182106107655755335f5260205260018060a01b03165f5f516020615f655f395f51905f52604082a4565b939194925f9160208601925f935f9515908161481f575b85156147ce575b505f92801561473a575b5f1981011561469b575b83156145e1575b8415614460575050508184959697823701946e75696e7432353620616d6f756e7429600e8701527f29546f6b656e5065726d697373696f6e73286164647265737320746f6b656e2c5f19870152600e81870301905280850390209303902090565b91985096935083919450600e925060051b936e75696e7432353620616d6f756e7429838201527f29546f6b656e5065726d697373696f6e73286164647265737320746f6b656e2c5f19820152030190526040519261456d575b83156144f9575b5f516020615fa55f395f51905f525f525f516020615fc55f395f51905f526020525f516020615f855f395f51905f526040525191604052565b7f45012d42fad8c9e937cff5a2d750ee18713dd45aadcd718660d5523056618d995f527fc2e16a823b8cdddfdf889991d7a461f0a19faf1f8e608f1c164495a52151cc3e6020527fd2f6ad391328936f118250f231e63c7e639f9756a9ebf972d81763870a772d87604052805193506144c0565b7f2bf981c42c7f423b06fa49ba996d2930887e2f1f53d9a26b8c7423ac1cf83e615f527fd14445d78213a5acddfa89171b0199de521c3b36738b835264cae18f5a53dbf36020527f329b3c527a3c74b8cabc51c304669d1866b87352cafdf440ef2becd6dc261d1e604052805193506144b9565b7f4d756c7469636861696e436f6d7061637420636f6d70616374294d756c74696387527f6861696e436f6d7061637428616464726573732073706f6e736f722c75696e7460208801527f323536206e6f6e63652c75696e7432353620657870697265732c5365676d656e60408801526f5d20696473416e64416d6f756e74732c60708801527f697465722c75696e7432353620636861696e49642c75696e743235365b325d5b6060880152601a87019660900193506143ff565b7f4261746368436f6d7061637420636f6d70616374294261746368436f6d70616387527f74286164647265737320617262697465722c616464726573732073706f6e736f60208801527a75696e743235365b325d5b5d20696473416e64416d6f756e74732c605b8801527f722c75696e74323536206e6f6e63652c75696e7432353620657870697265732c60408801526015870196607b0193506143f8565b7f436f6d7061637420636f6d7061637429436f6d7061637428616464726573732087527f617262697465722c616464726573732073706f6e736f722c75696e743235362060208801526f2c75696e7432353620616d6f756e742c60508801527f6e6f6e63652c75696e7432353620657870697265732c75696e743235362069646040880152601087019660700193506143ee565b7569766174696f6e2875696e743235365b5d206964732c60368a01527f426174636841637469766174696f6e207769746e65737329426174636841637490526056880195506038880194505f6143e4565b686e743235362069642c60298a01527f41637469766174696f6e207769746e6573732941637469766174696f6e28756981526049890196506033890195506143dd565b6744036fc77deaed23605c1b81175491908215613fbf5750565b91906148883084613b85565b9260405194606052306040523360601b602c526323b872dd60601b600c5260205f6064601c82855af13d1560015f51141716156148cf5761393f945f606052604052613eca565b637939f4245f526004601cfd5b8060601b156148e85790565b63961c9a4f6040526024605cfd5b908015155f52602052337fe27f5e0382cf5347965fc81d5c81cd141897fe9ce402d22c496b7c2ddc84e5fd60405fa3565b6001600160401b0381116115a05760051b60200190565b9061494882614927565b61495560405191826135f9565b8281528092614966601f1991614927565b0190602036910137565b8051821015612a6d5760209160051b010190565b919261498e6139d1565b6001600160a01b03833516159260208101353490811415851690158514178315176139c45783926149c660843560a43560c4356142b1565b956149d08261493e565b94614a6d575b50848103956149e48761493e565b925f925f5b898110614a0857505050506149fb5790565b630f2f1e515f526004601cfd5b80614a598a600193979596970194614a29614a2487878a6138cd565b6137b4565b90848060a01b0382166001600160601b0360a01b8a1617988911151797614a5181978d614970565b523090613b85565b614a638289614970565b52019291926149e9565b614a799087349161437c565b835115612a6d578560208501525f6149d6565b91604051918360061b8460071b9160061b6024350163fe8ec1a7855260c06020860152816101400160408601526004356060860152826101600160a0860152606060e0860152604435610100860152606435610120860152856101408601528160248201610160870137818501956101608701525f5b828110614b185750939450508301610180019150565b806040918801306101808201526101a06044838601013591015201614b02565b83515f96909594939290875b878110614b5f575050505050505050613eec5761393f613baa565b80614ba783600193019a614b818c614b7c614a2430928c8b6138cd565b613b85565b90614b9d614b8f858c614970565b519183831015179d89614970565b519103908a61437c565b01614b44565b90614bb78261361a565b614bc460405191826135f9565b8281528092614966601f199161361a565b9015612a6d5790565b9190811015612a6d576060020190565b8160061b82810460401483151715611efe57614c0990614bad565b915f5b818110614c20575050506020815191012090565b80614c2e6001928486614bde565b604060208360061b880192803582850152013591015201614c0c565b60408401356001600160a01b031697969095939486948994919387358801936020890135890192909183359190614c8460808c0135614f51565b614c8d90614862565b6060819b013590614c9d91613fcf565b86811502019181151587841415179081159b614cd49961393f9d614cf0575b505050614cda575b5050508582359260200191614f6c565b846150bc565b614ce8926020018c89614f6c565b5f8080614cc4565b614d1b9350605892601c926040519260148401526368a30dd083526034830152605482015201205490565b4210155f898e614cbc565b98979380959196614d6b939894890198893581019860208a81019a359b013597614d63614d538d8d614bd5565b3560a01c60016001605c1b031690565b9d8e91615e45565b90614d768686614bd5565b95614d9f6020614d93878a35809b6040810135948591013561535c565b83151798868686615c31565b506001600160601b0360019916985b818110614dc7575050505050505061371291925061536d565b614dd2818389614bde565b80359889918860408201359b8c926020013592614dee9361535c565b8c8360a01c60016001605c1b03161415171798614e0d91878787615c31565b50600101614dae565b9015612a6d57803590605e19813603018212156107d3570190565b9190811015612a6d5760051b81013590605e19813603018212156107d3570190565b8160061b82810460401483151715611efe57614e6e90614bad565b915f5b818110614e85575050506020815191012090565b80614e936001928486614e31565b604060208360061b880192803582850152013591015201614e71565b7f0000000000000000000000000000000000000000000000000000000000000000613712576e22d473030f116ddee9f6b43ac78ba33b151590565b60a092916040606092815194848601525f516020615f455f395f51905f5285528560208601933385524684880152608087208752820101358101803560051b80916020018537602001852060808601525f516020615f855f395f51905f5285520190372090565b42811115614f5c5750565b63f80dbaea5f526020526024601cfd5b604080516119015f9081526020979097529181526042601e20918152919390929091606483019083146001600160a01b0386166041851481614fc7575b5050505050505033141715614fba57565b638baa579f5f526004601cfd5b909192939495975060405192885f5261506c575b61502d575b60209495965f60605282604052630b135d3f60e11b83526004830152602482019586946040865281604485015260648401375afa9051630b135d3f60e11b1416905f808080808080614fa9565b60408401355f1a60205260408481376020600160805f825afa5181183d1517614fe0575094505050506001915f6060526040525f808080808080614fa9565b60208581013560ff81901c601b01825286356040526001600160ff1b0316606052600160805f825afa5182183d1517614fdb57505094505050506001915f6060526040525f808080808080614fa9565b5f91825233926001600160a01b03908116929116907f770c32a2314b700d6239ee35ba23a9690f2fceb93a55d8c753e953059b3b18d490602090a4565b6040519260608401525f516020615f455f395f51905f5283526020830191338352466040850152608084209082019060a082013583019060c0823560051b93013560051b5f905f5b85811061517857505050505091604060609260a09594602001852060808601525f516020615f855f395f51905f5285520190372090565b8089016020848301870101358152828214615197575b50602001615141565b602090810185905292508261518e565b949195849197966151d4948101358101988960200199359a6151cc614d538d8d614e16565b988991615e45565b8515956001600160601b035f9416935b8181106151fb57505050505050506137129061536d565b806152498761520d600194868c614e31565b80359b8c8a60016001605c1b036152248c846153b0565b9260a01c16141517179b87602061523e604085018561377f565b9190940135936153c6565b50016151e4565b614299906152756040361517829060e0910160c08101355f52013560205260405f2090565b906031615651565b9291905f5b818110615290575050505050565b806152b86152a160019385896138cd565b8560206152ad836137b4565b920135913389615c31565b5001615282565b8160ff1c15901517156152cf5750565b63a06356f55f526020526024601cfd5b95849061530e9399949692968a01998a3597889660408d013583019a60016001605c1b038960a01c1691615e45565b9561531f60209261429998946152bf565b0135928035906020016153c6565b60a0916040519382019160c0830135019081359384930135855260208501526020016040840137604001902090565b9261536791926153b0565b91101790565b6140b557565b60c09160408051925f516020615fc55f395f51905f5284523360208501523382850152602081013560608501520135608083015260a08201522090565b60ff1c600281101561158c576001149015151690565b91949290925f958415945f5b81811061540157505050505050828210176153ee575050600190565b633078b2f65f526020526040526044601cfd5b8061543460209a988761542d61541a600196888d6138cd565b9d8e0135928c84019c8d10179b9d6137b4565b8789615c31565b50016153d2565b906040519160c08101350191823580937f4d756c7469636861696e436f6d7061637428616464726573732073706f6e736f83527f722c75696e74323536206e6f6e63652c75696e7432353620657870697265732c60208401527f5365676d656e745b5d207365676d656e7473295365676d656e7428616464726560408401527535365b325d5b5d20696473416e64416d6f756e74732c60768401527f737320617262697465722c75696e7432353620636861696e49642c75696e74326060840152602001609683013782604301605382012092609601902090565b614299903615906028615651565b906142996155386040361517846028615651565b928336159161532d565b61556d906155676080361517829060e0910160c08101355f52013560205260405f2090565b90615b8a565b9091565b61556d906155966040361517829060e0910160c08101355f52013560205260405f2090565b90615b66565b906142996155386155c46080361517859060e0910160c08101355f52013560205260405f2090565b846032615651565b90614299615538610b6b6040361517859060e0910160c08101355f52013560205260405f2090565b61561f906156196080361517829060e0910160c08101355f52013560205260405f2090565b90615bd9565b9192909190565b61561f9061564b60c0361517829060e0910160c08101355f52013560205260405f2090565b90615c0a565b91909180603214615764578060311461575757806030146157475780602b146157165780602f1461570957806028146156c857806033146156b057602a146156a757634e487b7160e01b5f52605160045260245ffd5b61429991615373565b5060e0910160c08101355f52013560205260405f2090565b5060c060e092606060408051948301925f516020615fa55f395f51905f52865233602087015201604085013760a081013560a0840152013560c08201522090565b5061429991361590614eea565b509060c091606060408051935f516020615fc55f395f51905f52855233602086015201604084013760a08201522090565b5061429991604036151790614eea565b50614299913615906150f9565b50614299916040361517906150f9565b9061010060405160a060c085013585019460608635967f436f6d70616374286164647265737320617262697465722c6164647265737320855260208501977f73706f6e736f722c75696e74323536206e6f6e63652c75696e7432353620657889528060408701927f70697265732c75696e743235362069642c75696e7432353620616d6f756e742c845260200184880137820185209788865233905260408301903760e0810135828401528381013560c0840152013560e0820152209190565b60e09092919260a06040519160c081013581019560608735977f4261746368436f6d70616374286164647265737320617262697465722c616464865260208601987f726573732073706f6e736f722c75696e74323536206e6f6e63652c75696e74328a52656f756e74732c60468801528060408801927f353620657870697265732c75696e743235365b325d5b5d20696473416e64416d8452602001606689013760660186209889875233905260408401903782840152013560c0820152209190565b92919280602c146159df5760291461591d57634e487b7160e01b5f52605160045260245ffd5b6101009060a0604051918360c082013582019660608835987f436f6d70616374286164647265737320617262697465722c6164647265737320875260208701997f73706f6e736f722c75696e74323536206e6f6e63652c75696e743235362065788b528060408901927f70697265732c75696e743235362069642c75696e7432353620616d6f756e742c8452602001848a013782018720998a8852339052604085019037820160e081013584860152013560c0840152013560e0820152209190565b5060e09060a06040519160c081013581019560608735977f4261746368436f6d70616374286164647265737320617262697465722c616464865260208601987f726573732073706f6e736f722c75696e74323536206e6f6e63652c75696e74328a52656f756e74732c60468801528060408801927f353620657870697265732c75696e743235365b325d5b5d20696473416e64416d8452602001606689013760660186209889875233905260408401903782840152013560c0820152209190565b91909180603814615af45780603914615ad857600714615ace57634e487b7160e01b5f52605160045260245ffd5b614299915f615651565b505f615aec9160016001605c1b0393614192565b3560a01c1690565b5015612a6d573560a01c60016001605c1b031690565b80603814615b525780603914615b3e57600714615b3557634e487b7160e01b5f52605160045260245ffd5b61429992615651565b5091615aec9160016001605c1b0393614192565b5091615aec9160016001605c1b03936138cd565b9190615b8690615b758461543b565b94908591604036151790602d615ce7565b9190565b9190615b8690615b998461543b565b94908591604036151790602e615ce7565b91615bba615b869284602c6158f7565b9290938460403615179161532d565b91615bba615b86928460296158f7565b91615b86604093615c0093615bed8261543b565b959091863615936080851786602d615ce7565b958691179161532d565b91615b86604093615c0093615c1e8261543b565b959091863615936080851786602e615ce7565b939291909380603514615cdd5780603414615c6a57603714615c6157634e487b7160e01b5f52605160045260245ffd5b614299936140ed565b5090929167edcaa89a8229394060205282601452835f5260405f20805480831183151761077257829003905581601452835f5260405f208054908282019182106107655755335f5260205260018060a01b03169060018060a01b03165f516020615f655f395f51905f5260405fa4600190565b5061429993613697565b9594939190929580602d14615dce57602e14615d1157634e487b7160e01b5f52605160045260245ffd5b6040519360608501528584525f516020615f455f395f51905f526020850196338852466040870152141580615dbf575b60051b60800184209083019060a082013584019060c0823560051b93013560051b5f905f5b858110615d9057505050505060609260a09596926040926020018620608087015285520190372090565b8089016020848301870101358152828214615daf575b50602001615d66565b6020908101859052925082615da6565b60a08401356080860152615d41565b5060609260a095969286604093845197878901528588525f516020615f455f395f51905f52602089019633885246878b0152141580615e37575b60051b60800188208852830101358201803560051b809160200186376020018620608087015285520190372090565b8285013560808a0152615e08565b969594939291909680602714615f315780602414615f1c5780602114615f075780602314615ef75780601f14615ee25780602614615ecf5780602214615ec45780602514615eb157601714615ea857634e487b7160e01b5f52605160045260245ffd5b61429996614c4a565b50906017959493929187614299986152df565b508661429997614239565b5090601795949392918761429998614d26565b50916142999691601796959493361593614d26565b5090614299969291361593614239565b509161429996916017969594933615936151a7565b509161429996916017969594933615936152df565b50906017959493929187614299986151a756fe295feb095767cc67d7e74695da0adaddede54d7b7194a8a5426fe8f0351e03371b3d7edb2e9c0b0e7c525b20aaaef0f5940d2ed71663c7d39266ecafac7288595ca9a66b8bbf0d2316e90dfa3df465f0790b277b25393a3ef4d67e1f50865057cdca950b17b5efc016b74b912d8527dfba5e404a688cbc3dab16cb943287fec25a7fee8000a237929ef9be08f2933c4b4f320b00b38809f3c7aa104d5421049fa164736f6c634300081c000a60808060405234601557613e10908161001a8239f35b5f80fdfe60806040526004361015610011575f80fd5b5f3560e01c8062ad800c146137045780634e41a1fb146136965763d637ca8d14610039575f80fd5b3461367e57366003190160a0811261367e5760801361367e576040516080810181811067ffffffffffffffff82111761368257604052600435906001600160a01b0382169081830361367e57828152602435906001600160a01b038216820361367e576020810191825260443592600884101561367e576040820193845260643594600286101561367e5760608381019687521b6bffffffffffffffffffffffff191661366c575061011c6040516100f2604082613793565b600c81526b2730ba34bb32902a37b5b2b760a11b6020820152925b516001600160a01b03166138a1565b9251600881101561365857610130906139c8565b935160028110156136585761014490613bba565b8151610158906001600160a01b03166137b5565b825190919061016f906001600160a01b0316613834565b925163313ce56760049081525f81905260209182919082906001600160a01b0316620186a0fa3d601f10166020510260ff166101aa90613c59565b916040519560208701977103d913730b6b2911d101121b7b6b830b1ba160751b89528786518060208901603284015e810161088b60f21b603282015203603201601d19810189526002016101fe9089613793565b6040519460208601947f226465736372697074696f6e223a2022436f6d7061637420000000000000000086528451806020870160388a015e87016038810161040560f31b90528951908160208c01603a83015e01603801600281017f29207265736f75726365206c6f636b207769746820616c6c6f6361746f72200090528451908160208701602183015e0160020193601f85017401030b732103932b9b2ba103832b934b7b21037b31605d1b905287845160208601968188603483015e01601f0161088b60f21b601582015203601501601d19810189526002016102e39089613793565b6102ee608435613c59565b604051906102fd604083613793565b6002825261125160f21b602083015261031591613c9e565b9960405190610325604083613793565b600d82526c546f6b656e204164647265737360981b602083015261034891613c9e565b9560405190610358604083613793565b600a825269546f6b656e204e616d6560b01b602083015261037891613c9e565b9860405190610388604083613793565b600c82526b151bdad95b8814de5b589bdb60a21b60208301526103aa91613c9e565b92604051906103ba604083613793565b600e82526d546f6b656e20446563696d616c7360901b60208301526103de91613c9e565b90604051906103ee604083613793565b600982526820b63637b1b0ba37b960b91b602083015261040d91613c9e565b916040519061041d604083613793565b600582526453636f706560d81b602083015261043891613c9e565b9260405195610448604088613793565b600c875260208701906b14995cd95d0814195c9a5bd960a21b825260405190610472602083613793565b5f8252604051978893602085019a6f3d913a3930b4ba2fba3cb832911d101160811b8c52518091603087015e8401906c111610113b30b63ab2911d101160991b6030830152518092603d83015e0160300161227d60f01b600d82015281516020819301600f83015e01600d01600281015f905203600201601f19810186526104fa9086613793565b604051998a97602089019c8d6e2261747472696275746573223a205b60881b905280516020819201602f8c015e8901602f8101915f83528051926020849201905e01602f015f815281516020819301825e015f815281516020819301825e015f815281516020819301825e015f815281516020819301825e015f815281516020819301825e01905f8252518092825e01615d7d60f01b815203601d19810184526002016105a79084613793565b604051906105b76127c083613793565b61278e82527f22696d616765223a2022646174613a696d6167652f7376672b786d6c3b62617360208084019182527f6536342c5044393462577767646d567963326c76626a30694d5334774969426c6040808601919091527f626d4e765a476c755a7a306961584e764c5467344e546b744d53492f5067304b60608601527f504345744c5342485a57356c636d4630623349364945466b62324a6c49456c7360808601527f6248567a64484a68644739794944497a4c6a41754e53776755315a484945563460a08601527f63473979644342516248566e4c556c754943346755315a4849465a6c636e4e7060c08601527f62323436494459754d444167516e5670624751674d436b67494330745067304b60e08601527f50484e325a7942325a584a7a61573975505349784c6a4569494868746247357a6101008601527f50534a6f644852774f693876643364334c6e637a4c6d39795a7938794d4441776101208601527f4c334e325a79496765473173626e4d3665477870626d7339496d6830644841366101408601527f4c79393364336375647a4d7562334a6e4c7a45354f546b7665477870626d73696101608601527f49486739496a427765434967655430694d4842344967304b43534232615756336101808601527f516d393450534977494441674e446b79494451354d69496763335235624755396101a08601527f496d567559574a735a53316959574e725a334a766457356b4f6d356c647941776101c08601527f494441674e446b79494451354d6a7369494868746244707a6347466a5a5430696101e08601527f63484a6c63325679646d55695067304b5047636761575139496b31686333526c6102008601527f636c394d59586c6c636c3879496a344e436a77765a7a344e436a786e49476c6b6102208601527f50534a4d59586c6c636c3878496a344e43676b385a7a344e43676b4a5047632b6102408601527f44516f4a43516b385a7a344e43676b4a43516b385a7a344e43676b4a43516b4a6102608601527f50484268644767676333523562475539496d5a7062477774636e56735a54706c6102808601527f646d56756232526b4f324e7361584174636e56735a54706c646d56756232526b6102a08601527f4f325a7062477736497a49784d6a45794d54736949475139496b307a4d6a45756102c08601527f4d7a41344c4449354e4334344e6a526a4e53347a4e5449734e53347a4d6a67736102e08601527f4f5334304e5459734d5449754d5451304c4445314c6a63354d6977344c6a677a6103008601527f4d67304b43516b4a43516b4a597a49754e4451344c5445754d6a63794c4455756103208601527f4d4459304c544d754d446b324c4463754d7a49744e5334794e545a6a4d7934336103408601527f4e4451744d7934314e7a59734f4334794e5459744f5334314d6a67734e4334326103608601527f4e5459744d5451754d6a686a4c5445794c6a51314e6930784d5334354e7a59746103808601527f4d7a59754d7a67304c544d794c6a45784d69307a4e6934304e5459744d7a49756103a08601527f4d54594e43676b4a43516b4a435777334c6a55324c5467754e545934597a41756103c08601527f4d4449304c4441754d4449304c4455754d5459734e4334314d7a59734d5445756103e08601527f4f444d794c4445774c6a67794e474d344c6a59344f4377344c6a49774f4377796104008601527f4d4334344e5459734d5459754d6977794e6934334d7a59734d6a51754e4441346104208601527f44516f4a43516b4a43516c6a4d79347a4d5449734e4334324d4467734d6934326104408601527f4d5459734d5449754e7a51304c4441754f4459304c4445334c6a5579597930786104608601527f4c6a4d354d69777a4c6a67304c5451754d5441304c4463754e4459304c5463756104808601527f4d7a49734d5441754e544d325979307a4c6a41794e4377794c6a6b774e4330326104a08601527f4c6a59734e5334304c546b754f5459734e7934784d6a674e43676b4a43516b4a6104c08601527f43574d744d79347a4f4451734d5334334e5449744e6934334f5449734d6934336104e08601527f4e6930354c6a59354e6977794c6a63344e474d744d4334774f5459734d4334306105008601527f4e5459744d4334794d5459734d4334354d7a59744d43347a4d7a59734d53347a6105208601527f4f544a6a4c5441754f5459734d7934794e43307a4c6a41794e4377324c6a41336105408601527f4d6930314c6a59784e6977344c6a514e43676b4a43516b4a43574d744d69347a6105608601527f4d6a67734d6934774f4467744e5334784d7a59734d7934344d5459744e7934356105808601527f4e4451734e5334774e6a526a4c544d754d4463794c4445754d7a51304c5459756105a08601527f4d6a67344c4449754d5445794c546b754d5459344c4449754d545a6a4c5441756105c08601527f4d446b324c4441754f544d324c5441754d6a67344c4445754f4451344c5441756105e08601527f4e5455794c4449754e7a594e43676b4a43516b4a43574d744d4334354e69777a6106008601527f4c6a49304c544d754d4449304c4459754d4463794c5455754e6a45324c4467756106208601527f4e474d744d69347a4d6a67734d6934774f4467744e5334784d7a59734d7934346106408601527f4d5459744e7934354e4451734e5334774e6a526a4c5451754d5449344c4445756106608601527f4f4449304c5467754e5451304c4449754e5459344c5445794c4445754f5459346106808601527f44516f4a43516b4a43516c6a4c5441754d5449734d5334794d6a51744d43347a6106a08601527f4e6977794c6a51744d4334324f5459734d7934314d4452324d4334774d6a526a6106c08601527f4c5445754d444d794c444d754d7a67304c544d734e6934794e4330314c6a55796106e08601527f4c4467754d7a5579597930794c6a55794c4449754d5445794c5455754e546b796107008601527f4c444d754e4467744f4334344e5459734d7934354d7a594e43676b4a43516b4a6107208601527f43574d744d7934354e6977774c6a55314d6930344c6a45324c5441754d6a51746107408601527f4d5445754f5441304c5449754e6a6734597930784c6a417a4d6930774c6a59336107608601527f4d6930794c6a45324c5445754e544d324c544d754e4467744d6934314f544a736107808601527f4c5441754e7a51304c5441754e546332624330784d5334784e6930344c6a59786107a08601527f4e6d77324c6a6b324c546b754d444930624445784c6a45324c4467754e6a45326107c08601527f44516f4a43516b4a43516c734d4334334e4451734d4334314e7a5a6a4d5334776107e08601527f4d7a49734d4334334f5449734d5334344f5459734d5334304f4467734d6934336108008601527f4f4451734d6934774e474d784c6a49354e6977774c6a67324e4377794c6a637a6108208601527f4e6977784c6a45794f4377304c6a41344c4441754f545a6a4d5334784d6a67746108408601527f4d4334784e6a67734d6934784f4451744d4334324e4467734d7934774e7a49746108608601527f4d53347a4f54494e43676b4a43516b4a43574d774c6a67324e4330774c6a63796108808601527f4c4445754e5459744d5334334d6a67734d5334354d6930794c6a6b774e4777776108a08601527f4c44426a4d4334304e5459744d5334314e6977774c6a4d344e43307a4c6a55776108c08601527f4e4330774c6a51314e6930314c6a6332597930354c6a55794f4330784d7934796108e08601527f4f5459744d6a6b754e4451344c5449354c6a51794e4330794f5334304f5459746109008601527f4d6a6b754e44637944516f4a43516b4a43516c734e7934794c5467754f4455326109208601527f597a41754d4451344c4441754d4449304c4467754d5445794c4459754e5463326109408601527f4c4445324c6a63314d6977784e5334774d6a526a4d69347a4d4451734d6934796109608601527f4e5459734e4334344e4467734e4334334e5449734e7934314d5449734e7934786109808601527f4d6a686a4d4334304f4377774c6a517a4d6977774c6a6b344e4377774c6a67326109a08601527f4e4377784c6a51324e4377784c6a49354e67304b43516b4a43516b4a624441736109c08601527f4d4777774c44426a4d4334774f5459734d4334774f5459734d4334794d5459736109e08601527f4d4334784f5449734d43347a4d5449734d4334794f44686a4d4334324d6a5173610a008601527f4d4334314e5449734d5334794e4467734d5334784d6a67734d5334344e7a4973610a208601527f4d5334334d44526a4d6934784d5449734d5334344f5459734e4334794c444d75610a408601527f4f4445324c4459754d7a67304c4455754e446b3244516f4a43516b4a43516c6a610a608601527f4d6934314f5449734d5334344e4467734d6934314e4451734d6934794d7a4973610a808601527f4e5334304f5459734d53347a4e44526a4d4334324d6a51744d4334784f544973610aa08601527f4d5334794f5459744d4334314d6a67734d6934774d5459744d4334344e474d78610ac08601527f4c6a63334e6930774c6a63324f43777a4c6a55774e4330784c6a67304f437730610ae08601527f4c6a67354e69307a4c6a41354e67304b43516b4a43516b4a597a45754d544934610b008601527f4c5445754d444d794c4445754f546b794c5449754d5445794c4449754d7a4130610b208601527f4c544d754d545934597a41754d6a51744d4334344e4377774c6a41334d693078610b408601527f4c6a67304f4330774c6a63304e4330794c6a6b334e6d4d744f5334314e7a5974610b608601527f4d544d754d7a49744d7a55754f5441304c544d324c6a51314e69307a4e533435610b808601527f4e7a59744d7a59754e544934624463754e5459744f4334314e6a674e43676b4a610ba08601527f43516b4a43574d774c6a41304f4377774c6a41304f4377784e4334324f446773610bc08601527f4d5449754f5445794c4449324c6a59784e6977794e5334304f44686a4d793479610be08601527f4e43777a4c6a45354d6977344c6a41324e4377334c6a55324c4445784c6a5530610c008601527f4e4377784d4334794e7a4a6a4d5334794e7a49734d4334354d5449734d693478610c208601527f4e6977794c6a41344f4377304c6a41344c4445754e44453244516f4a43516b4a610c408601527f43516c6a4d4334344d5459744d4334794f4467734d5334344e4467744d433432610c608601527f4f5459734d7930784c6a4a6a4d5334334e7a59744d4334334e6a67734d793431610c808601527f4d4451744d5334344e4467734e4334344f5459744d7934774f545a6a4d533478610ca08601527f4d6a67744d5334774d4467734d5334354f5449744d6934784d5449734d69347a610cc08601527f4d4451744d7934784e6a674e43676b4a43516b4a43574d774c6a49304c544175610ce08601527f4f4451734d4334774e7a49744d5334344e4467744d4334334e4451744d324d74610d008601527f4f5334314e7a59744d544d754d7a49744d7a55754f5441304c544d324c6a5131610d208601527f4e69307a4e5334354e7a59744d7a59754e544934624463754e5459744f433431610d408601527f4e6a674e43676b4a43516b4a43554d794f5449754d6a49734d6a59324c6a5934610d608601527f4f43777a4d446b754d4451304c4449344d5334304f5459734d7a49784c6a4d77610d808601527f4f4377794f5451754f445930656949765067304b43516b4a435477765a7a344e610da08601527f43676b4a43516b385a7a344e43676b4a43516b4a504842686447676763335235610dc08601527f62475539496d5a7062477774636e56735a54706c646d56756232526b4f324e73610de08601527f61584174636e56735a54706c646d56756232526b4f325a7062477736497a4978610e008601527f4d6a45794d54736949475139496b30304d6a6b754d4449734d6a55304c6a5179610e208601527f4e45777a4f544d754e6a6b794c4445794f5334334d6d77744d5334314d7a5974610e408601527f4e5334304e4468734c5455754e4451344c4445754e44673444516f4a43516b4a610e608601527f43516c734c5451314c6a49784e6977784d6934304d4468734c5455754e545934610e808601527f4c4445754e544d32624445754e5459734e5334314d6d77794c6a457a4e697733610ea08601527f4c6a557a4e6d4d744d6a45754e6a6b324c4445754f5459344c5451794c6a6730610ec08601527f4c5449754e6a59304c5459794c6a55324f4330324c6a6b3244516f4a43516b4a610ee08601527f43516c6a4c544d354c6a49324e4330344c6a55324f4330334d7934794f545974610f008601527f4d5455754f5467304c546b354c6a55334e6977794e5334344f545a734d437777610f208601527f597930334c6a45774e4377784d53347a4e5449744d5451754f4455324c444930610f408601527f4c6a67304c5445324c6a59314e69777a4e5334784e67304b43516b4a43516b4a610f608601527f597930794c6a51334d6977784e4334774e43777a4c6a41794e4377794d793477610f808601527f4e4377794e5334794e4467734d5467754f545a6a4d544d754e6a55324c544975610fa08601527f4e446b324c4449794c6a41344c546b754d7a59734d6a6b754f5449344c544531610fc08601527f4c6a63324f474d344c6a67344c5463754d6a51344c4445324c6a67334d693078610fe08601527f4d7934334e5449734d7a49754d7a63324c546b754d54513044516f4a43516b4a6110008601527f43516c6a4f4334784d7a59734d79347a4e6977344c6a67344c444d754e6a63796110208601527f4c4445314c6a49304c446b754d444930597a49784c6a45304e4377784e7934336110408601527f4d7a59734e7a45754e4377324d5334314d7a59734e7a49734e6a49754d4452736110608601527f4d437777624445774c6a51784e6977354c6a45324f4777794c6a6b774e4377796110808601527f4c6a55304e47777a4c6a517a4d6930784c6a63314d67304b43516b4a43516b4a6110a08601527f624449774c6a67344c5445774c6a59774f4777784c6a49334d6977304c6a51346110c08601527f4f4777314c6a51334d6930784c6a5532624451314c6a41354e6930784d6934336110e08601527f4e6a68734e5334304f5459744d5334314e6b77304d6a6b754d4449734d6a55306111008601527f4c6a51794e4577304d6a6b754d4449734d6a55304c6a51794e486f6754544d316111208601527f4d4334324d7a59734d6a59354c6a6b334e6d77744e7934314d5449744e6934326111408601527f44516f4a43516b4a43516c494d7a517a4c6a466a4c5441754d5451304c5441756111608601527f4d5449744e5445754e6a49304c5451314c5463794c6a45354d6930324d6934796111808601527f4d7a4a6a4c5463754e7a41304c5459754e4455324c5467754e5459344c5459756111a08601527f4f4445324c5445344c6a4d324c5445774c6a67334d6d77744d4334794e4330776111c08601527f4c6a41354e6d77744d4334314d6a67744d4334784f54494e43676b4a43516b4a6111e08601527f43574d744d6a45754d7a59744e6934304e5459744d7a45754e6a41344c4445756112008601527f4f5449744e4449754f5467304c4445784c6a49774f474d744e6934334e6a67736112208601527f4e5334314d6930784d7934354f5449734d5445754e4449304c5449304c6a63326112408601527f4f4377784d79347a4f544a6a4c5445774c6a41344c4445754f4451344c5445796112608601527f4c6a63324f4330784c6a417a4d6930784d5334354d6a67744e5334334f44514e6112808601527f43676b4a43516b4a43574d784c6a51344f4330344c6a51334d6977344c6a55306112a08601527f4e4330794d4334324e6a51734d5455754d4451344c544d784c6a41314e6e59746112c08601527f4d4334774d6a526a4d6a45754f5459744d7a55754d4459304c4455794c6a4d356112e08601527f4d6930794f4334304e4377344e7934304f4330794d4334334f44514e43676b4a6113008601527f43516b4a43574d794d5334784f5449734e4334324d4467734e444d754f5451306113208601527f4c446b754e5463324c4459344c6a45324c4459754f544d32624449334c6a49326113408601527f4e4377354e6934794e45777a4e5441754e6a4d324c4449324f5334354e7a5a4d6113608601527f4d7a55774c6a597a4e6977794e6a6b754f5463326569424e4d7a67794c6a4d326113808601527f4e4377794e6a45754e6a6b3254444d314d4334774e6977784e4463754e6a49316113a08601527f44516f4a43516b4a43516c734d7a51754d6930354c6a4d344e47777a4d6934796113c08601527f4d7a49734d54457a4c6a63344e45777a4f4449754d7a59304c4449324d5334326113e08601527f4f545a364969382b44516f4a43516b4a5043396e5067304b43516b4a4354786e6114008601527f5067304b43516b4a43516b38634746306143427a64486c735a5430695a6d6c736114208601527f624331796457786c4f6d56325a5735765a47513759327870634331796457786c6114408601527f4f6d56325a5735765a4751375a6d6c7362446f6a4d6a45794d5449784f7949676114608601527f5a443069545445314e5334774d544d734d5451314c6a4a734c5449754d6a67736114808601527f4f4334774d54594e43676b4a43516b4a43574d784d4334794d6a51734d4334796114a08601527f4d5459734d6a6b754e546b794c4441754d4451344c4451314c6a63794c544d756114c08601527f4e6d77794c6a51354e6977784d5334784d7a5a6a4c5445344c6a6b324c4451756114e08601527f4d6a6b324c5451784c6a67774f4377304c6a45774e4330314d5334304d4467736115008601527f4d7934334f544a734c5449314c6a51344f4377344f5334354e7a594e43676b4a6115208601527f43516b4a43574d354c6a59334d69777a4c6a41304f4377794e7934344f4467736115408601527f4d5441754f5459344c4449354c6a4d314d6977794e7934334d6d77744d5445756115608601527f4e4377774c6a6b344e474d744d4334344f4467744d5441754d5455794c54457a6115808601527f4c6a63794f4330784e5334314d4451744d6a45754d4463794c5445334c6a63326115a08601527f624330784c6a4d324f4377304c6a67794e4777744d5334314e6977314c6a51356115c08601527f4e67304b43516b4a43516b4a624330314c6a51334d6930784c6a5532624330306115e08601527f4e5334774f5459744d5449754e7a5934624330314c6a51354e6930784c6a55326116008601527f624445754e5459744e5334304e7a4a734d7a55754d7a49344c5445794e4334336116208601527f4d4452734d5334314d7a59744e5334304e4468734e5334304e4467734d5334306116408601527f4f4468734e4455754d6a45324c4445794c6a51774f4777314c6a55324f4377786116608601527f4c6a557a4e67304b43516b4a43516b4a544445314e5334774d544d734d5451316116808601527f4c6a4a4d4d5455314c6a41784d7977784e4455754d6b77784e5455754d44457a6116a08601527f4c4445304e5334796569424e4d5445774c6a45314e7977794e6a45754e6a6b326116c08601527f62444d794c6a4d774e4330784d5451754d4463796243307a4e4334794c546b756116e08601527f4d7a6730544463324c6a41794f5377794e5449754d444930544445784d4334786117008601527f4e5463734d6a59784c6a59354e6e6f694c7a344e43676b4a43516b384c32632b6117208601527f44516f4a43516b4a5047632b44516f4a43516b4a435478775958526f49484e306117408601527f6557786c50534a6d615778734c584a31624755365a585a6c626d396b5a44746a6117608601527f62476c774c584a31624755365a585a6c626d396b5a44746d615778734f694d796117808601527f4d5449784d6a45374969426b50534a4e4d6a51774c6a63324e43777a4d7a59756117a08601527f4e6a6379544449304d4334334e6a51734d7a4d324c6a59334d67304b43516b4a6117c08601527f43516b4a597930784c6a45774e4330774c6a67784e6930794c6a51304f4330786117e08601527f4c6a41344c544d754e7a51304c5441754f446734637930794c6a51354e6977776118008601527f4c6a67324e43307a4c6a4d784d6977784c6a6b304e4777744f4334344d7a49736118208601527f4d5445754f546332614441754d444930597930774c6a67784e6977784c6a45776118408601527f4e4330784c6a45774e4377794c6a51334d6930774c6a6b784d69777a4c6a63306118608601527f4e41304b43516b4a43516b4a597a41754d546b794c4445754d6a63794c4441756118808601527f4f4459304c4449754e4463794c4445754f5451304c444d754d6a6734624441756118a08601527f4d5459344c4441754d545130597a45754d4455324c4441754e7a49734d69347a6118c08601527f4e5449734d4334354e69777a4c6a55334e6977774c6a63324f474d784c6a49356118e08601527f4e6930774c6a45354d6977794c6a51354e6930774c6a67324e43777a4c6a4d786119008601527f4d6930784c6a6b304e41304b43516b4a43516b4a624467754f4455324c5445796119208601527f597a41754f4445324c5445754d5441304c4445754d4467744d6934304e4467736119408601527f4d4334344f4467744d7934334e4452444d6a51794c6a55784e69777a4d7a67756119608601527f4e6a67344c4449304d5334344e4451734d7a4d334c6a51344f4377794e4441756119808601527f4e7a59304c444d7a4e6934324e7a4a4d4d6a51774c6a63324e43777a4d7a59756119a08601527f4e6a637944516f4a43516b4a43516c4d4d6a51774c6a63324e43777a4d7a59756119c08601527f4e6a63796569424e4d5463324c6a51794d5377794e6a59754d6a686a4e4334796119e08601527f4d6a51734d7934784d6977324c6a67784e6977334c6a59344c4463754e544d32611a008601527f4c4445794c6a55774e474d774c6a4d784d6977794c6a41324e4377774c6a4934611a208601527f4f4377304c6a45334e6930774c6a41354e6977324c6a493044516f4a43516b4a611a408601527f43516c6a4d5334344f5459744d4334354e69777a4c6a6b7a4e6930784c6a5977611a608601527f4f4377324c6a41794e4330784c6a6b79597a55754d4445324c5441754e7a5130611a808601527f4c4445774c6a49354e6977774c6a4d344e4377784e4334324f4467734d793432611aa08601527f4d6a52324d4334774d6a526a4e4334304d5459734d7934794e4377334c6a4134611ac08601527f4c4463754f5459344c4463754f4449304c4445794c6a6b344e41304b43516b4a611ae08601527f43516b4a597a41754d7a45794c4445754f546b794c4441754d6a67344c445175611b008601527f4d444d794c5441754d4449304c4459754d445134597a41754e6930774c6a4530611b208601527f4e4377784c6a45334e6930774c6a49324e4377784c6a63334e6930774c6a4d32611b408601527f597a51754e544d324c5441754e6a63794c446b754d7a4d324c4441754d7a5973611b608601527f4d544d754d6a6b324c444d754d6a6734624441754d6a67344c4441754d6a514e611b808601527f43676b4a43516b4a43574d7a4c6a67784e6977794c6a6b794f4377324c6a4530611ba08601527f4e4377334c6a45794f4377324c6a67784e6977784d5334314d6d4d774c6a4978611bc08601527f4e6977784c6a4d324f4377774c6a49324e4377794c6a63324c4441754d545130611be08601527f4c4451754d545579597a41754d6a45324c5441754d4451344c4441754e444134611c008601527f4c5441754d4463794c4441754e6a49304c5441754d446b3244516f4a43516b4a611c208601527f43516c6a4e4334784d6a67744d4334324d6a51734f4334314e4451734d43347a611c408601527f4d7a59734d5449754d546b794c444d754d444930624441734d474d7a4c6a5933611c608601527f4d6977794c6a63784d6977314c6a67344c4459754e6a49304c4459754e544130611c808601527f4c4445774c6a63334e6d4d774c6a59794e4377304c6a45794f4330774c6a4d7a611ca08601527f4e6977344c6a55304e43307a4c6a41304f4377784d6934784f54494e43676b4a611cc08601527f43516b4a435777744f4334344e5459734d544a6a4c5449754e7a45794c444d75611ce08601527f4e6a63794c5459754e6a49304c4455754f4467744d5441754e7a63324c445975611d008601527f4e544130597930304c6a45794f4377774c6a59794e4330344c6a55794c544175611d208601527f4d7a4d324c5445794c6a45354d69307a4c6a41794e4859774c6a41794e41304b611d408601527f43516b4a43516b4a5979307a4c6a59304f4330794c6a59344f4330314c6a6734611d608601527f4c5459754e6a49304c5459754e5441304c5445774c6a686a4c5441754d446379611d808601527f4c5441754e4467744d4334784d6930774c6a6b324c5441754d5451304c544575611da08601527f4e44526a4c5445754d4441344c4441754d7a4d324c5449754d4451734d433432611dc08601527f4c544d754d4463794c4441754e7a513044516f4a43516b4a43516c6a4c545175611de08601527f4e5445794c4441754e6a63794c546b754d7a45794c5441754d7a59744d544d75611e008601527f4d6a6b324c544d754d7a4579624441734d474d744d7934354f4451744d693435611e208601527f4e5449744e6934304d4467744e7934794d6a51744e7934774f4330784d533433611e408601527f4d7a5a6a4c5441754d5451304c5441754f5445794c5441754d6a45324c544575611e608601527f4f4449304c5441754d546b794c5449754e7a594e43676b4a43516b4a43574d74611e808601527f4d5334314d5449734d4334324d6a51744d7934774e7a49734d5334774f433030611ea08601527f4c6a59344c4445754d7a4a6a4c5455754d4445324c4441754e7a51304c544577611ec08601527f4c6a49354e6930774c6a4d344e4330784e4334324f4467744d7934324d6a5273611ee08601527f4d437777597930304c6a4d354d69307a4c6a49304c5463754d4467744e793435611f008601527f4f5449744e7934344d6a51744d544d754d44413444516f4a43516b4a43516c6a611f208601527f4c5441754d7a67304c5449754e4463794c5441754d6a67344c5455754d444532611f408601527f4c4441754d7a45794c5463754e446734597930784c6a55344e4377774c6a6379611f608601527f4c544d754d6a59304c4445754d6930304c6a6b324f4377784c6a51324e474d74611f808601527f4e4334344d6a51734d4334334d6930354c6a6b784d6930774c6a4d344e433078611fa08601527f4e4334784d7a59744d7934304f41304b43516b4a43516b4a597930304c6a4979611fc08601527f4e43307a4c6a45794c5459754f4445324c5463754e6a67744e7934314d7a5974611fe08601527f4d5449754e544130637a41754d7a67304c546b754f5445794c444d754e4467746120008601527f4d5451754d544d32614441754d444930624445774c6a6b354d6930784e4334356120208601527f4d44526a4d7934784d6930304c6a49304f4377334c6a59344c5459754f4445326120408601527f4c4445794c6a51344c5463754e544d3244516f4a43516b4a43516c444d5459336120608601527f4c6a41344e5377794e6a49754d4455324c4445334d6934784e7a4d734d6a597a6120808601527f4c6a45324c4445334e6934304d6a45734d6a59324c6a4934544445334e6934306120a08601527f4d6a45734d6a59324c6a4934544445334e6934304d6a45734d6a59324c6a49346120c08601527f544445334e6934304d6a45734d6a59324c6a49346569424e4d5463794c6a59316120e08601527f4d7977794f4441754e44593044516f4a43516b4a43516c6a4c5441754d6a67346121008601527f4c5445754f5451304c5445754d7a49744d7934334e6a67744d6934354e7a59746121208601527f4e4334354f544a324c5441754d444930597930784c6a59344c5445754d6a49306121408601527f4c544d754e7a49744d5334324e5459744e5334324f4467744d53347a4e6a686a6121608601527f4c5445754f5459344c4441754d6a67344c544d754e7a6b794c4445754d7a49746121808601527f4e5334774d5459734d6934354e7a594e43676b4a43516b4a435777744d5441756121a08601527f4f546b794c4445304c6a6734614441754d444930597930784c6a49304f4377786121c08601527f4c6a59344c5445754e6a67734d7934334e4451744d53347a4f5449734e5334326121e08601527f4f44686a4d4334794f4467734d5334354e4451734d53347a4d69777a4c6a63326122008601527f4f4377794c6a6b334e6977304c6a6b354d67304b43516b4a43516b4a597a45756122208601527f4e6a67734d5334794e4467734d7934334e4451734d5334324f4377314c6a59346122408601527f4f4377784c6a4d354d6e4d7a4c6a63324f4330784c6a4d794c4451754f546b796122608601527f4c5449754f546332624441754d4449304c4442734d5441754f546b794c5445306122808601527f4c6a6734614330774c6a41794e41304b43516b4a43516b4a517a45334d6934306122a08601527f4f4455734d6a67304c6a51334d6977784e7a49754f5451784c4449344d6934306122c08601527f4d4467734d5463794c6a59314d7977794f4441754e445930544445334d6934326122e08601527f4e544d734d6a67774c6a51324e4577784e7a49754e6a557a4c4449344d4334306123008601527f4e6a5236494530794d4445754d446b794c444d774d5334304d54594e43676b4a6123208601527f43516b4a43574d744d43347a4d5449744d6934784d7a59744d5334304e4330306123408601527f4c6a45314d69307a4c6a49324e4330314c6a51354e6e59774c6a41794e474d746123608601527f4d5334344e4467744d53347a4e6a67744e4334784d4451744d5334344e4467746123808601527f4e6934794e4330784c6a557a4e6d4d744d6934784e6977774c6a4d7a4e6930306123a08601527f4c6a45314d6977784c6a51304c5455754e5449734d7934794e6a514e43676b4a6123c08601527f43516b4a435777744d5445754e6a45324c4445314c6a63304e474d744d53347a6123e08601527f4e4451734d5334344e4467744d5334344d6a51734e4334784d4451744d5334316124008601527f4d5449734e6934794e474d774c6a4d784d6977794c6a457a4e6977784c6a51306124208601527f4c4451754d5449344c444d754d6a59304c4455754e446b32624441734d41304b6124408601527f43516b4a43516b4a597a45754f4451344c4445754d7a59344c4451754d5441306124608601527f4c4445754f4451344c4459754d6a51734d5334314d7a5a6a4d6934784e6930776124808601527f4c6a4d784d6977304c6a45314d6930784c6a51304c4455754e5449744d7934796124a08601527f4e6a52734d437777624445784c6a59784e6930784e5334334e44514e43676b4a6124c08601527f43516b4a43554d794d4441754f5451344c444d774e5334344d7a49734d6a41786124e08601527f4c6a51794f43777a4d444d754e5463324c4449774d5334774f5449734d7a41786125008601527f4c6a51784e6b77794d4445754d446b794c444d774d5334304d545a4d4d6a41786125208601527f4c6a41354d69777a4d4445754e4445326569424e4d6a497a4c6a49304e43777a6125408601527f4d6a49754d54557944516f4a43516b4a43516c6a4c5441754d6a51744d5334326125608601527f4f4330784c6a45774e43307a4c6a49304c5449754e5449744e4334794e7a4a326125808601527f4d4334774d6a526a4c5445754e4451744d5334774e5459744d7934784f5449746125a08601527f4d5334304e4330304c6a67304f4330784c6a45334e6d4d744d5334324e5459736125c08601527f4d4334794e43307a4c6a49784e6977784c6a45774e4330304c6a49304f4377796125e08601527f4c6a55304e4777744d4334784f5449734d4334794e41304b43516b4a43516b4a6126008601527f624330354c6a67344f4377784d7934304d545a324d4334774d6a526a4c5445756126208601527f4d4455324c4445754e4445324c5445754e4445324c444d754d5459344c5445756126408601527f4d5455794c4451754f444930597a41754d6a59304c4445754e6a67734d5334786126608601527f4d6a67734d7934794e4377794c6a55304e4377304c6a49334d6d77774c44414e6126808601527f43676b4a43516b4a43574d784c6a51784e6977784c6a41314e69777a4c6a45326126a08601527f4f4377784c6a51784e6977304c6a67304f4377784c6a45314d6d4d784c6a59346126c08601527f4c5441754d6a59304c444d754d6a51744d5334784d6a67734e4334794e7a49746126e08601527f4d6934314e44524d4d6a49794c6a45304d53777a4d6a634e43676b4a43516b4a6127008601527f43554d794d6a4d754d5449304c444d794e5334314f4451734d6a497a4c6a55776127208601527f4f43777a4d6a4d754f444d794c4449794d7934794e4451734d7a49794c6a45316127408601527f4d6e6f694c7a344e43676b4a43516b384c32632b44516f4a43516b384c32632b6127608601527f44516f4a435477765a7a344e43676b384c32632b44516f384c32632b44516f386127808601526d130cd38c969e8d1390d9cf4f488b60921b6127a086015251975197988998929592918291908a015e87019060208201905f8252519283915e01602001905f8252518092825e01905f8252518092825e015f815203601f19810182526136469082613793565b604051613654819282613769565b0390f35b634e487b7160e01b5f52602160045260245ffd5b61367861011c916138a1565b9261010d565b5f80fd5b634e487b7160e01b5f52604160045260245ffd5b3461367e57602036600319011261367e5761365460206136f860256136c56004356001600160a01b0316613834565b60405164f09fa49d2d60d81b858201528151909485928291018484015e81015f838201520301601f198101835282613793565b60405191829182613769565b3461367e57602036600319011261367e5761365460206136f860286137336004356001600160a01b03166137b5565b60405193849167021b7b6b830b1ba160c51b828401528051918291018484015e81015f838201520301601f198101835282613793565b602060409281835280519182918282860152018484015e5f828201840152601f01601f1916010190565b90601f8019910116810190811067ffffffffffffffff82111761368257604052565b6001600160a01b03811615613810576137d9906306fdde0360045260045f52613d42565b908151156137e357565b90506040516137f3604082613793565b600d81526c3ab735b737bbb7103a37b5b2b760991b602082015290565b5060405161381f604082613793565b600581526422ba3432b960d91b602082015290565b8060601b1561387f57613852906395d89b4160045260045f52613d42565b9081511561385c57565b905060405161386c604082613793565b60038152623f3f3f60e81b602082015290565b5060405161388e604082613793565b600381526208aa8960eb1b602082015290565b9060405191608083016040526f30313233343536373839616263646566600f526002830190602882525f604a85015260601b60015f5b8080018601602284831a600f811651602384015360041c5191015301906014821461390557906001906138d7565b50506130786002825101915282528160228101907f8888888888888888888888888888888888888888888888888888888888888880602883201660015f5b601160f31b83821a02818001520190601482146139635790600190613943565b505060429180517f2020202020202020202020202020202020202020202020202020202020202020815f511660011c161890520180517f2020202020202020202020202020202020202020202020202020202020202020816020511660011c16189052565b600881101561365857806139ff57506040516139e5604082613793565b600a81526913db99481cd958dbdb9960b21b602082015290565b60018103613a355750604051613a16604082613793565b600f81526e4669667465656e207365636f6e647360881b602082015290565b60028103613a665750604051613a4c604082613793565b600a8152694f6e65206d696e75746560b01b602082015290565b60038103613a985750604051613a7d604082613793565b600b81526a54656e206d696e7574657360a81b602082015290565b60048103613adc5750604051613aaf604082613793565b601981527f4f6e6520686f757220616e642066697665206d696e7574657300000000000000602082015290565b60058103613b0a5750604051613af3604082613793565b60078152664f6e652064617960c81b602082015290565b60068103613b4e5750604051613b21604082613793565b601781527f536576656e206461797320616e64206f6e6520686f7572000000000000000000602082015290565b600703613b7e57604051613b63604082613793565b600b81526a546869727479206461797360a81b602082015290565b60405162461bcd60e51b8152602060048201526014602482015273155b9adb9bdddb881c995cd95d081c195c9a5bd960621b6044820152606490fd5b60028110156136585780613bf15750604051613bd7604082613793565b600a81526926bab63a34b1b430b4b760b11b602082015290565b600103613c2457604051613c06604082613793565b600e81526d436861696e2d737065636966696360901b602082015290565b60405162461bcd60e51b815260206004820152600d60248201526c556e6b6e6f776e2073636f706560981b6044820152606490fd5b90604051600a608082019360a083016040525f8552935b5f190193603082820601855304928315613c8c57600a90613c70565b809350608091030191601f1901918252565b6002613d3f91600d602094604051613cb7604082613793565b6001815260308780830193600b60fa1b8552604051998a976f3d913a3930b4ba2fba3cb832911d101160811b828a0152805191829101858a015e8701906c111610113b30b63ab2911d101160991b84830152805192839101603d83015e01019061227d60f01b84830152518092600f83015e01015f838201520301601f198101835282613793565b90565b60205f60609282825191620186a0fa15613d3f57506040518060200160403d1015613da7575b5f60203d806103e8106103e8821802188083853e840101535b80515f1a15613d9257600101613d81565b818103601f190182525f815260200160405290565b5f513d601f1901811115613dbc575b50613d68565b602081843e82513d829003601f1901811115613dd85750613db6565b90604092826020936103e8106103e88218021892839283875201903e82015f6020820152016040529056fea164736f6c634300081c000a",
    "linkReferences": {}
  },
  "methodIdentifiers": {
    "DOMAIN_SEPARATOR()": "3644e515",
    "__activateTstore()": "7423eb3c",
    "__registerAllocator(address,bytes)": "2a9c4d0d",
    "allocatedTransfer((bytes,uint256,uint256,(uint256,(address,uint256)[])[]))": "7112406d",
    "allocatedTransfer((bytes,uint256,uint256,(uint256,uint256)[],address))": "200f0c4d",
    "allocatedTransfer((bytes,uint256,uint256,uint256,(address,uint256)[]))": "a2394147",
    "allocatedTransfer((bytes,uint256,uint256,uint256,uint256,address))": "dd589cfc",
    "allocatedWithdrawal((bytes,uint256,uint256,(uint256,(address,uint256)[])[]))": "393c33e2",
    "allocatedWithdrawal((bytes,uint256,uint256,(uint256,uint256)[],address))": "6a9a4c44",
    "allocatedWithdrawal((bytes,uint256,uint256,uint256,(address,uint256)[]))": "fdc060e7",
    "allocatedWithdrawal((bytes,uint256,uint256,uint256,uint256,address))": "27c777a9",
    "allowance(address,address,uint256)": "598af9e7",
    "approve(address,uint256,uint256)": "426a8493",
    "balanceOf(address,uint256)": "00fdd58e",
    "claim((bytes,bytes,address,uint256,uint256,(uint256,uint256,(address,uint256)[])[]))": "d204f11e",
    "claim((bytes,bytes,address,uint256,uint256,(uint256,uint256,uint256)[],address))": "59202128",
    "claim((bytes,bytes,address,uint256,uint256,bytes32,bytes,(uint256,uint256,(address,uint256)[])[]))": "eaa67483",
    "claim((bytes,bytes,address,uint256,uint256,bytes32,bytes,(uint256,uint256,uint256)[],address))": "db04bc72",
    "claim((bytes,bytes,address,uint256,uint256,bytes32,bytes,bytes32[],(uint256,uint256,(address,uint256)[])[]))": "fb75fb69",
    "claim((bytes,bytes,address,uint256,uint256,bytes32,bytes,bytes32[],(uint256,uint256,uint256)[],address))": "107d4ee4",
    "claim((bytes,bytes,address,uint256,uint256,bytes32,bytes,bytes32[],uint256,uint256,(address,uint256)[]))": "d350188c",
    "claim((bytes,bytes,address,uint256,uint256,bytes32,bytes,bytes32[],uint256,uint256,(uint256,uint256,(address,uint256)[])[]))": "ea14532e",
    "claim((bytes,bytes,address,uint256,uint256,bytes32,bytes,bytes32[],uint256,uint256,(uint256,uint256,uint256)[],address))": "176f405a",
    "claim((bytes,bytes,address,uint256,uint256,bytes32,bytes,bytes32[],uint256,uint256,address,uint256))": "12f9d21e",
    "claim((bytes,bytes,address,uint256,uint256,bytes32,bytes,bytes32[],uint256,uint256,uint256,uint256,(address,uint256)[]))": "4c102416",
    "claim((bytes,bytes,address,uint256,uint256,bytes32,bytes,bytes32[],uint256,uint256,uint256,uint256,address,uint256))": "6af2791b",
    "claim((bytes,bytes,address,uint256,uint256,bytes32,bytes,uint256,uint256,(address,uint256)[]))": "b4039fc2",
    "claim((bytes,bytes,address,uint256,uint256,bytes32,bytes,uint256,uint256,address,uint256))": "63f5b1ad",
    "claim((bytes,bytes,address,uint256,uint256,bytes32,string,(uint256,uint256,(address,uint256)[])[]))": "d34ddc82",
    "claim((bytes,bytes,address,uint256,uint256,bytes32,string,(uint256,uint256,uint256)[],address))": "b54baefd",
    "claim((bytes,bytes,address,uint256,uint256,bytes32,string,bytes32,bytes,(uint256,uint256,(address,uint256)[])[]))": "eb431821",
    "claim((bytes,bytes,address,uint256,uint256,bytes32,string,bytes32,bytes,(uint256,uint256,uint256)[],address))": "b24849b7",
    "claim((bytes,bytes,address,uint256,uint256,bytes32,string,bytes32,bytes,bytes32[],(uint256,uint256,(address,uint256)[])[]))": "12a1e6ea",
    "claim((bytes,bytes,address,uint256,uint256,bytes32,string,bytes32,bytes,bytes32[],(uint256,uint256,uint256)[],address))": "b3244389",
    "claim((bytes,bytes,address,uint256,uint256,bytes32,string,bytes32,bytes,bytes32[],uint256,uint256,(address,uint256)[]))": "414fd914",
    "claim((bytes,bytes,address,uint256,uint256,bytes32,string,bytes32,bytes,bytes32[],uint256,uint256,(uint256,uint256,(address,uint256)[])[]))": "2c4bbd17",
    "claim((bytes,bytes,address,uint256,uint256,bytes32,string,bytes32,bytes,bytes32[],uint256,uint256,(uint256,uint256,uint256)[],address))": "5ac2ccf1",
    "claim((bytes,bytes,address,uint256,uint256,bytes32,string,bytes32,bytes,bytes32[],uint256,uint256,address,uint256))": "1d474b14",
    "claim((bytes,bytes,address,uint256,uint256,bytes32,string,bytes32,bytes,bytes32[],uint256,uint256,uint256,uint256,(address,uint256)[]))": "4d585fbf",
    "claim((bytes,bytes,address,uint256,uint256,bytes32,string,bytes32,bytes,bytes32[],uint256,uint256,uint256,uint256,address,uint256))": "ebcbd7b5",
    "claim((bytes,bytes,address,uint256,uint256,bytes32,string,bytes32,bytes,uint256,uint256,(address,uint256)[]))": "e8672f93",
    "claim((bytes,bytes,address,uint256,uint256,bytes32,string,bytes32,bytes,uint256,uint256,address,uint256))": "0d57fec9",
    "claim((bytes,bytes,address,uint256,uint256,bytes32,string,bytes32[],(uint256,uint256,(address,uint256)[])[]))": "577cdc64",
    "claim((bytes,bytes,address,uint256,uint256,bytes32,string,bytes32[],(uint256,uint256,uint256)[],address))": "9730f4fd",
    "claim((bytes,bytes,address,uint256,uint256,bytes32,string,bytes32[],uint256,uint256,(address,uint256)[]))": "f745381c",
    "claim((bytes,bytes,address,uint256,uint256,bytes32,string,bytes32[],uint256,uint256,(uint256,uint256,(address,uint256)[])[]))": "aa41c87e",
    "claim((bytes,bytes,address,uint256,uint256,bytes32,string,bytes32[],uint256,uint256,(uint256,uint256,uint256)[],address))": "eed634ad",
    "claim((bytes,bytes,address,uint256,uint256,bytes32,string,bytes32[],uint256,uint256,address,uint256))": "e0565c49",
    "claim((bytes,bytes,address,uint256,uint256,bytes32,string,bytes32[],uint256,uint256,uint256,uint256,(address,uint256)[]))": "a4c7bd93",
    "claim((bytes,bytes,address,uint256,uint256,bytes32,string,bytes32[],uint256,uint256,uint256,uint256,address,uint256))": "5e6c91ff",
    "claim((bytes,bytes,address,uint256,uint256,bytes32,string,uint256,uint256,(address,uint256)[]))": "996d3aac",
    "claim((bytes,bytes,address,uint256,uint256,bytes32,string,uint256,uint256,address,uint256))": "44b97d78",
    "claim((bytes,bytes,address,uint256,uint256,bytes32[],(uint256,uint256,(address,uint256)[])[]))": "935ed2ba",
    "claim((bytes,bytes,address,uint256,uint256,bytes32[],(uint256,uint256,uint256)[],address))": "9be5f537",
    "claim((bytes,bytes,address,uint256,uint256,bytes32[],uint256,uint256,(address,uint256)[]))": "b7ace047",
    "claim((bytes,bytes,address,uint256,uint256,bytes32[],uint256,uint256,(uint256,uint256,(address,uint256)[])[]))": "06659b7f",
    "claim((bytes,bytes,address,uint256,uint256,bytes32[],uint256,uint256,(uint256,uint256,uint256)[],address))": "fa1c5500",
    "claim((bytes,bytes,address,uint256,uint256,bytes32[],uint256,uint256,address,uint256))": "e6c5b654",
    "claim((bytes,bytes,address,uint256,uint256,bytes32[],uint256,uint256,uint256,uint256,(address,uint256)[]))": "409b3a7e",
    "claim((bytes,bytes,address,uint256,uint256,bytes32[],uint256,uint256,uint256,uint256,address,uint256))": "32e2a803",
    "claim((bytes,bytes,address,uint256,uint256,uint256,uint256,(address,uint256)[]))": "b8a5bbad",
    "claim((bytes,bytes,address,uint256,uint256,uint256,uint256,address,uint256))": "86785559",
    "claimAndWithdraw((bytes,bytes,address,uint256,uint256,(uint256,uint256,(address,uint256)[])[]))": "548439e1",
    "claimAndWithdraw((bytes,bytes,address,uint256,uint256,(uint256,uint256,uint256)[],address))": "721f6292",
    "claimAndWithdraw((bytes,bytes,address,uint256,uint256,bytes32,bytes,(uint256,uint256,(address,uint256)[])[]))": "13589bfe",
    "claimAndWithdraw((bytes,bytes,address,uint256,uint256,bytes32,bytes,(uint256,uint256,uint256)[],address))": "f44a3452",
    "claimAndWithdraw((bytes,bytes,address,uint256,uint256,bytes32,bytes,bytes32[],(uint256,uint256,(address,uint256)[])[]))": "0a133cf2",
    "claimAndWithdraw((bytes,bytes,address,uint256,uint256,bytes32,bytes,bytes32[],(uint256,uint256,uint256)[],address))": "0f5eeadf",
    "claimAndWithdraw((bytes,bytes,address,uint256,uint256,bytes32,bytes,bytes32[],uint256,uint256,(address,uint256)[]))": "eb196008",
    "claimAndWithdraw((bytes,bytes,address,uint256,uint256,bytes32,bytes,bytes32[],uint256,uint256,(uint256,uint256,(address,uint256)[])[]))": "88da84d4",
    "claimAndWithdraw((bytes,bytes,address,uint256,uint256,bytes32,bytes,bytes32[],uint256,uint256,(uint256,uint256,uint256)[],address))": "03417d72",
    "claimAndWithdraw((bytes,bytes,address,uint256,uint256,bytes32,bytes,bytes32[],uint256,uint256,address,uint256))": "f23d923d",
    "claimAndWithdraw((bytes,bytes,address,uint256,uint256,bytes32,bytes,bytes32[],uint256,uint256,uint256,uint256,(address,uint256)[]))": "843719f0",
    "claimAndWithdraw((bytes,bytes,address,uint256,uint256,bytes32,bytes,bytes32[],uint256,uint256,uint256,uint256,address,uint256))": "eea77a78",
    "claimAndWithdraw((bytes,bytes,address,uint256,uint256,bytes32,bytes,uint256,uint256,(address,uint256)[]))": "06e8cc18",
    "claimAndWithdraw((bytes,bytes,address,uint256,uint256,bytes32,bytes,uint256,uint256,address,uint256))": "1bb81a81",
    "claimAndWithdraw((bytes,bytes,address,uint256,uint256,bytes32,string,(uint256,uint256,(address,uint256)[])[]))": "f2f0def1",
    "claimAndWithdraw((bytes,bytes,address,uint256,uint256,bytes32,string,(uint256,uint256,uint256)[],address))": "4e55a548",
    "claimAndWithdraw((bytes,bytes,address,uint256,uint256,bytes32,string,bytes32,bytes,(uint256,uint256,(address,uint256)[])[]))": "08e600ee",
    "claimAndWithdraw((bytes,bytes,address,uint256,uint256,bytes32,string,bytes32,bytes,(uint256,uint256,uint256)[],address))": "b20abc48",
    "claimAndWithdraw((bytes,bytes,address,uint256,uint256,bytes32,string,bytes32,bytes,bytes32[],(uint256,uint256,(address,uint256)[])[]))": "25d7776b",
    "claimAndWithdraw((bytes,bytes,address,uint256,uint256,bytes32,string,bytes32,bytes,bytes32[],(uint256,uint256,uint256)[],address))": "14865907",
    "claimAndWithdraw((bytes,bytes,address,uint256,uint256,bytes32,string,bytes32,bytes,bytes32[],uint256,uint256,(address,uint256)[]))": "d2a1805f",
    "claimAndWithdraw((bytes,bytes,address,uint256,uint256,bytes32,string,bytes32,bytes,bytes32[],uint256,uint256,(uint256,uint256,(address,uint256)[])[]))": "d921f36a",
    "claimAndWithdraw((bytes,bytes,address,uint256,uint256,bytes32,string,bytes32,bytes,bytes32[],uint256,uint256,(uint256,uint256,uint256)[],address))": "fcfe431a",
    "claimAndWithdraw((bytes,bytes,address,uint256,uint256,bytes32,string,bytes32,bytes,bytes32[],uint256,uint256,address,uint256))": "d3917f3c",
    "claimAndWithdraw((bytes,bytes,address,uint256,uint256,bytes32,string,bytes32,bytes,bytes32[],uint256,uint256,uint256,uint256,(address,uint256)[]))": "64870556",
    "claimAndWithdraw((bytes,bytes,address,uint256,uint256,bytes32,string,bytes32,bytes,bytes32[],uint256,uint256,uint256,uint256,address,uint256))": "418a23f5",
    "claimAndWithdraw((bytes,bytes,address,uint256,uint256,bytes32,string,bytes32,bytes,uint256,uint256,(address,uint256)[]))": "f95d3d16",
    "claimAndWithdraw((bytes,bytes,address,uint256,uint256,bytes32,string,bytes32,bytes,uint256,uint256,address,uint256))": "138cd819",
    "claimAndWithdraw((bytes,bytes,address,uint256,uint256,bytes32,string,bytes32[],(uint256,uint256,(address,uint256)[])[]))": "62a420bb",
    "claimAndWithdraw((bytes,bytes,address,uint256,uint256,bytes32,string,bytes32[],(uint256,uint256,uint256)[],address))": "c4d195e8",
    "claimAndWithdraw((bytes,bytes,address,uint256,uint256,bytes32,string,bytes32[],uint256,uint256,(address,uint256)[]))": "3f458a19",
    "claimAndWithdraw((bytes,bytes,address,uint256,uint256,bytes32,string,bytes32[],uint256,uint256,(uint256,uint256,(address,uint256)[])[]))": "5d76a382",
    "claimAndWithdraw((bytes,bytes,address,uint256,uint256,bytes32,string,bytes32[],uint256,uint256,(uint256,uint256,uint256)[],address))": "eed93572",
    "claimAndWithdraw((bytes,bytes,address,uint256,uint256,bytes32,string,bytes32[],uint256,uint256,address,uint256))": "1b98b63f",
    "claimAndWithdraw((bytes,bytes,address,uint256,uint256,bytes32,string,bytes32[],uint256,uint256,uint256,uint256,(address,uint256)[]))": "341056c5",
    "claimAndWithdraw((bytes,bytes,address,uint256,uint256,bytes32,string,bytes32[],uint256,uint256,uint256,uint256,address,uint256))": "89ce0661",
    "claimAndWithdraw((bytes,bytes,address,uint256,uint256,bytes32,string,uint256,uint256,(address,uint256)[]))": "4ad5205e",
    "claimAndWithdraw((bytes,bytes,address,uint256,uint256,bytes32,string,uint256,uint256,address,uint256))": "2e4d55cc",
    "claimAndWithdraw((bytes,bytes,address,uint256,uint256,bytes32[],(uint256,uint256,(address,uint256)[])[]))": "88d247c4",
    "claimAndWithdraw((bytes,bytes,address,uint256,uint256,bytes32[],(uint256,uint256,uint256)[],address))": "bc95bd7a",
    "claimAndWithdraw((bytes,bytes,address,uint256,uint256,bytes32[],uint256,uint256,(address,uint256)[]))": "2737edb9",
    "claimAndWithdraw((bytes,bytes,address,uint256,uint256,bytes32[],uint256,uint256,(uint256,uint256,(address,uint256)[])[]))": "206620a1",
    "claimAndWithdraw((bytes,bytes,address,uint256,uint256,bytes32[],uint256,uint256,(uint256,uint256,uint256)[],address))": "2acd5dc3",
    "claimAndWithdraw((bytes,bytes,address,uint256,uint256,bytes32[],uint256,uint256,address,uint256))": "76d531d4",
    "claimAndWithdraw((bytes,bytes,address,uint256,uint256,bytes32[],uint256,uint256,uint256,uint256,(address,uint256)[]))": "e05c6e7d",
    "claimAndWithdraw((bytes,bytes,address,uint256,uint256,bytes32[],uint256,uint256,uint256,uint256,address,uint256))": "ca6cc39f",
    "claimAndWithdraw((bytes,bytes,address,uint256,uint256,uint256,uint256,(address,uint256)[]))": "71f50127",
    "claimAndWithdraw((bytes,bytes,address,uint256,uint256,uint256,uint256,address,uint256))": "b602ae02",
    "consume(uint256[])": "12d48885",
    "decimals(uint256)": "3f47e662",
    "deposit(address)": "f340fa01",
    "deposit(address,(address,uint256)[],uint256,uint256,address,uint8,uint8,address,bytes)": "99cf8b9b",
    "deposit(address,address,uint256)": "8340f549",
    "deposit(address,address,uint8,uint8,uint256,address)": "671b3bd6",
    "deposit(address,uint256,uint256,uint256,address,address,uint8,uint8,address,bytes)": "10d82672",
    "deposit(address,uint8,uint8,address)": "507cb46f",
    "deposit(uint256[2][],address)": "c8091041",
    "depositAndRegister(address,(address,uint256)[],uint256,uint256,address,uint8,uint8,bytes32,uint8,string,bytes)": "da15ee7f",
    "depositAndRegister(address,address,uint256,bytes32,bytes32)": "ecaca40e",
    "depositAndRegister(address,bytes32,bytes32)": "aa8b845d",
    "depositAndRegister(address,uint256,uint256,uint256,address,address,uint8,uint8,bytes32,uint8,string,bytes)": "53e50067",
    "depositAndRegister(uint256[2][],bytes32[2][],uint256)": "5b6016ec",
    "disableForcedWithdrawal(uint256)": "70030190",
    "enableForcedWithdrawal(uint256)": "eb35a6d2",
    "extsload(bytes32)": "1e2eaeaf",
    "extsload(bytes32[])": "dbd035ff",
    "exttload(bytes32)": "f135baaa",
    "forcedWithdrawal(uint256,address,uint256)": "2e3ff2f7",
    "getForcedWithdrawalStatus(address,uint256)": "144bd5b5",
    "getLockDetails(uint256)": "5b15bfd9",
    "getRegistrationStatus(address,bytes32,bytes32)": "440a0ec3",
    "hasConsumedAllocatorNonce(uint256,address)": "da2f268b",
    "isOperator(address,address)": "b6363cf2",
    "name()": "06fdde03",
    "name(uint256)": "00ad800c",
    "register(bytes32,bytes32,uint256)": "4073c0cc",
    "register(bytes32[2][],uint256)": "31bbae3e",
    "setOperator(address,bool)": "558a7297",
    "supportsInterface(bytes4)": "01ffc9a7",
    "symbol(uint256)": "4e41a1fb",
    "tokenURI(uint256)": "c87b56dd",
    "transfer(address,uint256,uint256)": "095bcdb6",
    "transferFrom(address,address,uint256,uint256)": "fe99049a"
  },
  "id": 36
}